{
  "_format": "hh-sol-artifact-1",
  "contractName": "IDBot",
  "sourceName": "contracts/IDBot.sol",
  "abi": [
    {
      "inputs": [],
      "stateMutability": "nonpayable",
      "type": "constructor"
    },
    {
      "anonymous": false,
      "inputs": [
        {
          "indexed": true,
          "internalType": "address",
          "name": "contract_address",
          "type": "address"
        },
        {
          "indexed": false,
          "internalType": "string",
          "name": "name",
          "type": "string"
        }
      ],
      "name": "AddProject",
      "type": "event"
    },
    {
      "anonymous": false,
      "inputs": [
        {
          "indexed": true,
          "internalType": "address",
          "name": "user",
          "type": "address"
        },
        {
          "indexed": false,
          "internalType": "uint256",
          "name": "profileId",
          "type": "uint256"
        }
      ],
      "name": "CreateProfile",
      "type": "event"
    },
    {
      "anonymous": false,
      "inputs": [
        {
          "indexed": true,
          "internalType": "address",
          "name": "user",
          "type": "address"
        },
        {
          "indexed": false,
          "internalType": "uint256",
          "name": "duration",
          "type": "uint256"
        }
      ],
      "name": "Subscribed",
      "type": "event"
    },
    {
      "anonymous": false,
      "inputs": [
        {
          "indexed": true,
          "internalType": "address",
          "name": "user",
          "type": "address"
        }
      ],
      "name": "Unverified",
      "type": "event"
    },
    {
      "anonymous": false,
      "inputs": [
        {
          "indexed": true,
          "internalType": "address",
          "name": "user",
          "type": "address"
        }
      ],
      "name": "Verified",
      "type": "event"
    },
    {
      "inputs": [
        {
          "internalType": "uint256",
          "name": "",
          "type": "uint256"
        }
      ],
      "name": "_subscribers",
      "outputs": [
        {
          "internalType": "address",
          "name": "user",
          "type": "address"
        },
        {
          "internalType": "uint256",
          "name": "duration",
          "type": "uint256"
        },
        {
          "internalType": "uint256",
          "name": "startedAt",
          "type": "uint256"
        },
        {
          "internalType": "bool",
          "name": "isActive",
          "type": "bool"
        }
      ],
      "stateMutability": "view",
      "type": "function"
    },
    {
      "inputs": [
        {
          "internalType": "address",
          "name": "",
          "type": "address"
        }
      ],
      "name": "access_list",
      "outputs": [
        {
          "internalType": "bool",
          "name": "",
          "type": "bool"
        }
      ],
      "stateMutability": "view",
      "type": "function"
    },
    {
      "inputs": [
        {
          "internalType": "string",
          "name": "_name",
          "type": "string"
        },
        {
          "internalType": "string",
          "name": "_description",
          "type": "string"
        },
        {
          "internalType": "address",
          "name": "_contract_address",
          "type": "address"
        },
        {
          "internalType": "string",
          "name": "_chain",
          "type": "string"
        },
        {
          "internalType": "string",
          "name": "_website_link",
          "type": "string"
        },
        {
          "internalType": "string",
          "name": "_telegram_link",
          "type": "string"
        },
        {
          "internalType": "string",
          "name": "_twitter_link",
          "type": "string"
        },
        {
          "internalType": "string",
          "name": "_discord_link",
          "type": "string"
        },
        {
          "internalType": "string",
          "name": "_linktree",
          "type": "string"
        }
      ],
      "name": "addProject",
      "outputs": [],
      "stateMutability": "nonpayable",
      "type": "function"
    },
    {
      "inputs": [
        {
          "internalType": "address",
          "name": "user",
          "type": "address"
        }
      ],
      "name": "addVerification",
      "outputs": [],
      "stateMutability": "nonpayable",
      "type": "function"
    },
    {
      "inputs": [
        {
          "internalType": "address",
          "name": "ca",
          "type": "address"
        },
        {
          "internalType": "address",
          "name": "user",
          "type": "address"
        }
      ],
      "name": "checkIfProjectIsHoneyPot",
      "outputs": [
        {
          "internalType": "bool",
          "name": "",
          "type": "bool"
        }
      ],
      "stateMutability": "view",
      "type": "function"
    },
    {
      "inputs": [
        {
          "internalType": "address",
          "name": "ca",
          "type": "address"
        },
        {
          "internalType": "address",
          "name": "user",
          "type": "address"
        }
      ],
      "name": "checkIfProjectIsRugged",
      "outputs": [
        {
          "internalType": "bool",
          "name": "",
          "type": "bool"
        }
      ],
      "stateMutability": "view",
      "type": "function"
    },
    {
      "inputs": [
        {
          "internalType": "string",
          "name": "_name",
          "type": "string"
        },
        {
          "internalType": "string",
          "name": "_description",
          "type": "string"
        },
        {
          "internalType": "bool",
          "name": "_dev",
          "type": "bool"
        },
        {
          "internalType": "string",
          "name": "_email",
          "type": "string"
        },
        {
          "internalType": "string",
          "name": "_age",
          "type": "string"
        },
        {
          "internalType": "string",
          "name": "phone",
          "type": "string"
        },
        {
          "internalType": "string",
          "name": "_country",
          "type": "string"
        },
        {
          "internalType": "string",
          "name": "_state",
          "type": "string"
        },
        {
          "internalType": "string",
          "name": "_address",
          "type": "string"
        },
        {
          "internalType": "string[]",
          "name": "urls",
          "type": "string[]"
        },
        {
          "internalType": "uint256",
          "name": "number",
          "type": "uint256"
        }
      ],
      "name": "createProfile",
      "outputs": [],
      "stateMutability": "nonpayable",
      "type": "function"
    },
    {
      "inputs": [
        {
          "internalType": "address",
          "name": "user",
          "type": "address"
        }
      ],
      "name": "getAge",
      "outputs": [
        {
          "internalType": "string",
          "name": "",
          "type": "string"
        }
      ],
      "stateMutability": "view",
      "type": "function"
    },
    {
      "inputs": [
        {
          "internalType": "address",
          "name": "user",
          "type": "address"
        }
      ],
      "name": "getCountry",
      "outputs": [
        {
          "internalType": "string",
          "name": "",
          "type": "string"
        }
      ],
      "stateMutability": "view",
      "type": "function"
    },
    {
      "inputs": [
        {
          "internalType": "address",
          "name": "user",
          "type": "address"
        }
      ],
      "name": "getDescription",
      "outputs": [
        {
          "internalType": "string",
          "name": "",
          "type": "string"
        }
      ],
      "stateMutability": "view",
      "type": "function"
    },
    {
      "inputs": [
        {
          "internalType": "address",
          "name": "user",
          "type": "address"
        }
      ],
      "name": "getEmail",
      "outputs": [
        {
          "internalType": "string",
          "name": "",
          "type": "string"
        }
      ],
      "stateMutability": "view",
      "type": "function"
    },
    {
      "inputs": [
        {
          "internalType": "address",
          "name": "user",
          "type": "address"
        }
      ],
      "name": "getIDBotNumber",
      "outputs": [
        {
          "internalType": "uint256",
          "name": "",
          "type": "uint256"
        }
      ],
      "stateMutability": "view",
      "type": "function"
    },
    {
      "inputs": [
        {
          "internalType": "address",
          "name": "user",
          "type": "address"
        }
      ],
      "name": "getIdentityUrl",
      "outputs": [
        {
          "internalType": "string",
          "name": "",
          "type": "string"
        }
      ],
      "stateMutability": "view",
      "type": "function"
    },
    {
      "inputs": [
        {
          "internalType": "address",
          "name": "user",
          "type": "address"
        }
      ],
      "name": "getName",
      "outputs": [
        {
          "internalType": "string",
          "name": "",
          "type": "string"
        }
      ],
      "stateMutability": "view",
      "type": "function"
    },
    {
      "inputs": [
        {
          "internalType": "address",
          "name": "user",
          "type": "address"
        }
      ],
      "name": "getPhoneNumber",
      "outputs": [
        {
          "internalType": "string",
          "name": "",
          "type": "string"
        }
      ],
      "stateMutability": "view",
      "type": "function"
    },
    {
      "inputs": [
        {
          "internalType": "address",
          "name": "user",
          "type": "address"
        }
      ],
      "name": "getProfilePicUrl",
      "outputs": [
        {
          "internalType": "string",
          "name": "",
          "type": "string"
        }
      ],
      "stateMutability": "view",
      "type": "function"
    },
    {
      "inputs": [],
      "name": "getProfiles",
      "outputs": [
        {
          "components": [
            {
              "internalType": "address",
              "name": "user",
              "type": "address"
            },
            {
              "internalType": "uint256",
              "name": "idbot_number",
              "type": "uint256"
            },
            {
              "internalType": "string",
              "name": "name",
              "type": "string"
            },
            {
              "internalType": "string",
              "name": "description",
              "type": "string"
            },
            {
              "internalType": "bool",
              "name": "dev",
              "type": "bool"
            },
            {
              "internalType": "string",
              "name": "email",
              "type": "string"
            },
            {
              "internalType": "string",
              "name": "age",
              "type": "string"
            },
            {
              "internalType": "string",
              "name": "phone_number",
              "type": "string"
            },
            {
              "internalType": "string",
              "name": "country",
              "type": "string"
            },
            {
              "internalType": "string",
              "name": "state",
              "type": "string"
            },
            {
              "internalType": "string",
              "name": "residential_address",
              "type": "string"
            },
            {
              "internalType": "string",
              "name": "profile_pic_url",
              "type": "string"
            },
            {
              "internalType": "string",
              "name": "identity_url",
              "type": "string"
            },
            {
              "internalType": "int256",
              "name": "reputation_score",
              "type": "int256"
            },
            {
              "internalType": "string",
              "name": "verification_status",
              "type": "string"
            },
            {
              "internalType": "bool",
              "name": "verified",
              "type": "bool"
            },
            {
              "components": [
                {
                  "internalType": "string",
                  "name": "name",
                  "type": "string"
                },
                {
                  "internalType": "string",
                  "name": "description",
                  "type": "string"
                },
                {
                  "internalType": "address",
                  "name": "contract_address",
                  "type": "address"
                },
                {
                  "internalType": "string",
                  "name": "chain",
                  "type": "string"
                },
                {
                  "internalType": "string",
                  "name": "website_link",
                  "type": "string"
                },
                {
                  "internalType": "string",
                  "name": "telegram_link",
                  "type": "string"
                },
                {
                  "internalType": "string",
                  "name": "twitter_link",
                  "type": "string"
                },
                {
                  "internalType": "string",
                  "name": "discord_link",
                  "type": "string"
                },
                {
                  "internalType": "string",
                  "name": "linktree",
                  "type": "string"
                },
                {
                  "internalType": "bool",
                  "name": "isHoneyPot",
                  "type": "bool"
                },
                {
                  "internalType": "bool",
                  "name": "isRugged",
                  "type": "bool"
                },
                {
                  "internalType": "int256",
                  "name": "reputation_score",
                  "type": "int256"
                }
              ],
              "internalType": "struct IDBot.Project[]",
              "name": "projects",
              "type": "tuple[]"
            }
          ],
          "internalType": "struct IDBot.Profile[]",
          "name": "",
          "type": "tuple[]"
        }
      ],
      "stateMutability": "view",
      "type": "function"
    },
    {
      "inputs": [
        {
          "internalType": "address",
          "name": "ca",
          "type": "address"
        },
        {
          "internalType": "address",
          "name": "user",
          "type": "address"
        }
      ],
      "name": "getProjectContractAddress",
      "outputs": [
        {
          "internalType": "address",
          "name": "",
          "type": "address"
        }
      ],
      "stateMutability": "view",
      "type": "function"
    },
    {
      "inputs": [
        {
          "internalType": "address",
          "name": "ca",
          "type": "address"
        },
        {
          "internalType": "address",
          "name": "user",
          "type": "address"
        }
      ],
      "name": "getProjectDescription",
      "outputs": [
        {
          "internalType": "string",
          "name": "",
          "type": "string"
        }
      ],
      "stateMutability": "view",
      "type": "function"
    },
    {
      "inputs": [
        {
          "internalType": "address",
          "name": "ca",
          "type": "address"
        },
        {
          "internalType": "address",
          "name": "user",
          "type": "address"
        }
      ],
      "name": "getProjectLinks",
      "outputs": [
        {
          "internalType": "string[5]",
          "name": "",
          "type": "string[5]"
        }
      ],
      "stateMutability": "view",
      "type": "function"
    },
    {
      "inputs": [
        {
          "internalType": "address",
          "name": "ca",
          "type": "address"
        },
        {
          "internalType": "address",
          "name": "user",
          "type": "address"
        }
      ],
      "name": "getProjectName",
      "outputs": [
        {
          "internalType": "string",
          "name": "",
          "type": "string"
        }
      ],
      "stateMutability": "view",
      "type": "function"
    },
    {
      "inputs": [
        {
          "internalType": "address",
          "name": "ca",
          "type": "address"
        },
        {
          "internalType": "address",
          "name": "user",
          "type": "address"
        }
      ],
      "name": "getProjectReputationScore",
      "outputs": [
        {
          "internalType": "int256",
          "name": "",
          "type": "int256"
        }
      ],
      "stateMutability": "view",
      "type": "function"
    },
    {
      "inputs": [
        {
          "internalType": "address",
          "name": "user",
          "type": "address"
        }
      ],
      "name": "getProjects",
      "outputs": [
        {
          "components": [
            {
              "internalType": "string",
              "name": "name",
              "type": "string"
            },
            {
              "internalType": "string",
              "name": "description",
              "type": "string"
            },
            {
              "internalType": "address",
              "name": "contract_address",
              "type": "address"
            },
            {
              "internalType": "string",
              "name": "chain",
              "type": "string"
            },
            {
              "internalType": "string",
              "name": "website_link",
              "type": "string"
            },
            {
              "internalType": "string",
              "name": "telegram_link",
              "type": "string"
            },
            {
              "internalType": "string",
              "name": "twitter_link",
              "type": "string"
            },
            {
              "internalType": "string",
              "name": "discord_link",
              "type": "string"
            },
            {
              "internalType": "string",
              "name": "linktree",
              "type": "string"
            },
            {
              "internalType": "bool",
              "name": "isHoneyPot",
              "type": "bool"
            },
            {
              "internalType": "bool",
              "name": "isRugged",
              "type": "bool"
            },
            {
              "internalType": "int256",
              "name": "reputation_score",
              "type": "int256"
            }
          ],
          "internalType": "struct IDBot.Project[]",
          "name": "",
          "type": "tuple[]"
        }
      ],
      "stateMutability": "view",
      "type": "function"
    },
    {
      "inputs": [
        {
          "internalType": "address",
          "name": "user",
          "type": "address"
        }
      ],
      "name": "getReputationScore",
      "outputs": [
        {
          "internalType": "int256",
          "name": "",
          "type": "int256"
        }
      ],
      "stateMutability": "view",
      "type": "function"
    },
    {
      "inputs": [
        {
          "internalType": "address",
          "name": "user",
          "type": "address"
        }
      ],
      "name": "getResidentialAddress",
      "outputs": [
        {
          "internalType": "string",
          "name": "",
          "type": "string"
        }
      ],
      "stateMutability": "view",
      "type": "function"
    },
    {
      "inputs": [
        {
          "internalType": "address",
          "name": "user",
          "type": "address"
        }
      ],
      "name": "getState",
      "outputs": [
        {
          "internalType": "string",
          "name": "",
          "type": "string"
        }
      ],
      "stateMutability": "view",
      "type": "function"
    },
    {
      "inputs": [
        {
          "internalType": "uint256",
          "name": "idbot_number",
          "type": "uint256"
        }
      ],
      "name": "getUser",
      "outputs": [
        {
          "internalType": "address",
          "name": "",
          "type": "address"
        }
      ],
      "stateMutability": "view",
      "type": "function"
    },
    {
      "inputs": [
        {
          "internalType": "address",
          "name": "user",
          "type": "address"
        }
      ],
      "name": "getVerificationStatus",
      "outputs": [
        {
          "internalType": "string",
          "name": "",
          "type": "string"
        }
      ],
      "stateMutability": "view",
      "type": "function"
    },
    {
      "inputs": [
        {
          "internalType": "address",
          "name": "user",
          "type": "address"
        }
      ],
      "name": "isDev",
      "outputs": [
        {
          "internalType": "bool",
          "name": "",
          "type": "bool"
        }
      ],
      "stateMutability": "view",
      "type": "function"
    },
    {
      "inputs": [
        {
          "internalType": "address",
          "name": "",
          "type": "address"
        }
      ],
      "name": "isProfiled",
      "outputs": [
        {
          "internalType": "bool",
          "name": "",
          "type": "bool"
        }
      ],
      "stateMutability": "view",
      "type": "function"
    },
    {
      "inputs": [
        {
          "internalType": "address",
          "name": "_user",
          "type": "address"
        }
      ],
      "name": "isSubscribed",
      "outputs": [
        {
          "internalType": "bool",
          "name": "subscribed",
          "type": "bool"
        }
      ],
      "stateMutability": "view",
      "type": "function"
    },
    {
      "inputs": [],
      "name": "owner",
      "outputs": [
        {
          "internalType": "address",
          "name": "",
          "type": "address"
        }
      ],
      "stateMutability": "view",
      "type": "function"
    },
    {
      "inputs": [
        {
          "internalType": "address",
          "name": "user",
          "type": "address"
        }
      ],
      "name": "removeVerification",
      "outputs": [],
      "stateMutability": "nonpayable",
      "type": "function"
    },
    {
      "inputs": [
        {
          "internalType": "address",
          "name": "ca",
          "type": "address"
        },
        {
          "internalType": "address",
          "name": "user",
          "type": "address"
        }
      ],
      "name": "reportProjectIsHoneyPot",
      "outputs": [],
      "stateMutability": "nonpayable",
      "type": "function"
    },
    {
      "inputs": [
        {
          "internalType": "address",
          "name": "ca",
          "type": "address"
        },
        {
          "internalType": "address",
          "name": "user",
          "type": "address"
        }
      ],
      "name": "reportProjectIsRugged",
      "outputs": [],
      "stateMutability": "nonpayable",
      "type": "function"
    },
    {
      "inputs": [
        {
          "internalType": "uint256",
          "name": "_duration",
          "type": "uint256"
        }
      ],
      "name": "subscribe",
      "outputs": [],
      "stateMutability": "payable",
      "type": "function"
    },
    {
      "inputs": [
        {
          "internalType": "address",
          "name": "",
          "type": "address"
        }
      ],
      "name": "subscribers",
      "outputs": [
        {
          "internalType": "address",
          "name": "user",
          "type": "address"
        },
        {
          "internalType": "uint256",
          "name": "duration",
          "type": "uint256"
        },
        {
          "internalType": "uint256",
          "name": "startedAt",
          "type": "uint256"
        },
        {
          "internalType": "bool",
          "name": "isActive",
          "type": "bool"
        }
      ],
      "stateMutability": "view",
      "type": "function"
    },
    {
      "inputs": [],
      "name": "unsubscribe",
      "outputs": [],
      "stateMutability": "nonpayable",
      "type": "function"
    },
    {
      "inputs": [
        {
          "internalType": "uint256",
          "name": "_duration",
          "type": "uint256"
        }
      ],
      "name": "updateSubscription",
      "outputs": [],
      "stateMutability": "payable",
      "type": "function"
    }
  ],
  "bytecode": "0x6080806040523461004057600080546001600160a01b0319163390811782558152600760205260409020805460ff1916600117905561343490816100468239f35b600080fdfe6080604052600436101561001257600080fd5b60003560e01c80630c3f64bf146119795780630e6db7361461193a5780630f574ba71461182a5780631bab58f5146117d4578063252c158f1461177e5780632d1ce2ae1461172757806338451598146116d15780633a63b9e614611607578063482d8ac7146115ae5780634fa7353c1461155857806353dae176146114bf5780635745ae28146114455780635fd4b08a146113ef5780636103681a146113b2578063615f927e1461139157806375a67d5c1461133b57806381a36eec1461132457806384329ec5146112ce5780638da5cb5b146112a55780638e716d35146112665780639bbfa385146111fb578063a41e095d14611191578063b0467deb1461115d578063b213703314610e05578063b255055914610bd3578063b4b1d9c714610b7d578063b92ae87c14610b50578063b9e426e814610afa578063bbae9946146109f3578063cddd9312146109c8578063d6b5d05e14610972578063d821f92d1461091c578063dee138e91461083f578063e17fc1b514610453578063ef45ccab146103fa578063f7d139cb1461035a578063fcae448414610289578063fe2e027d146102225763fecf696d146101c957600080fd5b3461021d57604036600319011261021d5760206101406102116101ea6119d4565b6101f26119ea565b90336000526007855261020c60ff604060002054166132a5565b613322565b01511515604051908152f35b600080fd5b3461021d57602036600319011261021d5761023b6119d4565b6000546001600160a01b0391906102559083163314611c9d565b166000526003602052610285610271600c604060002001611d15565b604051918291602083526020830190611a00565b0390f35b3461021d57600036600319011261021d576000546001600160a01b03906102b39082163314611c9d565b60005b6002908154811015610358576102cb81611a40565b5091820154420391428311610342576001818101546102ff946201518090041015908161032f575b50610304575b50613180565b6102b6565b83600382019160ff1992838154169055541660005260076020526040600020908154169055836102f9565b905060ff600383015416151514856102f3565b634e487b7160e01b600052601160045260246000fd5b005b3461021d57602036600319011261021d576103736119d4565b6000546001600160a01b03919061038d9083163314611c9d565b16806000526003602052600f6040600020600e81016103b56103af8254611cdb565b82611f04565b60186b139bdd0815995c9a599a595960a21b01905501805460ff191690557fbf40ed975ac04192dc3c221b21155d52ba4322b78f63a7bd22c828bf2d3f6c8c600080a2005b3461021d57604036600319011261021d5760206104156119d4565b60406104486104226119ea565b336000526007855261043a60ff8460002054166132a5565b6001600160a01b0393613322565b015116604051908152f35b3461021d5761016036600319011261021d576004356001600160401b03811161021d57610484903690600401611c3f565b6024356001600160401b03811161021d576104a3903690600401611c3f565b9060443591821515830361021d576064356001600160401b03811161021d576104d0903690600401611c3f565b6084356001600160401b03811161021d576104ef903690600401611c3f565b60a4356001600160401b03811161021d5761050e903690600401611c3f565b60c4356001600160401b03811161021d5761052d903690600401611c3f565b60e4356001600160401b03811161021d5761054c903690600401611c3f565b91610104356001600160401b03811161021d5761056d903690600401611c3f565b936001600160401b03610124351161021d573660236101243501121561021d5761059d6101243560040135611c86565b956105ab6040519788611c03565b6101243560040135875260208701998a366024610124356004013560051b6101243501011161021d5760246101243501905b6024610124356004013560051b610124350101821061080e57505033600052600560205260ff604060002054166107c95761061b4261014435611ee0565b9a88511561079d57519780516001101561079d5760400151986040519a6106418c611bcb565b338c528c60208d015260408c015260608b0152151560808a015260a089015260c088015260e087015261010086015261012085015261014084015261016083015261018082015260006101a0820152604051604081018181106001600160401b038211176107b357604052600781526650656e64696e6760c81b60208201526101c082015260006101e0820152606061020082015260015490600160401b8210156107b357600182018060015582101561079d5761072c816011610756946001600052027fb10e2d527612073b26eecdfd717e6a320cf44b4afac2b0732d9fcbe2b7fa0cf601612643565b336000526003602052610743816040600020612643565b8260005260046020526040600020612643565b3360005260056020526040600020600160ff198254161790556040519081527fe4389ab9c67cce68e65561d8fc2fabf4d88b4c66a0874e1b7980682de416818960203392a2005b634e487b7160e01b600052603260045260246000fd5b634e487b7160e01b600052604160045260246000fd5b60405162461bcd60e51b815260206004820152601c60248201527f596f7520616c7265616479206861766520616e206163636f756e742e000000006044820152606490fd5b6001600160401b0382351161021d57602080916108343660248635610124350101611c3f565b8152019101906105dd565b3461021d57604036600319011261021d576108586119d4565b6108606119ea565b9033600052600760205260ff61087c81604060002054166132a5565b6001600160a01b039283166000908152600360205260408120928416929060108201905b8154811015610358576108c890858760026108ba8661330d565b50015416146108cd57613180565b6108a0565b600a6108d88461330d565b506009810180548881161561090c575b5050016108f581546133ec565b9055600d840161090581546133ec565b9055613180565b60ff1916600117905589806108e8565b3461021d57602036600319011261021d576109356119d4565b33600052600760205261094f60ff604060002054166132a5565b60018060a01b031660005260036020526102856102716008604060002001611d15565b3461021d57602036600319011261021d5761098b6119d4565b3360005260076020526109a560ff604060002054166132a5565b60018060a01b03166000526003602052610285610271600a604060002001611d15565b3461021d57604036600319011261021d5760206101606109e96101ea6119d4565b0151604051908152f35b3461021d57604036600319011261021d57610a0c6119d4565b610a146119ea565b60405160a0916001600160401b0391838101838111828210176107b35760405260005b848110610aec575050610a6090336000526020946007865261020c60ff604060002054166132a5565b60405192808401928311848410176107b35761010092604052608082015184528101518484015260c0810151604084015260e08101516060840152015160808201526040519082820183835260c0830191906000945b60058610610ac45784840385f35b9091928180610adf600193601f198982030187528751611a00565b9501930195019490610ab6565b606082820152602001610a37565b3461021d57602036600319011261021d57610b136119d4565b336000526007602052610b2d60ff604060002054166132a5565b60018060a01b03166000526003602052610285610271600b604060002001611d15565b3461021d57602036600319011261021d576020610b73610b6e6119d4565b61318f565b6040519015158152f35b3461021d57602036600319011261021d57610b966119d4565b336000526007602052610bb060ff604060002054166132a5565b60018060a01b031660005260036020526102856102716003604060002001611d15565b3461021d576101208060031936011261021d576001600160401b0360043581811161021d57610c06903690600401611c3f565b60243582811161021d57610c1e903690600401611c3f565b6044356001600160a01b038116949085900361021d5760643584811161021d57610c4c903690600401611c3f565b60843585811161021d57610c64903690600401611c3f565b9160a43586811161021d57610c7d903690600401611c3f565b9560c43581811161021d57610c96903690600401611c3f565b9060e43581811161021d57610caf903690600401611c3f565b906101043590811161021d57610cc9903690600401611c3f565b913360005260209860038a5260406000209660ff600f8901541615610dd057906000959493929160108901976040519a610d028c611be7565b8c8c528d8c01528d60408c015260608b015260808a015260a089015260c088015260e087015261010086015284015260006101408401526064610160840152805492600160401b8410156107b3576001840180835584101561079d57600d93610d7692600052600b87600020910201611fba565b0191825460648101906000606483129112908015821691151617610342577f3f59d974cb323c784e37c2bf72b6b6f11983b4d23545adf73f81b553873a539c9355610dcb604051928284938452830190611a00565b0390a2005b60405162461bcd60e51b8152600481018c9052600d60248201526c2737ba103b32b934b334b2b21760991b6044820152606490fd5b3461021d57600036600319011261021d576000546001600160a01b0390610e2f9082163314611c9d565b600190815491610e3e83611c86565b91610e4c6040519384611c03565b8383526020928381019485846000527fb10e2d527612073b26eecdfd717e6a320cf44b4afac2b0732d9fcbe2b7fa0cf66000915b8383106110275750505050604051938085019181865251809252604085019260408360051b87010196936000915b848310610ebb5787890388f35b9091929394958480611015839b603f198c82030187528a518681511682528381015184830152610ff4610fd5610fc1610fad610f99610f85610f71610f5f610f4c610f2d610f1960408c01518d610220908160408201520190611a00565b8b8d60608092015191818403910152611a00565b6080808c01511515908d015260a08c818d015191818403910152611a00565b60c0808b0151908c8303908d0152611a00565b60e08901518a820360e08c0152611a00565b61010080890151908a8303908b0152611a00565b6101208088015190898303908a0152611a00565b610140808701519088830390890152611a00565b610160808601519087830390880152611a00565b610180808501519086830390870152611a00565b6101a080840151908501526101c0808401519085830390860152611a00565b916101e0808301511515908201526102008092015191818403910152611a7a565b9a980196959491909101920190610eae565b95601188829a9860409a97989a5161103e81611bcb565b8b8654168152848601548382015261105860028701611d15565b604082015261106960038701611d15565b606082015260ff806004880154161515608083015261108a60058801611d15565b60a083015261109b60068801611d15565b60c08301526110ac60078801611d15565b60e08301526110bd60088801611d15565b6101008301526110cf60098801611d15565b6101208301526110e1600a8801611d15565b6101408301526110f3600b8801611d15565b610160830152611105600c8801611d15565b610180830152600d8701546101a0830152611122600e8801611d15565b6101c0830152600f8701541615156101e082015261114260108701611e8a565b61020082015281520192019201919097959796949396610e80565b3461021d57602036600319011261021d576004356000526004602052602060018060a01b0360406000205416604051908152f35b3461021d57602036600319011261021d576111aa6119d4565b3360005260076020526111c460ff604060002054166132a5565b60018060a01b031660005260036020526102856111e76010604060002001611e8a565b604051918291602083526020830190611a7a565b3461021d57602036600319011261021d5760043560025481101561021d5761122290611a40565b50805460018201546002830154600390930154604080516001600160a01b03909416845260208401929092529082019290925260ff90911615156060820152608090f35b3461021d57602036600319011261021d576001600160a01b036112876119d4565b166000526007602052602060ff604060002054166040519015158152f35b3461021d57600036600319011261021d576000546040516001600160a01b039091168152602090f35b3461021d57602036600319011261021d576112e76119d4565b33600052600760205261130160ff604060002054166132a5565b60018060a01b031660005260036020526020600160406000200154604051908152f35b602036600319011261021d576103586004356131ed565b3461021d57602036600319011261021d576113546119d4565b33600052600760205261136e60ff604060002054166132a5565b60018060a01b031660005260036020526020600d60406000200154604051908152f35b3461021d57604036600319011261021d5760206101206102116101ea6119d4565b3461021d57602036600319011261021d576001600160a01b036113d36119d4565b166000526003602052610285610271600e604060002001611d15565b3461021d57602036600319011261021d576114086119d4565b33600052600760205261142260ff604060002054166132a5565b60018060a01b031660005260036020526102856102716002604060002001611d15565b3461021d57602036600319011261021d576001600160a01b03806114676119d4565b16600052600660205260406000209081541661028560018301549260ff600360028301549201541690604051948594859260609295949195608085019660018060a01b03168552602085015260408401521515910152565b3461021d57602036600319011261021d576114d86119d4565b6000546001600160a01b0391906114f29083163314611c9d565b16806000526003602052600f6040600020600e81016115146103af8254611cdb565b60106715995c9a599a595960c21b01905501805460ff191660011790557f6a6455914f452787eb3985452aceedc1000fb545e394eb3b370e3d08958e0a5b600080a2005b3461021d57602036600319011261021d576115716119d4565b33600052600760205261158b60ff604060002054166132a5565b60018060a01b031660005260036020526102856102716005604060002001611d15565b3461021d57604036600319011261021d5761028560206115f16115cf6119d4565b6115d76119ea565b90336000526007845261020c60ff604060002054166132a5565b0151604051918291602083526020830190611a00565b3461021d57604036600319011261021d576116206119d4565b6116286119ea565b9033600052600760205260ff61164481604060002054166132a5565b6001600160a01b039283166000908152600360205260408120928416929060108201905b81548110156103585761169090858760026116828661330d565b500154161461169557613180565b611668565b600a6116a08461330d565b50600981018054888160081c16156116bf575050016108f581546133ec565b61ff00191661010017905589806108e8565b3461021d57602036600319011261021d576116ea6119d4565b33600052600760205261170460ff604060002054166132a5565b60018060a01b031660005260036020526102856102716006604060002001611d15565b3461021d57604036600319011261021d576102856117696117466119d4565b61174e6119ea565b9033600052600760205261020c60ff604060002054166132a5565b51604051918291602083526020830190611a00565b3461021d57602036600319011261021d576117976119d4565b3360005260076020526117b160ff604060002054166132a5565b60018060a01b031660005260036020526102856102716007604060002001611d15565b3461021d57602036600319011261021d576117ed6119d4565b33600052600760205261180760ff604060002054166132a5565b60018060a01b031660005260036020526102856102716009604060002001611d15565b602036600319011261021d576004356118423361318f565b1561185057610358906131ed565b60405161185c81611bb0565b338152816020820152426040820152600160608201523360005260076020526040600020600160ff19825416179055600254600160401b8110156107b3578060016118aa9201600255611a40565b919091611924576118be816118d1936130fd565b33600052600660205260406000206130fd565b6040519081527f4b90d6788928d63c1821907a6a8b95f40d26562d8fe41b105f7489db9966dfcb60203392a26000805481908190819034906001600160a01b03165af161191c613150565b501561021d57005b634e487b7160e01b600052600060045260246000fd5b3461021d57602036600319011261021d576001600160a01b0361195b6119d4565b166000526005602052602060ff604060002054166040519015158152f35b3461021d57602036600319011261021d576119926119d4565b3360005260076020526119ac60ff604060002054166132a5565b60018060a01b03166000526003602052602060ff600460406000200154166040519015158152f35b600435906001600160a01b038216820361021d57565b602435906001600160a01b038216820361021d57565b919082519283825260005b848110611a2c575050826000602080949584010152601f8019910116010190565b602081830181015184830182015201611a0b565b60025481101561079d57600260005260021b7f405787fa12a823e0f2b7631cc41b3ba8828b3321ca811111fa75cd3aa3bb5ace0190600090565b908082519081815260208091019281808460051b8301019501936000915b848310611aa85750505050505090565b9091929394958480600192601f19858203018652895190611b7b611b67611b54611b41611b2e611b1b611af7611ae78951610180808b528a0190611a00565b8a8a01518982038c8b0152611a00565b60408c8060a01b03818b015116908901526060808a015190898303908a0152611a00565b6080808901519088830390890152611a00565b60a0808801519087830390880152611a00565b60c0808701519086830390870152611a00565b60e0808601519085830390860152611a00565b610100808501519084830390850152611a00565b916101208082015115159083015261014080820151151590830152610160809101519101529801930193019194939290611a98565b608081019081106001600160401b038211176107b357604052565b61022081019081106001600160401b038211176107b357604052565b61018081019081106001600160401b038211176107b357604052565b90601f801991011681019081106001600160401b038211176107b357604052565b6001600160401b0381116107b357601f01601f191660200190565b81601f8201121561021d57803590611c5682611c24565b92611c646040519485611c03565b8284526020838301011161021d57816000926020809301838601378301015290565b6001600160401b0381116107b35760051b60200190565b15611ca457565b60405162461bcd60e51b815260206004820152600f60248201526e2737ba1020baba3437b934bd32b21760891b6044820152606490fd5b90600182811c92168015611d0b575b6020831014611cf557565b634e487b7160e01b600052602260045260246000fd5b91607f1691611cea565b9060405191826000825492611d2984611cdb565b908184526001948581169081600014611d985750600114611d55575b5050611d5392500383611c03565b565b9093915060005260209081600020936000915b818310611d80575050611d5393508201013880611d45565b85548884018501529485019487945091830191611d68565b915050611d5394506020925060ff191682840152151560051b8201013880611d45565b90604051611dc881611be7565b610160600a8294611dd881611d15565b8452611de660018201611d15565b602085015260028101546001600160a01b03166040850152611e0a60038201611d15565b6060850152611e1b60048201611d15565b6080850152611e2c60058201611d15565b60a0850152611e3d60068201611d15565b60c0850152611e4e60078201611d15565b60e0850152611e5f60088201611d15565b61010085015260ff6009820154818116151561012087015260081c1615156101408501520154910152565b908154611e9681611c86565b92611ea46040519485611c03565b818452600090815260208082208186015b848410611ec3575050505050565b600b83600192611ed285611dbb565b815201920193019290611eb5565b9190820180921161034257565b818110611ef8575050565b60008155600101611eed565b90601f8111611f11575050565b611d5391600052601f6020600020910160051c810190611eed565b9190601f8111611f3b57505050565b611d53926000526020600020906020601f840160051c83019310611f67575b601f0160051c0190611eed565b9091508190611f5a565b611f7b8154611cdb565b9081611f85575050565b81601f60009311600114611f97575055565b908083918252611fb6601f60208420940160051c840160018501611eed565b5555565b90805180516001600160401b03908181116107b357611fe381611fdd8754611cdb565b87611f2c565b806020601f948583116001146125de576000926125d3575b50508160011b916000199060031b1c19161784555b600180850160208501518051908482116107b357819061203a826120348654611cdb565b86611f2c565b60209087831160011461257057600092612565575b5050600019600383901b1c191690831b1790555b6002850160018060a01b036040860151166bffffffffffffffffffffffff60a01b82541617905560039081860160608601518051908582116107b35781906120af826120348654611cdb565b602090888311600114612503576000926124f8575b505060001982861b1c191690831b1790555b600493848701608087015180519086821161239c5781906120fb826120348654611cdb565b6020908583116001146124965760009261248b575b505060001982871b1c191690841b1790555b6005870160a087015180519086821161239c578190612145826120348654611cdb565b6020908583116001146124295760009261241e575b505060001982871b1c191690841b1790555b6006870160c087015180519086821161239c57819061218f826120348654611cdb565b6020908583116001146123bc576000926123b1575b505060001982871b1c191690841b1790555b6007870160e087015180519086821161239c5781906121d9826120348654611cdb565b60209085831160011461233a5760009261232f575b505060001982871b1c191690841b1790555b600887019461010087015190815195861161231a575061222a856122248854611cdb565b88611f2c565b60209185116001146122a95792848093600a989693610160989660009561229e575b50501b92600019911b1c19161790555b6009840161227d6101208301511515829060ff801983541691151516179055565b610140820151815461ff00191690151560081b61ff00161790550151910155565b01519350388061224c565b91939290601f1984169286600052816000209360005b8181106123045750918593916101609896600a9a989694106122ea575b50505050811b01905561225c565b01519060f884600019921b161c19169055388080806122dc565b82840151865594870194602093840193016122bf565b604190634e487b7160e01b6000525260246000fd5b0151905038806121ee565b90869350601f1983169185600052816000209260005b8181106123845750841161236c575b505050811b019055612200565b015160001983891b60f8161c1916905538808061235f565b82840151855589969094019360209384019301612350565b604188634e487b7160e01b6000525260246000fd5b0151905038806121a4565b90869350601f1983169185600052816000209260005b818110612406575084116123ee575b505050811b0190556121b6565b015160001983891b60f8161c191690553880806123e1565b828401518555899690940193602093840193016123d2565b01519050388061215a565b90869350601f1983169185600052816000209260005b8181106124735750841161245b575b505050811b01905561216c565b015160001983891b60f8161c1916905538808061244e565b8284015185558996909401936020938401930161243f565b015190503880612110565b90869350601f1983169185600052816000209260005b8181106124e0575084116124c8575b505050811b019055612122565b015160001983891b60f8161c191690553880806124bb565b828401518555899690940193602093840193016124ac565b0151905038806120c4565b90859350601f1983169185600052816000209260005b81811061254d57508411612535575b505050811b0190556120d6565b015160001983881b60f8161c19169055388080612528565b82840151855588969094019360209384019301612519565b01519050388061204f565b90859350601f1983169185600052816000209260005b8181106125bb575084116125a2575b505050811b019055612063565b015160001960f88460031b161c19169055388080612595565b82840151855588969094019360209384019301612586565b015190503880611ffb565b60008881528281209350601f198516905b81811061262b5750908460019594939210612612575b505050811b018455612010565b015160001960f88460031b161c19169055388080612605565b929360206001819287860151815501950193016125ef565b815181546001600160a01b0319166001600160a01b0391909116178155602082015160018201556040820151805192939260028301916001600160401b0382116107b3578190612697826120348654611cdb565b602090601f83116001146130975760009261308c575b50508160011b916000199060031b1c19161790555b6003810160608401518051906001600160401b0382116107b35781906126ec826120348654611cdb565b602090601f83116001146130265760009261301b575b50508160011b916000199060031b1c19161790555b61273660808401511515600483019060ff801983541691151516179055565b6005810160a08401518051906001600160401b0382116107b3578190612760826120348654611cdb565b602090601f8311600114612fb557600092612faa575b50508160011b916000199060031b1c19161790555b6006810160c08401518051906001600160401b0382116107b35781906127b5826120348654611cdb565b602090601f8311600114612f4457600092612f39575b50508160011b916000199060031b1c19161790555b60e08301519283516001600160401b0381116107b357612810816128076007860154611cdb565b60078601611f2c565b6020601f8211600114612eca578192939495600092612ebf575b50508160011b916000199060031b1c19161760078301555b6101008101519283516001600160401b0381116107b3576128738161286a6008870154611cdb565b60088701611f2c565b6020601f8211600114612e50578192939495600092612e45575b50508160011b916000199060031b1c19161760088401555b6101208201519283516001600160401b0381116107b3576128d6816128cd6009850154611cdb565b60098501611f2c565b6020601f8211600114612dd6578192939495600092612dcb575b50508160011b916000199060031b1c19161760098201555b6101408301519283516001600160401b0381116107b35761293981612930600a860154611cdb565b600a8601611f2c565b6020601f8211600114612d5c578192939495600092612d51575b50508160011b916000199060031b1c191617600a8301555b6101608101519283516001600160401b0381116107b35761299c81612993600b870154611cdb565b600b8701611f2c565b6020601f8211600114612ce2578192939495600092612cd7575b50508160011b916000199060031b1c191617600b8401555b6101808201519283516001600160401b0381116107b3576129ff816129f6600c850154611cdb565b600c8501611f2c565b6020601f8211600114612c68578192939495600092612c5d575b50508160011b916000199060031b1c191617600c8201555b6101a0830151600d8201556101c08301519283516001600160401b0381116107b357612a6d81612a64600e860154611cdb565b600e8601611f2c565b6020601f8211600114612be9578190610200949596600092612bde575b50508160011b916000199060031b1c191617600e8401555b612ac26101e08201511515600f85019060ff801983541691151516179055565b015190815191600160401b83116107b3576010820154836010840155808410612b26575b50602060109101910160005260206000206000915b838310612b085750505050565b600b602082612b1a6001945186611fba565b01920192019190612afb565b600b8181020481036103425783600b02600b81048503610342576010840160005260206000209081015b82600b0282018110612b63575050612ae6565b80612b6f600b92611f71565b612b7b60018201611f71565b60006002820155612b8e60038201611f71565b612b9a60048201611f71565b612ba660058201611f71565b612bb260068201611f71565b612bbe60078201611f71565b612bca60088201611f71565b600060098201556000600a82015501612b50565b015190503880612a8a565b600e840160005260206000209560005b601f1984168110612c455750958291610200959697600194601f19811610612c2c575b505050811b01600e840155612aa2565b015160001960f88460031b161c19169055388080612c1c565b82820151885560019097019660209283019201612bf9565b015190503880612a19565b600c830160005260206000209060005b601f1984168110612cbf575060019394959683601f19811610612ca6575b505050811b01600c820155612a31565b015160001960f88460031b161c19169055388080612c96565b9091602060018192858b015181550193019101612c78565b0151905038806129b6565b600b850160005260206000209060005b601f1984168110612d39575060019394959683601f19811610612d20575b505050811b01600b8401556129ce565b015160001960f88460031b161c19169055388080612d10565b9091602060018192858b015181550193019101612cf2565b015190503880612953565b600a840160005260206000209060005b601f1984168110612db3575060019394959683601f19811610612d9a575b505050811b01600a83015561296b565b015160001960f88460031b161c19169055388080612d8a565b9091602060018192858b015181550193019101612d6c565b0151905038806128f0565b6009830160005260206000209060005b601f1984168110612e2d575060019394959683601f19811610612e14575b505050811b016009820155612908565b015160001960f88460031b161c19169055388080612e04565b9091602060018192858b015181550193019101612de6565b01519050388061288d565b6008850160005260206000209060005b601f1984168110612ea7575060019394959683601f19811610612e8e575b505050811b0160088401556128a5565b015160001960f88460031b161c19169055388080612e7e565b9091602060018192858b015181550193019101612e60565b01519050388061282a565b6007840160005260206000209060005b601f1984168110612f21575060019394959683601f19811610612f08575b505050811b016007830155612842565b015160001960f88460031b161c19169055388080612ef8565b9091602060018192858b015181550193019101612eda565b0151905038806127cb565b6000858152602081209350601f198516905b818110612f925750908460019594939210612f79575b505050811b0190556127e0565b015160001960f88460031b161c19169055388080612f6c565b92936020600181928786015181550195019301612f56565b015190503880612776565b6000858152602081209350601f198516905b8181106130035750908460019594939210612fea575b505050811b01905561278b565b015160001960f88460031b161c19169055388080612fdd565b92936020600181928786015181550195019301612fc7565b015190503880612702565b6000858152602081209350601f198516905b818110613074575090846001959493921061305b575b505050811b019055612717565b015160001960f88460031b161c1916905538808061304e565b92936020600181928786015181550195019301613038565b0151905038806126ad565b6000858152602081209350601f198516905b8181106130e557509084600195949392106130cc575b505050811b0190556126c2565b015160001960f88460031b161c191690553880806130bf565b929360206001819287860151815501950193016130a9565b60036060611d539360018060a01b038151166bffffffffffffffffffffffff60a01b85541617845560208101516001850155604081015160028501550151151591019060ff801983541691151516179055565b3d1561317b573d9061316182611c24565b9161316f6040519384611c03565b82523d6000602084013e565b606090565b60001981146103425760010190565b60018060a01b03809116806000526006602052604060002091606060ff6003604051936131bb85611bb0565b8654168085526001870154602086015260028701546040860152950154161515910152036131e857600190565b600090565b6000903382526006602052604082206003810160ff8154161560001461328e57600160ff198254161790558160018201555b600242910155338252600760205260408220600160ff198254161790556040519081527f4b90d6788928d63c1821907a6a8b95f40d26562d8fe41b105f7489db9966dfcb60203392a28080808060018060a01b0381541634905af1613282613150565b501561328b5750565b80fd5b506001810161329e838254611ee0565b905561321f565b156132ac57565b60405162461bcd60e51b815260206004820152603360248201527f596f7520617265206e6f7420617574686f72697a656420746f20706572666f7260448201527236903a3434b9903a3930b739b0b1ba34b7b71760691b6064820152608490fd5b80541561079d57600052602060002090600090565b91906040519061333182611be7565b60609182815282602082015260009283604083015280808301528060808301528060a08301528060c08301528060e08301526101008201528261012082015282610140820152826101608201529360018060a01b038092168352600360205260106040842001918254935b8481106133aa575050505050565b8160026133b68661330d565b50015416828416146133d0576133cb90613180565b61339c565b5050506133e99293506133e3915061330d565b50611dbb565b90565b9060001982019182136001166103425756fea2646970667358221220ce40c2369bbeef1500a2a954139a95244244bd81e209b58f8a677bb86de81a4b64736f6c63430008130033",
  "linkReferences": {},
  "deployedLinkReferences": {}
}