{
  "_format": "hh-sol-artifact-1",
  "contractName": "IDBot",
  "sourceName": "contracts/IDBot.sol",
  "abi": [
    {
      "inputs": [],
      "stateMutability": "nonpayable",
      "type": "constructor"
    },
    {
      "anonymous": false,
      "inputs": [
        {
          "indexed": true,
          "internalType": "address",
          "name": "contract_address",
          "type": "address"
        },
        {
          "indexed": false,
          "internalType": "string",
          "name": "name",
          "type": "string"
        }
      ],
      "name": "AddProject",
      "type": "event"
    },
    {
      "anonymous": false,
      "inputs": [
        {
          "indexed": true,
          "internalType": "address",
          "name": "user",
          "type": "address"
        },
        {
          "indexed": false,
          "internalType": "uint256",
          "name": "profileId",
          "type": "uint256"
        }
      ],
      "name": "CreateProfile",
      "type": "event"
    },
    {
      "anonymous": false,
      "inputs": [
        {
          "indexed": true,
          "internalType": "address",
          "name": "user",
          "type": "address"
        },
        {
          "indexed": false,
          "internalType": "uint256",
          "name": "duration",
          "type": "uint256"
        }
      ],
      "name": "Subscribed",
      "type": "event"
    },
    {
      "anonymous": false,
      "inputs": [
        {
          "indexed": true,
          "internalType": "address",
          "name": "user",
          "type": "address"
        }
      ],
      "name": "Unverified",
      "type": "event"
    },
    {
      "anonymous": false,
      "inputs": [
        {
          "indexed": true,
          "internalType": "address",
          "name": "user",
          "type": "address"
        }
      ],
      "name": "Verified",
      "type": "event"
    },
    {
      "inputs": [
        {
          "internalType": "uint256",
          "name": "",
          "type": "uint256"
        }
      ],
      "name": "_subscribers",
      "outputs": [
        {
          "internalType": "address",
          "name": "user",
          "type": "address"
        },
        {
          "internalType": "uint256",
          "name": "duration",
          "type": "uint256"
        },
        {
          "internalType": "uint256",
          "name": "startedAt",
          "type": "uint256"
        },
        {
          "internalType": "bool",
          "name": "isActive",
          "type": "bool"
        }
      ],
      "stateMutability": "view",
      "type": "function"
    },
    {
      "inputs": [
        {
          "internalType": "address",
          "name": "",
          "type": "address"
        }
      ],
      "name": "access_list",
      "outputs": [
        {
          "internalType": "bool",
          "name": "",
          "type": "bool"
        }
      ],
      "stateMutability": "view",
      "type": "function"
    },
    {
      "inputs": [
        {
          "internalType": "string",
          "name": "_name",
          "type": "string"
        },
        {
          "internalType": "string",
          "name": "_description",
          "type": "string"
        },
        {
          "internalType": "address",
          "name": "_contract_address",
          "type": "address"
        },
        {
          "internalType": "string",
          "name": "_chain",
          "type": "string"
        },
        {
          "internalType": "string",
          "name": "_website_link",
          "type": "string"
        },
        {
          "internalType": "string",
          "name": "_telegram_link",
          "type": "string"
        },
        {
          "internalType": "string",
          "name": "_twitter_link",
          "type": "string"
        },
        {
          "internalType": "string",
          "name": "_discord_link",
          "type": "string"
        },
        {
          "internalType": "string",
          "name": "_linktree",
          "type": "string"
        }
      ],
      "name": "addProject",
      "outputs": [],
      "stateMutability": "nonpayable",
      "type": "function"
    },
    {
      "inputs": [
        {
          "internalType": "address",
          "name": "user",
          "type": "address"
        }
      ],
      "name": "addVerification",
      "outputs": [],
      "stateMutability": "nonpayable",
      "type": "function"
    },
    {
      "inputs": [
        {
          "internalType": "address",
          "name": "ca",
          "type": "address"
        },
        {
          "internalType": "address",
          "name": "user",
          "type": "address"
        }
      ],
      "name": "checkIfProjectIsHoneyPot",
      "outputs": [
        {
          "internalType": "bool",
          "name": "",
          "type": "bool"
        }
      ],
      "stateMutability": "view",
      "type": "function"
    },
    {
      "inputs": [
        {
          "internalType": "address",
          "name": "ca",
          "type": "address"
        },
        {
          "internalType": "address",
          "name": "user",
          "type": "address"
        }
      ],
      "name": "checkIfProjectIsRugged",
      "outputs": [
        {
          "internalType": "bool",
          "name": "",
          "type": "bool"
        }
      ],
      "stateMutability": "view",
      "type": "function"
    },
    {
      "inputs": [
        {
          "internalType": "string",
          "name": "_name",
          "type": "string"
        },
        {
          "internalType": "string",
          "name": "_description",
          "type": "string"
        },
        {
          "internalType": "bool",
          "name": "_dev",
          "type": "bool"
        },
        {
          "internalType": "string",
          "name": "_email",
          "type": "string"
        },
        {
          "internalType": "string",
          "name": "_age",
          "type": "string"
        },
        {
          "internalType": "string",
          "name": "phone",
          "type": "string"
        },
        {
          "internalType": "string",
          "name": "_country",
          "type": "string"
        },
        {
          "internalType": "string",
          "name": "_state",
          "type": "string"
        },
        {
          "internalType": "string",
          "name": "_address",
          "type": "string"
        },
        {
          "internalType": "string[]",
          "name": "urls",
          "type": "string[]"
        },
        {
          "internalType": "uint256",
          "name": "number",
          "type": "uint256"
        }
      ],
      "name": "createProfile",
      "outputs": [],
      "stateMutability": "nonpayable",
      "type": "function"
    },
    {
      "inputs": [
        {
          "internalType": "address",
          "name": "user",
          "type": "address"
        }
      ],
      "name": "getAge",
      "outputs": [
        {
          "internalType": "string",
          "name": "",
          "type": "string"
        }
      ],
      "stateMutability": "view",
      "type": "function"
    },
    {
      "inputs": [
        {
          "internalType": "address",
          "name": "user",
          "type": "address"
        }
      ],
      "name": "getCountry",
      "outputs": [
        {
          "internalType": "string",
          "name": "",
          "type": "string"
        }
      ],
      "stateMutability": "view",
      "type": "function"
    },
    {
      "inputs": [
        {
          "internalType": "address",
          "name": "user",
          "type": "address"
        }
      ],
      "name": "getDescription",
      "outputs": [
        {
          "internalType": "string",
          "name": "",
          "type": "string"
        }
      ],
      "stateMutability": "view",
      "type": "function"
    },
    {
      "inputs": [
        {
          "internalType": "address",
          "name": "user",
          "type": "address"
        }
      ],
      "name": "getEmail",
      "outputs": [
        {
          "internalType": "string",
          "name": "",
          "type": "string"
        }
      ],
      "stateMutability": "view",
      "type": "function"
    },
    {
      "inputs": [
        {
          "internalType": "address",
          "name": "user",
          "type": "address"
        }
      ],
      "name": "getIDBotNumber",
      "outputs": [
        {
          "internalType": "uint256",
          "name": "",
          "type": "uint256"
        }
      ],
      "stateMutability": "view",
      "type": "function"
    },
    {
      "inputs": [
        {
          "internalType": "address",
          "name": "user",
          "type": "address"
        }
      ],
      "name": "getIdentityUrl",
      "outputs": [
        {
          "internalType": "string",
          "name": "",
          "type": "string"
        }
      ],
      "stateMutability": "view",
      "type": "function"
    },
    {
      "inputs": [
        {
          "internalType": "address",
          "name": "user",
          "type": "address"
        }
      ],
      "name": "getName",
      "outputs": [
        {
          "internalType": "string",
          "name": "",
          "type": "string"
        }
      ],
      "stateMutability": "view",
      "type": "function"
    },
    {
      "inputs": [
        {
          "internalType": "address",
          "name": "user",
          "type": "address"
        }
      ],
      "name": "getPhoneNumber",
      "outputs": [
        {
          "internalType": "string",
          "name": "",
          "type": "string"
        }
      ],
      "stateMutability": "view",
      "type": "function"
    },
    {
      "inputs": [
        {
          "internalType": "address",
          "name": "user",
          "type": "address"
        }
      ],
      "name": "getProfilePicUrl",
      "outputs": [
        {
          "internalType": "string",
          "name": "",
          "type": "string"
        }
      ],
      "stateMutability": "view",
      "type": "function"
    },
    {
      "inputs": [],
      "name": "getProfiles",
      "outputs": [
        {
          "components": [
            {
              "internalType": "address",
              "name": "user",
              "type": "address"
            },
            {
              "internalType": "uint256",
              "name": "idbot_number",
              "type": "uint256"
            },
            {
              "internalType": "string",
              "name": "name",
              "type": "string"
            },
            {
              "internalType": "string",
              "name": "description",
              "type": "string"
            },
            {
              "internalType": "bool",
              "name": "dev",
              "type": "bool"
            },
            {
              "internalType": "string",
              "name": "email",
              "type": "string"
            },
            {
              "internalType": "string",
              "name": "age",
              "type": "string"
            },
            {
              "internalType": "string",
              "name": "phone_number",
              "type": "string"
            },
            {
              "internalType": "string",
              "name": "country",
              "type": "string"
            },
            {
              "internalType": "string",
              "name": "state",
              "type": "string"
            },
            {
              "internalType": "string",
              "name": "residential_address",
              "type": "string"
            },
            {
              "internalType": "string",
              "name": "profile_pic_url",
              "type": "string"
            },
            {
              "internalType": "string",
              "name": "identity_url",
              "type": "string"
            },
            {
              "internalType": "int256",
              "name": "reputation_score",
              "type": "int256"
            },
            {
              "internalType": "string",
              "name": "verification_status",
              "type": "string"
            },
            {
              "internalType": "bool",
              "name": "verified",
              "type": "bool"
            },
            {
              "components": [
                {
                  "internalType": "string",
                  "name": "name",
                  "type": "string"
                },
                {
                  "internalType": "string",
                  "name": "description",
                  "type": "string"
                },
                {
                  "internalType": "address",
                  "name": "contract_address",
                  "type": "address"
                },
                {
                  "internalType": "string",
                  "name": "chain",
                  "type": "string"
                },
                {
                  "internalType": "string",
                  "name": "website_link",
                  "type": "string"
                },
                {
                  "internalType": "string",
                  "name": "telegram_link",
                  "type": "string"
                },
                {
                  "internalType": "string",
                  "name": "twitter_link",
                  "type": "string"
                },
                {
                  "internalType": "string",
                  "name": "discord_link",
                  "type": "string"
                },
                {
                  "internalType": "string",
                  "name": "linktree",
                  "type": "string"
                },
                {
                  "internalType": "bool",
                  "name": "isHoneyPot",
                  "type": "bool"
                },
                {
                  "internalType": "bool",
                  "name": "isRugged",
                  "type": "bool"
                },
                {
                  "internalType": "int256",
                  "name": "reputation_score",
                  "type": "int256"
                }
              ],
              "internalType": "struct IDBot.Project[]",
              "name": "projects",
              "type": "tuple[]"
            }
          ],
          "internalType": "struct IDBot.Profile[]",
          "name": "",
          "type": "tuple[]"
        }
      ],
      "stateMutability": "view",
      "type": "function"
    },
    {
      "inputs": [
        {
          "internalType": "address",
          "name": "ca",
          "type": "address"
        },
        {
          "internalType": "address",
          "name": "user",
          "type": "address"
        }
      ],
      "name": "getProjectContractAddress",
      "outputs": [
        {
          "internalType": "address",
          "name": "",
          "type": "address"
        }
      ],
      "stateMutability": "view",
      "type": "function"
    },
    {
      "inputs": [
        {
          "internalType": "address",
          "name": "ca",
          "type": "address"
        },
        {
          "internalType": "address",
          "name": "user",
          "type": "address"
        }
      ],
      "name": "getProjectDescription",
      "outputs": [
        {
          "internalType": "string",
          "name": "",
          "type": "string"
        }
      ],
      "stateMutability": "view",
      "type": "function"
    },
    {
      "inputs": [
        {
          "internalType": "address",
          "name": "ca",
          "type": "address"
        },
        {
          "internalType": "address",
          "name": "user",
          "type": "address"
        }
      ],
      "name": "getProjectLinks",
      "outputs": [
        {
          "internalType": "string[5]",
          "name": "",
          "type": "string[5]"
        }
      ],
      "stateMutability": "view",
      "type": "function"
    },
    {
      "inputs": [
        {
          "internalType": "address",
          "name": "ca",
          "type": "address"
        },
        {
          "internalType": "address",
          "name": "user",
          "type": "address"
        }
      ],
      "name": "getProjectName",
      "outputs": [
        {
          "internalType": "string",
          "name": "",
          "type": "string"
        }
      ],
      "stateMutability": "view",
      "type": "function"
    },
    {
      "inputs": [
        {
          "internalType": "address",
          "name": "ca",
          "type": "address"
        },
        {
          "internalType": "address",
          "name": "user",
          "type": "address"
        }
      ],
      "name": "getProjectReputationScore",
      "outputs": [
        {
          "internalType": "int256",
          "name": "",
          "type": "int256"
        }
      ],
      "stateMutability": "view",
      "type": "function"
    },
    {
      "inputs": [
        {
          "internalType": "address",
          "name": "user",
          "type": "address"
        }
      ],
      "name": "getProjects",
      "outputs": [
        {
          "components": [
            {
              "internalType": "string",
              "name": "name",
              "type": "string"
            },
            {
              "internalType": "string",
              "name": "description",
              "type": "string"
            },
            {
              "internalType": "address",
              "name": "contract_address",
              "type": "address"
            },
            {
              "internalType": "string",
              "name": "chain",
              "type": "string"
            },
            {
              "internalType": "string",
              "name": "website_link",
              "type": "string"
            },
            {
              "internalType": "string",
              "name": "telegram_link",
              "type": "string"
            },
            {
              "internalType": "string",
              "name": "twitter_link",
              "type": "string"
            },
            {
              "internalType": "string",
              "name": "discord_link",
              "type": "string"
            },
            {
              "internalType": "string",
              "name": "linktree",
              "type": "string"
            },
            {
              "internalType": "bool",
              "name": "isHoneyPot",
              "type": "bool"
            },
            {
              "internalType": "bool",
              "name": "isRugged",
              "type": "bool"
            },
            {
              "internalType": "int256",
              "name": "reputation_score",
              "type": "int256"
            }
          ],
          "internalType": "struct IDBot.Project[]",
          "name": "",
          "type": "tuple[]"
        }
      ],
      "stateMutability": "view",
      "type": "function"
    },
    {
      "inputs": [
        {
          "internalType": "address",
          "name": "user",
          "type": "address"
        }
      ],
      "name": "getReputationScore",
      "outputs": [
        {
          "internalType": "int256",
          "name": "",
          "type": "int256"
        }
      ],
      "stateMutability": "view",
      "type": "function"
    },
    {
      "inputs": [
        {
          "internalType": "address",
          "name": "user",
          "type": "address"
        }
      ],
      "name": "getResidentialAddress",
      "outputs": [
        {
          "internalType": "string",
          "name": "",
          "type": "string"
        }
      ],
      "stateMutability": "view",
      "type": "function"
    },
    {
      "inputs": [
        {
          "internalType": "address",
          "name": "user",
          "type": "address"
        }
      ],
      "name": "getState",
      "outputs": [
        {
          "internalType": "string",
          "name": "",
          "type": "string"
        }
      ],
      "stateMutability": "view",
      "type": "function"
    },
    {
      "inputs": [
        {
          "internalType": "uint256",
          "name": "idbot_number",
          "type": "uint256"
        }
      ],
      "name": "getUser",
      "outputs": [
        {
          "internalType": "address",
          "name": "",
          "type": "address"
        }
      ],
      "stateMutability": "view",
      "type": "function"
    },
    {
      "inputs": [
        {
          "internalType": "address",
          "name": "user",
          "type": "address"
        }
      ],
      "name": "getVerificationStatus",
      "outputs": [
        {
          "internalType": "string",
          "name": "",
          "type": "string"
        }
      ],
      "stateMutability": "view",
      "type": "function"
    },
    {
      "inputs": [
        {
          "internalType": "address",
          "name": "user",
          "type": "address"
        }
      ],
      "name": "isDev",
      "outputs": [
        {
          "internalType": "bool",
          "name": "",
          "type": "bool"
        }
      ],
      "stateMutability": "view",
      "type": "function"
    },
    {
      "inputs": [
        {
          "internalType": "address",
          "name": "",
          "type": "address"
        }
      ],
      "name": "isProfiled",
      "outputs": [
        {
          "internalType": "bool",
          "name": "",
          "type": "bool"
        }
      ],
      "stateMutability": "view",
      "type": "function"
    },
    {
      "inputs": [
        {
          "internalType": "address",
          "name": "_user",
          "type": "address"
        }
      ],
      "name": "isSubscribed",
      "outputs": [
        {
          "internalType": "bool",
          "name": "subscribed",
          "type": "bool"
        }
      ],
      "stateMutability": "view",
      "type": "function"
    },
    {
      "inputs": [],
      "name": "owner",
      "outputs": [
        {
          "internalType": "address",
          "name": "",
          "type": "address"
        }
      ],
      "stateMutability": "view",
      "type": "function"
    },
    {
      "inputs": [
        {
          "internalType": "address",
          "name": "user",
          "type": "address"
        }
      ],
      "name": "removeVerification",
      "outputs": [],
      "stateMutability": "nonpayable",
      "type": "function"
    },
    {
      "inputs": [
        {
          "internalType": "address",
          "name": "ca",
          "type": "address"
        },
        {
          "internalType": "address",
          "name": "user",
          "type": "address"
        }
      ],
      "name": "reportProjectIsHoneyPot",
      "outputs": [],
      "stateMutability": "nonpayable",
      "type": "function"
    },
    {
      "inputs": [
        {
          "internalType": "address",
          "name": "ca",
          "type": "address"
        },
        {
          "internalType": "address",
          "name": "user",
          "type": "address"
        }
      ],
      "name": "reportProjectIsRugged",
      "outputs": [],
      "stateMutability": "nonpayable",
      "type": "function"
    },
    {
      "inputs": [
        {
          "internalType": "uint256",
          "name": "_duration",
          "type": "uint256"
        }
      ],
      "name": "subscribe",
      "outputs": [],
      "stateMutability": "payable",
      "type": "function"
    },
    {
      "inputs": [
        {
          "internalType": "address",
          "name": "",
          "type": "address"
        }
      ],
      "name": "subscribers",
      "outputs": [
        {
          "internalType": "address",
          "name": "user",
          "type": "address"
        },
        {
          "internalType": "uint256",
          "name": "duration",
          "type": "uint256"
        },
        {
          "internalType": "uint256",
          "name": "startedAt",
          "type": "uint256"
        },
        {
          "internalType": "bool",
          "name": "isActive",
          "type": "bool"
        }
      ],
      "stateMutability": "view",
      "type": "function"
    },
    {
      "inputs": [],
      "name": "unsubscribe",
      "outputs": [],
      "stateMutability": "nonpayable",
      "type": "function"
    },
    {
      "inputs": [
        {
          "internalType": "uint256",
          "name": "_duration",
          "type": "uint256"
        }
      ],
      "name": "updateSubscription",
      "outputs": [],
      "stateMutability": "payable",
      "type": "function"
    }
  ],
  "bytecode": "0x6080806040523461004057600080546001600160a01b0319163390811782558152600760205260409020805460ff1916600117905561347590816100468239f35b600080fdfe6080604052600436101561001257600080fd5b60003560e01c80630c3f64bf146119a15780630e6db736146119625780630f574ba7146118525780631bab58f5146117fb578063252c158f146117a45780632d1ce2ae1461174557806338451598146116ee5780633a63b9e614611624578063482d8ac7146115c35780634fa7353c1461156c57806353dae176146114d35780635745ae28146114595780635fd4b08a146114025780636103681a146113c5578063615f927e146113a457806375a67d5c1461134d57806381a36eec1461133657806384329ec5146112df5780638da5cb5b146112b65780638e716d35146112775780639bbfa3851461120c578063a41e095d146111a1578063b0467deb1461116d578063b213703314610e15578063b255055914610be3578063b4b1d9c714610b8c578063b92ae87c14610b5f578063b9e426e814610b08578063bbae9946146109f9578063cddd9312146109ce578063d6b5d05e14610977578063d821f92d14610920578063dee138e914610843578063e17fc1b514610457578063ef45ccab14610402578063f7d139cb14610362578063fcae448414610291578063fe2e027d1461022a5763fecf696d146101c957600080fd5b346102255760403660031901126102255760206101406102196101ea6119fd565b6101f2611a13565b9060018060a01b0382166000526007855261021460ff604060002054166132ce565b61334b565b01511515604051908152f35b600080fd5b34610225576020366003190112610225576102436119fd565b6000546001600160a01b03919061025d9083163314611cc6565b16600052600360205261028d610279600c604060002001611d3e565b604051918291602083526020830190611a29565b0390f35b34610225576000366003190112610225576000546001600160a01b03906102bb9082163314611cc6565b60005b6002908154811015610360576102d381611a69565b509182015442039142831161034a576001818101546103079462015180900410159081610337575b5061030c575b506131a9565b6102be565b83600382019160ff199283815416905554166000526007602052604060002090815416905583610301565b905060ff600383015416151514856102fb565b634e487b7160e01b600052601160045260246000fd5b005b346102255760203660031901126102255761037b6119fd565b6000546001600160a01b0391906103959083163314611cc6565b16806000526003602052600f6040600020600e81016103bd6103b78254611d04565b82611f2d565b60186b139bdd0815995c9a599a595960a21b01905501805460ff191690557fbf40ed975ac04192dc3c221b21155d52ba4322b78f63a7bd22c828bf2d3f6c8c600080a2005b3461022557604036600319011261022557602061041d6119fd565b604061044c61042a611a13565b60018060a01b03938482166000526007865261021460ff8560002054166132ce565b015116604051908152f35b3461022557610160366003190112610225576004356001600160401b03811161022557610488903690600401611c68565b6024356001600160401b038111610225576104a7903690600401611c68565b90604435918215158303610225576064356001600160401b038111610225576104d4903690600401611c68565b6084356001600160401b038111610225576104f3903690600401611c68565b60a4356001600160401b03811161022557610512903690600401611c68565b60c4356001600160401b03811161022557610531903690600401611c68565b60e4356001600160401b03811161022557610550903690600401611c68565b91610104356001600160401b03811161022557610571903690600401611c68565b936001600160401b0361012435116102255736602361012435011215610225576105a16101243560040135611caf565b956105af6040519788611c2c565b6101243560040135875260208701998a366024610124356004013560051b610124350101116102255760246101243501905b6024610124356004013560051b610124350101821061081257505033600052600560205260ff604060002054166107cd5761061f4261014435611f09565b9a8851156107a15751978051600110156107a15760400151986040519a6106458c611bf4565b338c528c60208d015260408c015260608b0152151560808a015260a089015260c088015260e087015261010086015261012085015261014084015261016083015261018082015260006101a0820152604051604081018181106001600160401b038211176107b757604052600781526650656e64696e6760c81b60208201526101c082015260006101e0820152606061020082015260015490600160401b8210156107b75760018201806001558210156107a15761073081601161075a946001600052027fb10e2d527612073b26eecdfd717e6a320cf44b4afac2b0732d9fcbe2b7fa0cf60161266c565b33600052600360205261074781604060002061266c565b826000526004602052604060002061266c565b3360005260056020526040600020600160ff198254161790556040519081527fe4389ab9c67cce68e65561d8fc2fabf4d88b4c66a0874e1b7980682de416818960203392a2005b634e487b7160e01b600052603260045260246000fd5b634e487b7160e01b600052604160045260246000fd5b60405162461bcd60e51b815260206004820152601c60248201527f596f7520616c7265616479206861766520616e206163636f756e742e000000006044820152606490fd5b6001600160401b0382351161022557602080916108383660248635610124350101611c68565b8152019101906105e1565b346102255760403660031901126102255761085c6119fd565b610864611a13565b9033600052600760205260ff61088081604060002054166132ce565b6001600160a01b039283166000908152600360205260408120928416929060108201905b8154811015610360576108cc90858760026108be86613336565b50015416146108d1576131a9565b6108a4565b600a6108dc84613336565b5060098101805488811615610910575b5050016108f9815461342d565b9055600d8401610909815461342d565b90556131a9565b60ff1916600117905589806108ec565b34610225576020366003190112610225576001600160a01b036109416119fd565b1680600052600760205261095c60ff604060002054166132ce565b600052600360205261028d6102796008604060002001611d3e565b34610225576020366003190112610225576001600160a01b036109986119fd565b168060005260076020526109b360ff604060002054166132ce565b600052600360205261028d610279600a604060002001611d3e565b346102255760403660031901126102255760206101606109ef6101ea6119fd565b0151604051908152f35b3461022557604036600319011261022557610a126119fd565b610a1a611a13565b60405160a0916001600160401b0391838101838111828210176107b75760405260005b848110610afa575050610a6e9060018060a01b0381166000526020946007865261021460ff604060002054166132ce565b60405192808401928311848410176107b75761010092604052608082015184528101518484015260c0810151604084015260e08101516060840152015160808201526040519082820183835260c0830191906000945b60058610610ad25784840385f35b9091928180610aed600193601f198982030187528751611a29565b9501930195019490610ac4565b606082820152602001610a3d565b34610225576020366003190112610225576001600160a01b03610b296119fd565b16806000526007602052610b4460ff604060002054166132ce565b600052600360205261028d610279600b604060002001611d3e565b34610225576020366003190112610225576020610b82610b7d6119fd565b6131b8565b6040519015158152f35b34610225576020366003190112610225576001600160a01b03610bad6119fd565b16806000526007602052610bc860ff604060002054166132ce565b600052600360205261028d6102796003604060002001611d3e565b346102255761012080600319360112610225576001600160401b0360043581811161022557610c16903690600401611c68565b60243582811161022557610c2e903690600401611c68565b6044356001600160a01b03811694908590036102255760643584811161022557610c5c903690600401611c68565b60843585811161022557610c74903690600401611c68565b9160a43586811161022557610c8d903690600401611c68565b9560c43581811161022557610ca6903690600401611c68565b9060e43581811161022557610cbf903690600401611c68565b906101043590811161022557610cd9903690600401611c68565b913360005260209860038a5260406000209660ff600f8901541615610de057906000959493929160108901976040519a610d128c611c10565b8c8c528d8c01528d60408c015260608b015260808a015260a089015260c088015260e087015261010086015284015260006101408401526064610160840152805492600160401b8410156107b757600184018083558410156107a157600d93610d8692600052600b87600020910201611fe3565b019182546064810190600060648312911290801582169115161761034a577f3f59d974cb323c784e37c2bf72b6b6f11983b4d23545adf73f81b553873a539c9355610ddb604051928284938452830190611a29565b0390a2005b60405162461bcd60e51b8152600481018c9052600d60248201526c2737ba103b32b934b334b2b21760991b6044820152606490fd5b34610225576000366003190112610225576000546001600160a01b0390610e3f9082163314611cc6565b600190815491610e4e83611caf565b91610e5c6040519384611c2c565b8383526020928381019485846000527fb10e2d527612073b26eecdfd717e6a320cf44b4afac2b0732d9fcbe2b7fa0cf66000915b8383106110375750505050604051938085019181865251809252604085019260408360051b87010196936000915b848310610ecb5787890388f35b9091929394958480611025839b603f198c82030187528a518681511682528381015184830152611004610fe5610fd1610fbd610fa9610f95610f81610f6f610f5c610f3d610f2960408c01518d610220908160408201520190611a29565b8b8d60608092015191818403910152611a29565b6080808c01511515908d015260a08c818d015191818403910152611a29565b60c0808b0151908c8303908d0152611a29565b60e08901518a820360e08c0152611a29565b61010080890151908a8303908b0152611a29565b6101208088015190898303908a0152611a29565b610140808701519088830390890152611a29565b610160808601519087830390880152611a29565b610180808501519086830390870152611a29565b6101a080840151908501526101c0808401519085830390860152611a29565b916101e0808301511515908201526102008092015191818403910152611aa3565b9a980196959491909101920190610ebe565b95601188829a9860409a97989a5161104e81611bf4565b8b8654168152848601548382015261106860028701611d3e565b604082015261107960038701611d3e565b606082015260ff806004880154161515608083015261109a60058801611d3e565b60a08301526110ab60068801611d3e565b60c08301526110bc60078801611d3e565b60e08301526110cd60088801611d3e565b6101008301526110df60098801611d3e565b6101208301526110f1600a8801611d3e565b610140830152611103600b8801611d3e565b610160830152611115600c8801611d3e565b610180830152600d8701546101a0830152611132600e8801611d3e565b6101c0830152600f8701541615156101e082015261115260108701611eb3565b61020082015281520192019201919097959796949396610e90565b34610225576020366003190112610225576004356000526004602052602060018060a01b0360406000205416604051908152f35b34610225576020366003190112610225576001600160a01b036111c26119fd565b168060005260076020526111dd60ff604060002054166132ce565b600052600360205261028d6111f86010604060002001611eb3565b604051918291602083526020830190611aa3565b34610225576020366003190112610225576004356002548110156102255761123390611a69565b50805460018201546002830154600390930154604080516001600160a01b03909416845260208401929092529082019290925260ff90911615156060820152608090f35b34610225576020366003190112610225576001600160a01b036112986119fd565b166000526007602052602060ff604060002054166040519015158152f35b34610225576000366003190112610225576000546040516001600160a01b039091168152602090f35b34610225576020366003190112610225576001600160a01b036113006119fd565b1680600052600760205261131b60ff604060002054166132ce565b60005260036020526020600160406000200154604051908152f35b602036600319011261022557610360600435613216565b34610225576020366003190112610225576001600160a01b0361136e6119fd565b1680600052600760205261138960ff604060002054166132ce565b60005260036020526020600d60406000200154604051908152f35b346102255760403660031901126102255760206101206102196101ea6119fd565b34610225576020366003190112610225576001600160a01b036113e66119fd565b16600052600360205261028d610279600e604060002001611d3e565b34610225576020366003190112610225576001600160a01b036114236119fd565b1680600052600760205261143e60ff604060002054166132ce565b600052600360205261028d6102796002604060002001611d3e565b34610225576020366003190112610225576001600160a01b038061147b6119fd565b16600052600660205260406000209081541661028d60018301549260ff600360028301549201541690604051948594859260609295949195608085019660018060a01b03168552602085015260408401521515910152565b34610225576020366003190112610225576114ec6119fd565b6000546001600160a01b0391906115069083163314611cc6565b16806000526003602052600f6040600020600e81016115286103b78254611d04565b60106715995c9a599a595960c21b01905501805460ff191660011790557f6a6455914f452787eb3985452aceedc1000fb545e394eb3b370e3d08958e0a5b600080a2005b34610225576020366003190112610225576001600160a01b0361158d6119fd565b168060005260076020526115a860ff604060002054166132ce565b600052600360205261028d6102796005604060002001611d3e565b346102255760403660031901126102255761028d602061160e6115e46119fd565b6115ec611a13565b9060018060a01b0382166000526007845261021460ff604060002054166132ce565b0151604051918291602083526020830190611a29565b346102255760403660031901126102255761163d6119fd565b611645611a13565b9033600052600760205260ff61166181604060002054166132ce565b6001600160a01b039283166000908152600360205260408120928416929060108201905b8154811015610360576116ad908587600261169f86613336565b50015416146116b2576131a9565b611685565b600a6116bd84613336565b50600981018054888160081c16156116dc575050016108f9815461342d565b61ff00191661010017905589806108ec565b34610225576020366003190112610225576001600160a01b0361170f6119fd565b1680600052600760205261172a60ff604060002054166132ce565b600052600360205261028d6102796006604060002001611d3e565b346102255760403660031901126102255761028d61178f6117646119fd565b61176c611a13565b9060018060a01b038216600052600760205261021460ff604060002054166132ce565b51604051918291602083526020830190611a29565b34610225576020366003190112610225576001600160a01b036117c56119fd565b168060005260076020526117e060ff604060002054166132ce565b600052600360205261028d6102796007604060002001611d3e565b34610225576020366003190112610225576001600160a01b0361181c6119fd565b1680600052600760205261183760ff604060002054166132ce565b600052600360205261028d6102796009604060002001611d3e565b60203660031901126102255760043561186a336131b8565b156118785761036090613216565b60405161188481611bd9565b338152816020820152426040820152600160608201523360005260076020526040600020600160ff19825416179055600254600160401b8110156107b7578060016118d29201600255611a69565b91909161194c576118e6816118f993613126565b3360005260066020526040600020613126565b6040519081527f4b90d6788928d63c1821907a6a8b95f40d26562d8fe41b105f7489db9966dfcb60203392a26000805481908190819034906001600160a01b03165af1611944613179565b501561022557005b634e487b7160e01b600052600060045260246000fd5b34610225576020366003190112610225576001600160a01b036119836119fd565b166000526005602052602060ff604060002054166040519015158152f35b34610225576020366003190112610225576001600160a01b036119c26119fd565b168060005260076020526119dd60ff604060002054166132ce565b6000526003602052602060ff600460406000200154166040519015158152f35b600435906001600160a01b038216820361022557565b602435906001600160a01b038216820361022557565b919082519283825260005b848110611a55575050826000602080949584010152601f8019910116010190565b602081830181015184830182015201611a34565b6002548110156107a157600260005260021b7f405787fa12a823e0f2b7631cc41b3ba8828b3321ca811111fa75cd3aa3bb5ace0190600090565b908082519081815260208091019281808460051b8301019501936000915b848310611ad15750505050505090565b9091929394958480600192601f19858203018652895190611ba4611b90611b7d611b6a611b57611b44611b20611b108951610180808b528a0190611a29565b8a8a01518982038c8b0152611a29565b60408c8060a01b03818b015116908901526060808a015190898303908a0152611a29565b6080808901519088830390890152611a29565b60a0808801519087830390880152611a29565b60c0808701519086830390870152611a29565b60e0808601519085830390860152611a29565b610100808501519084830390850152611a29565b916101208082015115159083015261014080820151151590830152610160809101519101529801930193019194939290611ac1565b608081019081106001600160401b038211176107b757604052565b61022081019081106001600160401b038211176107b757604052565b61018081019081106001600160401b038211176107b757604052565b90601f801991011681019081106001600160401b038211176107b757604052565b6001600160401b0381116107b757601f01601f191660200190565b81601f8201121561022557803590611c7f82611c4d565b92611c8d6040519485611c2c565b8284526020838301011161022557816000926020809301838601378301015290565b6001600160401b0381116107b75760051b60200190565b15611ccd57565b60405162461bcd60e51b815260206004820152600f60248201526e2737ba1020baba3437b934bd32b21760891b6044820152606490fd5b90600182811c92168015611d34575b6020831014611d1e57565b634e487b7160e01b600052602260045260246000fd5b91607f1691611d13565b9060405191826000825492611d5284611d04565b908184526001948581169081600014611dc15750600114611d7e575b5050611d7c92500383611c2c565b565b9093915060005260209081600020936000915b818310611da9575050611d7c93508201013880611d6e565b85548884018501529485019487945091830191611d91565b915050611d7c94506020925060ff191682840152151560051b8201013880611d6e565b90604051611df181611c10565b610160600a8294611e0181611d3e565b8452611e0f60018201611d3e565b602085015260028101546001600160a01b03166040850152611e3360038201611d3e565b6060850152611e4460048201611d3e565b6080850152611e5560058201611d3e565b60a0850152611e6660068201611d3e565b60c0850152611e7760078201611d3e565b60e0850152611e8860088201611d3e565b61010085015260ff6009820154818116151561012087015260081c1615156101408501520154910152565b908154611ebf81611caf565b92611ecd6040519485611c2c565b818452600090815260208082208186015b848410611eec575050505050565b600b83600192611efb85611de4565b815201920193019290611ede565b9190820180921161034a57565b818110611f21575050565b60008155600101611f16565b90601f8111611f3a575050565b611d7c91600052601f6020600020910160051c810190611f16565b9190601f8111611f6457505050565b611d7c926000526020600020906020601f840160051c83019310611f90575b601f0160051c0190611f16565b9091508190611f83565b611fa48154611d04565b9081611fae575050565b81601f60009311600114611fc0575055565b908083918252611fdf601f60208420940160051c840160018501611f16565b5555565b90805180516001600160401b03908181116107b75761200c816120068754611d04565b87611f55565b806020601f94858311600114612607576000926125fc575b50508160011b916000199060031b1c19161784555b600180850160208501518051908482116107b75781906120638261205d8654611d04565b86611f55565b6020908783116001146125995760009261258e575b5050600019600383901b1c191690831b1790555b6002850160018060a01b036040860151166bffffffffffffffffffffffff60a01b82541617905560039081860160608601518051908582116107b75781906120d88261205d8654611d04565b60209088831160011461252c57600092612521575b505060001982861b1c191690831b1790555b60049384870160808701518051908682116123c55781906121248261205d8654611d04565b6020908583116001146124bf576000926124b4575b505060001982871b1c191690841b1790555b6005870160a08701518051908682116123c557819061216e8261205d8654611d04565b60209085831160011461245257600092612447575b505060001982871b1c191690841b1790555b6006870160c08701518051908682116123c55781906121b88261205d8654611d04565b6020908583116001146123e5576000926123da575b505060001982871b1c191690841b1790555b6007870160e08701518051908682116123c55781906122028261205d8654611d04565b60209085831160011461236357600092612358575b505060001982871b1c191690841b1790555b600887019461010087015190815195861161234357506122538561224d8854611d04565b88611f55565b60209185116001146122d25792848093600a98969361016098966000956122c7575b50501b92600019911b1c19161790555b600984016122a66101208301511515829060ff801983541691151516179055565b610140820151815461ff00191690151560081b61ff00161790550151910155565b015193503880612275565b91939290601f1984169286600052816000209360005b81811061232d5750918593916101609896600a9a98969410612313575b50505050811b019055612285565b01519060f884600019921b161c1916905538808080612305565b82840151865594870194602093840193016122e8565b604190634e487b7160e01b6000525260246000fd5b015190503880612217565b90869350601f1983169185600052816000209260005b8181106123ad57508411612395575b505050811b019055612229565b015160001983891b60f8161c19169055388080612388565b82840151855589969094019360209384019301612379565b604188634e487b7160e01b6000525260246000fd5b0151905038806121cd565b90869350601f1983169185600052816000209260005b81811061242f57508411612417575b505050811b0190556121df565b015160001983891b60f8161c1916905538808061240a565b828401518555899690940193602093840193016123fb565b015190503880612183565b90869350601f1983169185600052816000209260005b81811061249c57508411612484575b505050811b019055612195565b015160001983891b60f8161c19169055388080612477565b82840151855589969094019360209384019301612468565b015190503880612139565b90869350601f1983169185600052816000209260005b818110612509575084116124f1575b505050811b01905561214b565b015160001983891b60f8161c191690553880806124e4565b828401518555899690940193602093840193016124d5565b0151905038806120ed565b90859350601f1983169185600052816000209260005b8181106125765750841161255e575b505050811b0190556120ff565b015160001983881b60f8161c19169055388080612551565b82840151855588969094019360209384019301612542565b015190503880612078565b90859350601f1983169185600052816000209260005b8181106125e4575084116125cb575b505050811b01905561208c565b015160001960f88460031b161c191690553880806125be565b828401518555889690940193602093840193016125af565b015190503880612024565b60008881528281209350601f198516905b818110612654575090846001959493921061263b575b505050811b018455612039565b015160001960f88460031b161c1916905538808061262e565b92936020600181928786015181550195019301612618565b815181546001600160a01b0319166001600160a01b0391909116178155602082015160018201556040820151805192939260028301916001600160401b0382116107b75781906126c08261205d8654611d04565b602090601f83116001146130c0576000926130b5575b50508160011b916000199060031b1c19161790555b6003810160608401518051906001600160401b0382116107b75781906127158261205d8654611d04565b602090601f831160011461304f57600092613044575b50508160011b916000199060031b1c19161790555b61275f60808401511515600483019060ff801983541691151516179055565b6005810160a08401518051906001600160401b0382116107b75781906127898261205d8654611d04565b602090601f8311600114612fde57600092612fd3575b50508160011b916000199060031b1c19161790555b6006810160c08401518051906001600160401b0382116107b75781906127de8261205d8654611d04565b602090601f8311600114612f6d57600092612f62575b50508160011b916000199060031b1c19161790555b60e08301519283516001600160401b0381116107b757612839816128306007860154611d04565b60078601611f55565b6020601f8211600114612ef3578192939495600092612ee8575b50508160011b916000199060031b1c19161760078301555b6101008101519283516001600160401b0381116107b75761289c816128936008870154611d04565b60088701611f55565b6020601f8211600114612e79578192939495600092612e6e575b50508160011b916000199060031b1c19161760088401555b6101208201519283516001600160401b0381116107b7576128ff816128f66009850154611d04565b60098501611f55565b6020601f8211600114612dff578192939495600092612df4575b50508160011b916000199060031b1c19161760098201555b6101408301519283516001600160401b0381116107b75761296281612959600a860154611d04565b600a8601611f55565b6020601f8211600114612d85578192939495600092612d7a575b50508160011b916000199060031b1c191617600a8301555b6101608101519283516001600160401b0381116107b7576129c5816129bc600b870154611d04565b600b8701611f55565b6020601f8211600114612d0b578192939495600092612d00575b50508160011b916000199060031b1c191617600b8401555b6101808201519283516001600160401b0381116107b757612a2881612a1f600c850154611d04565b600c8501611f55565b6020601f8211600114612c91578192939495600092612c86575b50508160011b916000199060031b1c191617600c8201555b6101a0830151600d8201556101c08301519283516001600160401b0381116107b757612a9681612a8d600e860154611d04565b600e8601611f55565b6020601f8211600114612c12578190610200949596600092612c07575b50508160011b916000199060031b1c191617600e8401555b612aeb6101e08201511515600f85019060ff801983541691151516179055565b015190815191600160401b83116107b7576010820154836010840155808410612b4f575b50602060109101910160005260206000206000915b838310612b315750505050565b600b602082612b436001945186611fe3565b01920192019190612b24565b600b81810204810361034a5783600b02600b8104850361034a576010840160005260206000209081015b82600b0282018110612b8c575050612b0f565b80612b98600b92611f9a565b612ba460018201611f9a565b60006002820155612bb760038201611f9a565b612bc360048201611f9a565b612bcf60058201611f9a565b612bdb60068201611f9a565b612be760078201611f9a565b612bf360088201611f9a565b600060098201556000600a82015501612b79565b015190503880612ab3565b600e840160005260206000209560005b601f1984168110612c6e5750958291610200959697600194601f19811610612c55575b505050811b01600e840155612acb565b015160001960f88460031b161c19169055388080612c45565b82820151885560019097019660209283019201612c22565b015190503880612a42565b600c830160005260206000209060005b601f1984168110612ce8575060019394959683601f19811610612ccf575b505050811b01600c820155612a5a565b015160001960f88460031b161c19169055388080612cbf565b9091602060018192858b015181550193019101612ca1565b0151905038806129df565b600b850160005260206000209060005b601f1984168110612d62575060019394959683601f19811610612d49575b505050811b01600b8401556129f7565b015160001960f88460031b161c19169055388080612d39565b9091602060018192858b015181550193019101612d1b565b01519050388061297c565b600a840160005260206000209060005b601f1984168110612ddc575060019394959683601f19811610612dc3575b505050811b01600a830155612994565b015160001960f88460031b161c19169055388080612db3565b9091602060018192858b015181550193019101612d95565b015190503880612919565b6009830160005260206000209060005b601f1984168110612e56575060019394959683601f19811610612e3d575b505050811b016009820155612931565b015160001960f88460031b161c19169055388080612e2d565b9091602060018192858b015181550193019101612e0f565b0151905038806128b6565b6008850160005260206000209060005b601f1984168110612ed0575060019394959683601f19811610612eb7575b505050811b0160088401556128ce565b015160001960f88460031b161c19169055388080612ea7565b9091602060018192858b015181550193019101612e89565b015190503880612853565b6007840160005260206000209060005b601f1984168110612f4a575060019394959683601f19811610612f31575b505050811b01600783015561286b565b015160001960f88460031b161c19169055388080612f21565b9091602060018192858b015181550193019101612f03565b0151905038806127f4565b6000858152602081209350601f198516905b818110612fbb5750908460019594939210612fa2575b505050811b019055612809565b015160001960f88460031b161c19169055388080612f95565b92936020600181928786015181550195019301612f7f565b01519050388061279f565b6000858152602081209350601f198516905b81811061302c5750908460019594939210613013575b505050811b0190556127b4565b015160001960f88460031b161c19169055388080613006565b92936020600181928786015181550195019301612ff0565b01519050388061272b565b6000858152602081209350601f198516905b81811061309d5750908460019594939210613084575b505050811b019055612740565b015160001960f88460031b161c19169055388080613077565b92936020600181928786015181550195019301613061565b0151905038806126d6565b6000858152602081209350601f198516905b81811061310e57509084600195949392106130f5575b505050811b0190556126eb565b015160001960f88460031b161c191690553880806130e8565b929360206001819287860151815501950193016130d2565b60036060611d7c9360018060a01b038151166bffffffffffffffffffffffff60a01b85541617845560208101516001850155604081015160028501550151151591019060ff801983541691151516179055565b3d156131a4573d9061318a82611c4d565b916131986040519384611c2c565b82523d6000602084013e565b606090565b600019811461034a5760010190565b60018060a01b03809116806000526006602052604060002091606060ff6003604051936131e485611bd9565b86541680855260018701546020860152600287015460408601529501541615159101520361321157600190565b600090565b6000903382526006602052604082206003810160ff815416156000146132b757600160ff198254161790558160018201555b600242910155338252600760205260408220600160ff198254161790556040519081527f4b90d6788928d63c1821907a6a8b95f40d26562d8fe41b105f7489db9966dfcb60203392a28080808060018060a01b0381541634905af16132ab613179565b50156132b45750565b80fd5b50600181016132c7838254611f09565b9055613248565b156132d557565b60405162461bcd60e51b815260206004820152603360248201527f596f7520617265206e6f7420617574686f72697a656420746f20706572666f7260448201527236903a3434b9903a3930b739b0b1ba34b7b71760691b6064820152608490fd5b8054156107a157600052602060002090600090565b91906040519061335a82611c10565b60609182815282602082015260009283604083015280808301528060808301528060a08301528060c08301528060e08301526101008201528261012082015282610140820152826101608201529360018060a01b0380921680845260076020526133ca60ff6040862054166132ce565b8352600360205260106040842001918254935b8481106133eb575050505050565b8160026133f786613336565b50015416828416146134115761340c906131a9565b6133dd565b50505061342a9293506134249150613336565b50611de4565b90565b90600019820191821360011661034a5756fea264697066735822122033219cae0e790543a894e042d0324ac1aede78d54067e3205c43645f76a30cbf64736f6c63430008130033",
  "linkReferences": {},
  "deployedLinkReferences": {}
}