{
  "_format": "hh-sol-artifact-1",
  "contractName": "Profile",
  "sourceName": "contracts/Profile.sol",
  "abi": [
    {
      "inputs": [
        {
          "internalType": "string",
          "name": "_name",
          "type": "string"
        },
        {
          "internalType": "string",
          "name": "_description",
          "type": "string"
        },
        {
          "internalType": "bool",
          "name": "_dev",
          "type": "bool"
        },
        {
          "internalType": "string",
          "name": "_email",
          "type": "string"
        },
        {
          "internalType": "string",
          "name": "_age",
          "type": "string"
        },
        {
          "internalType": "string",
          "name": "phone",
          "type": "string"
        },
        {
          "internalType": "string",
          "name": "_country",
          "type": "string"
        },
        {
          "internalType": "string",
          "name": "_state",
          "type": "string"
        },
        {
          "internalType": "string",
          "name": "_address",
          "type": "string"
        },
        {
          "internalType": "string[]",
          "name": "urls",
          "type": "string[]"
        },
        {
          "internalType": "address",
          "name": "_owner",
          "type": "address"
        },
        {
          "internalType": "address",
          "name": "owner_",
          "type": "address"
        },
        {
          "internalType": "uint256",
          "name": "number",
          "type": "uint256"
        }
      ],
      "stateMutability": "nonpayable",
      "type": "constructor"
    },
    {
      "anonymous": false,
      "inputs": [
        {
          "indexed": true,
          "internalType": "address",
          "name": "ca",
          "type": "address"
        },
        {
          "indexed": false,
          "internalType": "string",
          "name": "name",
          "type": "string"
        }
      ],
      "name": "AddProject",
      "type": "event"
    },
    {
      "anonymous": false,
      "inputs": [
        {
          "indexed": false,
          "internalType": "address",
          "name": "owner",
          "type": "address"
        }
      ],
      "name": "Unverified",
      "type": "event"
    },
    {
      "anonymous": false,
      "inputs": [
        {
          "indexed": false,
          "internalType": "address",
          "name": "owner",
          "type": "address"
        }
      ],
      "name": "Verified",
      "type": "event"
    },
    {
      "inputs": [
        {
          "internalType": "address",
          "name": "account",
          "type": "address"
        }
      ],
      "name": "addAccountToAccessList",
      "outputs": [],
      "stateMutability": "nonpayable",
      "type": "function"
    },
    {
      "inputs": [
        {
          "internalType": "string",
          "name": "_name",
          "type": "string"
        },
        {
          "internalType": "string",
          "name": "_description",
          "type": "string"
        },
        {
          "internalType": "address",
          "name": "_contract_address",
          "type": "address"
        },
        {
          "internalType": "string",
          "name": "_chain",
          "type": "string"
        },
        {
          "internalType": "string",
          "name": "_website_link",
          "type": "string"
        },
        {
          "internalType": "string",
          "name": "_telegram_link",
          "type": "string"
        },
        {
          "internalType": "string",
          "name": "_twitter_link",
          "type": "string"
        },
        {
          "internalType": "string",
          "name": "_discord_link",
          "type": "string"
        },
        {
          "internalType": "string",
          "name": "_linktree",
          "type": "string"
        }
      ],
      "name": "addProject",
      "outputs": [],
      "stateMutability": "nonpayable",
      "type": "function"
    },
    {
      "inputs": [],
      "name": "addVerification",
      "outputs": [],
      "stateMutability": "nonpayable",
      "type": "function"
    },
    {
      "inputs": [
        {
          "internalType": "address",
          "name": "_owner",
          "type": "address"
        }
      ],
      "name": "changeOwner",
      "outputs": [],
      "stateMutability": "nonpayable",
      "type": "function"
    },
    {
      "inputs": [
        {
          "internalType": "address",
          "name": "ca",
          "type": "address"
        }
      ],
      "name": "checkIfProjectIsHoneyPot",
      "outputs": [
        {
          "internalType": "bool",
          "name": "",
          "type": "bool"
        }
      ],
      "stateMutability": "view",
      "type": "function"
    },
    {
      "inputs": [
        {
          "internalType": "address",
          "name": "ca",
          "type": "address"
        }
      ],
      "name": "checkIfProjectIsRugged",
      "outputs": [
        {
          "internalType": "bool",
          "name": "",
          "type": "bool"
        }
      ],
      "stateMutability": "view",
      "type": "function"
    },
    {
      "inputs": [
        {
          "internalType": "address",
          "name": "account",
          "type": "address"
        }
      ],
      "name": "getAccountAccess",
      "outputs": [
        {
          "internalType": "bool",
          "name": "",
          "type": "bool"
        }
      ],
      "stateMutability": "view",
      "type": "function"
    },
    {
      "inputs": [],
      "name": "getAge",
      "outputs": [
        {
          "internalType": "string",
          "name": "",
          "type": "string"
        }
      ],
      "stateMutability": "view",
      "type": "function"
    },
    {
      "inputs": [],
      "name": "getCountry",
      "outputs": [
        {
          "internalType": "string",
          "name": "",
          "type": "string"
        }
      ],
      "stateMutability": "view",
      "type": "function"
    },
    {
      "inputs": [],
      "name": "getDescription",
      "outputs": [
        {
          "internalType": "string",
          "name": "",
          "type": "string"
        }
      ],
      "stateMutability": "view",
      "type": "function"
    },
    {
      "inputs": [],
      "name": "getEmail",
      "outputs": [
        {
          "internalType": "string",
          "name": "",
          "type": "string"
        }
      ],
      "stateMutability": "view",
      "type": "function"
    },
    {
      "inputs": [],
      "name": "getIDBotNumber",
      "outputs": [
        {
          "internalType": "uint256",
          "name": "",
          "type": "uint256"
        }
      ],
      "stateMutability": "view",
      "type": "function"
    },
    {
      "inputs": [],
      "name": "getIdentityUrl",
      "outputs": [
        {
          "internalType": "string",
          "name": "",
          "type": "string"
        }
      ],
      "stateMutability": "view",
      "type": "function"
    },
    {
      "inputs": [],
      "name": "getName",
      "outputs": [
        {
          "internalType": "string",
          "name": "",
          "type": "string"
        }
      ],
      "stateMutability": "view",
      "type": "function"
    },
    {
      "inputs": [],
      "name": "getOwner",
      "outputs": [
        {
          "internalType": "address",
          "name": "",
          "type": "address"
        }
      ],
      "stateMutability": "view",
      "type": "function"
    },
    {
      "inputs": [],
      "name": "getPhoneNumber",
      "outputs": [
        {
          "internalType": "string",
          "name": "",
          "type": "string"
        }
      ],
      "stateMutability": "view",
      "type": "function"
    },
    {
      "inputs": [],
      "name": "getProfilePicUrl",
      "outputs": [
        {
          "internalType": "string",
          "name": "",
          "type": "string"
        }
      ],
      "stateMutability": "view",
      "type": "function"
    },
    {
      "inputs": [
        {
          "internalType": "address",
          "name": "ca",
          "type": "address"
        }
      ],
      "name": "getProjectContractAddress",
      "outputs": [
        {
          "internalType": "address",
          "name": "",
          "type": "address"
        }
      ],
      "stateMutability": "view",
      "type": "function"
    },
    {
      "inputs": [
        {
          "internalType": "address",
          "name": "ca",
          "type": "address"
        }
      ],
      "name": "getProjectDescription",
      "outputs": [
        {
          "internalType": "string",
          "name": "",
          "type": "string"
        }
      ],
      "stateMutability": "view",
      "type": "function"
    },
    {
      "inputs": [
        {
          "internalType": "address",
          "name": "ca",
          "type": "address"
        }
      ],
      "name": "getProjectLinks",
      "outputs": [
        {
          "internalType": "string[5]",
          "name": "",
          "type": "string[5]"
        }
      ],
      "stateMutability": "view",
      "type": "function"
    },
    {
      "inputs": [
        {
          "internalType": "address",
          "name": "ca",
          "type": "address"
        }
      ],
      "name": "getProjectName",
      "outputs": [
        {
          "internalType": "string",
          "name": "",
          "type": "string"
        }
      ],
      "stateMutability": "view",
      "type": "function"
    },
    {
      "inputs": [
        {
          "internalType": "address",
          "name": "ca",
          "type": "address"
        }
      ],
      "name": "getProjectReputationScore",
      "outputs": [
        {
          "internalType": "uint256",
          "name": "",
          "type": "uint256"
        }
      ],
      "stateMutability": "view",
      "type": "function"
    },
    {
      "inputs": [],
      "name": "getProjects",
      "outputs": [
        {
          "components": [
            {
              "internalType": "string",
              "name": "name",
              "type": "string"
            },
            {
              "internalType": "string",
              "name": "description",
              "type": "string"
            },
            {
              "internalType": "address",
              "name": "contract_address",
              "type": "address"
            },
            {
              "internalType": "string",
              "name": "chain",
              "type": "string"
            },
            {
              "internalType": "string",
              "name": "website_link",
              "type": "string"
            },
            {
              "internalType": "string",
              "name": "telegram_link",
              "type": "string"
            },
            {
              "internalType": "string",
              "name": "twitter_link",
              "type": "string"
            },
            {
              "internalType": "string",
              "name": "discord_link",
              "type": "string"
            },
            {
              "internalType": "string",
              "name": "linktree",
              "type": "string"
            },
            {
              "internalType": "bool",
              "name": "isHoneyPot",
              "type": "bool"
            },
            {
              "internalType": "bool",
              "name": "isRugged",
              "type": "bool"
            },
            {
              "internalType": "uint256",
              "name": "reputation_score",
              "type": "uint256"
            }
          ],
          "internalType": "struct Profile.Project[]",
          "name": "",
          "type": "tuple[]"
        }
      ],
      "stateMutability": "view",
      "type": "function"
    },
    {
      "inputs": [],
      "name": "getReputationScore",
      "outputs": [
        {
          "internalType": "uint256",
          "name": "",
          "type": "uint256"
        }
      ],
      "stateMutability": "view",
      "type": "function"
    },
    {
      "inputs": [],
      "name": "getResidentialAddress",
      "outputs": [
        {
          "internalType": "string",
          "name": "",
          "type": "string"
        }
      ],
      "stateMutability": "view",
      "type": "function"
    },
    {
      "inputs": [],
      "name": "getState",
      "outputs": [
        {
          "internalType": "string",
          "name": "",
          "type": "string"
        }
      ],
      "stateMutability": "view",
      "type": "function"
    },
    {
      "inputs": [],
      "name": "getVerificationStatus",
      "outputs": [
        {
          "internalType": "string",
          "name": "",
          "type": "string"
        }
      ],
      "stateMutability": "view",
      "type": "function"
    },
    {
      "inputs": [],
      "name": "isDev",
      "outputs": [
        {
          "internalType": "bool",
          "name": "",
          "type": "bool"
        }
      ],
      "stateMutability": "view",
      "type": "function"
    },
    {
      "inputs": [
        {
          "internalType": "address",
          "name": "account",
          "type": "address"
        }
      ],
      "name": "removeAccountFromAccessList",
      "outputs": [],
      "stateMutability": "nonpayable",
      "type": "function"
    },
    {
      "inputs": [],
      "name": "removeVerification",
      "outputs": [],
      "stateMutability": "nonpayable",
      "type": "function"
    },
    {
      "inputs": [
        {
          "internalType": "address",
          "name": "ca",
          "type": "address"
        }
      ],
      "name": "reportProjectIsHoneyPot",
      "outputs": [],
      "stateMutability": "nonpayable",
      "type": "function"
    },
    {
      "inputs": [
        {
          "internalType": "address",
          "name": "ca",
          "type": "address"
        }
      ],
      "name": "reportProjectIsRugged",
      "outputs": [],
      "stateMutability": "nonpayable",
      "type": "function"
    }
  ],
  "bytecode": "0x610100604052346200027d5762003332620000208138038060805262000fb7565b908160a052608051913960a05160805181016101a0828203126200027d5781516001600160401b0381116200027d576200005b920162000fdd565b60a0516020810151906001600160401b0382116200027d5762000085916080518201910162000fdd565b60a0519060408201519182151583036200027d576060810151906001600160401b0382116200027d57620000c0916080518201910162000fdd565b60a0516080810151906001600160401b0382116200027d57620000ea916080518201910162000fdd565b60a0805190810151919591906001600160401b0382116200027d5762000117916080518201910162000fdd565b60a05160c0810151919391906001600160401b0382116200027d5762000144916080518201910162000fdd565b60a05160e0810151906001600160401b0382116200027d576200016e916080518201910162000fdd565b60a051610100810151906001600160401b0382116200027d5762000199916080518201910162000fdd565b60a05161012081015160c08190529193916001600160401b03106200027d5760805160c05182019101601f820112156200027d575160e08190526001600160401b0310620007c157620001f4602060e05160051b0162000fb7565b9560208760e051815201998a9560805160a051908101602060e05160051b60c05184010101116200027d5760c051016020019b5b60a0518d602060e05160051b60c05184010101111562000282578d51916001600160401b0383116200027d57620002716020939284809460805183019260c05101010162000fdd565b8152019c019b62000228565b600080fd5b5050610140989a620002a69a610180620002ae61016060a0519e8f9e8f016200104f565b9d016200104f565b9c015199620002bf60025462001064565b601f811162000f75575b50600e6650656e64696e6760c81b016002558051906001600160401b038211620007c1578190620002fc60045462001064565b601f811162000f22575b50602090601f831160011462000e935760009262000e87575b50508160011b916000199060031b1c1916176004555b8051906001600160401b038211620007c15781906200035660055462001064565b601f811162000e50575b50602090601f831160011462000dc15760009262000db5575b50508160011b916000199060031b1c1916176005555b60ff801960065416911515161760065580519060018060401b038211620007c1578190620003bf60075462001064565b601f811162000d73575b50602090601f831160011462000cf55760009262000ce9575b50508160011b916000199060031b1c1916176007555b8051906001600160401b038211620007c15781906200041960085462001064565b601f811162000ca7575b50602090601f831160011462000c295760009262000c1d575b50508160011b916000199060031b1c1916176008555b8051906001600160401b038211620007c15781906200047360095462001064565b601f811162000bdb575b50602090601f831160011462000b5d5760009262000b51575b50508160011b916000199060031b1c1916176009555b8051906001600160401b038211620007c1578190620004cd600a5462001064565b601f811162000b0f575b50602090601f831160011462000a955760009262000a89575b50508160011b916000199060031b1c191617600a555b8051906001600160401b038211620007c157819062000527600b5462001064565b601f811162000a36575b50602090601f8311600114620009ab576000926200099f575b50508160011b916000199060031b1c191617600b555b8051906001600160401b038211620007c157819062000581600c5462001064565b601f81116200094c575b50602090601f8311600114620008c157600092620008b5575b50508160011b916000199060031b1c191617600c555b845115620007d757518051906001600160401b038211620007c1578190620005e4600d5462001064565b601f811162000873575b50602090601f8311600114620007f957600092620007ed575b50508160011b916000199060031b1c191617600d555b835193600194851015620007d757604001518051906001600160401b038211620007c157819062000650600e5462001064565b601f811162000773575b50602090601f8311600114620006fc57600092620006f0575b5050600019600383901b1c191690851b17600e555b6010556000600f5560018060a01b038091169060018060a01b03199282846000541617600055168092845416178355600052601360205260406000208260ff1982541617905560005260406000209060ff198254161790556040516121b79081620010bb8239f35b01519050868062000673565b600e600090815288945060008051602062003272833981519152929190601f198516905b8181106200075a5750841162000740575b505050811b01600e5562000688565b015160001960f88460031b161c1916905586808062000731565b8284015185558a96909401936020938401930162000720565b600e600052620007af9060008051602062003272833981519152601f850160051c81019160208610620007b6575b601f0160051c0190620010a1565b876200065a565b9091508190620007a1565b634e487b7160e01b600052604160045260246000fd5b634e487b7160e01b600052603260045260246000fd5b01519050868062000607565b600d6000908152600080516020620032b28339815191529350601f198516905b8181106200085a575090846001959493921062000840575b505050811b01600d556200061d565b015160001960f88460031b161c1916905586808062000831565b9293602060018192878601518155019501930162000819565b600d600052620008ae90600080516020620032b2833981519152601f850160051c81019160208610620007b657601f0160051c0190620010a1565b87620005ee565b015190508780620005a4565b600c60009081527fdf6966c971051c3d54ec59162606531493a51404a002842f56009d7e5cf4a8c79350601f198516905b81811062000933575090846001959493921062000919575b505050811b01600c55620005ba565b015160001960f88460031b161c191690558780806200090a565b92936020600181928786015181550195019301620008f2565b600c60005262000998907fdf6966c971051c3d54ec59162606531493a51404a002842f56009d7e5cf4a8c7601f850160051c81019160208610620007b657601f0160051c0190620010a1565b886200058b565b0151905088806200054a565b600b60009081527f0175b7a638427703f0dbe7bb9bbf987a2551717b34e79f33b5b1008d1fa01db99350601f198516905b81811062000a1d575090846001959493921062000a03575b505050811b01600b5562000560565b015160001960f88460031b161c19169055888080620009f4565b92936020600181928786015181550195019301620009dc565b600b60005262000a82907f0175b7a638427703f0dbe7bb9bbf987a2551717b34e79f33b5b1008d1fa01db9601f850160051c81019160208610620007b657601f0160051c0190620010a1565b8962000531565b015190508980620004f0565b600a6000908152600080516020620032928339815191529350601f198516905b81811062000af6575090846001959493921062000adc575b505050811b01600a5562000506565b015160001960f88460031b161c1916905589808062000acd565b9293602060018192878601518155019501930162000ab5565b600a60005262000b4a9060008051602062003292833981519152601f850160051c81019160208610620007b657601f0160051c0190620010a1565b8a620004d7565b015190508a8062000496565b6009600090815293506000805160206200331283398151915291905b601f198416851062000bbf576001945083601f1981161062000ba5575b505050811b01600955620004ac565b015160001960f88460031b161c191690558a808062000b96565b8181015183556020948501946001909301929091019062000b79565b600960005262000c169060008051602062003312833981519152601f850160051c81019160208610620007b657601f0160051c0190620010a1565b8b6200047d565b015190508b806200043c565b600860009081529350600080516020620032f283398151915291905b601f198416851062000c8b576001945083601f1981161062000c71575b505050811b0160085562000452565b015160001960f88460031b161c191690558b808062000c62565b8181015183556020948501946001909301929091019062000c45565b600860005262000ce290600080516020620032f2833981519152601f850160051c81019160208610620007b657601f0160051c0190620010a1565b8c62000423565b015190508c80620003e2565b600760009081529350600080516020620032d283398151915291905b601f198416851062000d57576001945083601f1981161062000d3d575b505050811b01600755620003f8565b015160001960f88460031b161c191690558c808062000d2e565b8181015183556020948501946001909301929091019062000d11565b600760005262000dae90600080516020620032d2833981519152601f850160051c81019160208610620007b657601f0160051c0190620010a1565b8d620003c9565b015190508e8062000379565b6005600090815293507f036b6384b5eca791c62761152d0c79bb0604c104a5fb6f4eb0703f3154bb3db091905b601f198416851062000e34576001945083601f1981161062000e1a575b505050811b016005556200038f565b015160001960f88460031b161c191690558e808062000e0b565b8181015183556020948501946001909301929091019062000dee565b62000e809060056000526020600020601f850160051c81019160208610620007b657601f0160051c0190620010a1565b8f62000360565b015190508f806200031f565b6004600090815293507f8a35acfbc15ff81a39ae7d344fd709f28e8600b4aa8c65c6b64bfe7fe36bd19b91905b601f198416851062000f06576001945083601f1981161062000eec575b505050811b0160045562000335565b015160001960f88460031b161c191690558f808062000edd565b8181015183556020948501946001909301929091019062000ec0565b600460005262000f6e907f8a35acfbc15ff81a39ae7d344fd709f28e8600b4aa8c65c6b64bfe7fe36bd19b601f850160051c81019160208610620007b657601f0160051c0190620010a1565b3862000306565b600260005262000fb090601f0160051c7f405787fa12a823e0f2b7631cc41b3ba8828b3321ca811111fa75cd3aa3bb5ace90810190620010a1565b8e620002c9565b6040519190601f01601f191682016001600160401b03811183821017620007c157604052565b919080601f840112156200027d5782516001600160401b038111620007c15760209062001013601f8201601f1916830162000fb7565b928184528282870101116200027d5760005b8181106200103b57508260009394955001015290565b858101830151848201840152820162001025565b51906001600160a01b03821682036200027d57565b90600182811c9216801562001096575b60208310146200108057565b634e487b7160e01b600052602260045260246000fd5b91607f169162001074565b818110620010ad575050565b60008155600101620010a156fe608060408181526004918236101561001657600080fd5b60009260e08435811c9283631109fe1a1461158f5750826317d7de7c1461149c5782631865c57d146113d25782631a0925411461130857826324db757f1461123e57826328ec3777146111435782632b8cd7e11461111d5782633200e26d14611053578263370bc5be14610fcd578263423646ac14610f98578263469266c814610f0c578263472b327514610e425782636a4d879114610ddd5782636af1ef4414610d7a5782636bd4ffd314610d415782637cabb9d814610d0c5782637e79e8ba14610c4257826382d7313414610c11578263893d20e814610bd357826389a8648714610b77578263967e6e6514610aad57826396c3d10b146109e357826397c99e92146109535782639e0c3ead1461084e578263a254fcbc146107fc578263a6f9dae11461078d578263b25505591461050d578263dcc601281461031657508163f079914f146102dd578163f38f23ca1461021c57508063f61e4fa6146101e25763f6f6ff121461018757600080fd5b346101de5760203660031901126101de576101606101d5826020946101aa6116c7565b338252601387526101c060ff84842054166117ce565b6001600160a01b031681526012865220611954565b01519051908152f35b5080fd5b50346101de5760203660031901126101de576001600160a01b036102046116c7565b16825260136020528120805460ff1916600117905580f35b919050346102d95760203660031901126102d957600a9061023b6116c7565b338552601360205261025260ff83872054166117ce565b6001600160a01b0316845260126020528320600981018054600881901c60ff16156102c7575b505001805460001992918382019182116102b45755600f549182019182116102a15750600f5580f35b634e487b7160e01b835260119052602482fd5b634e487b7160e01b855260118352602485fd5b61ff0019166101001790553880610278565b8280fd5b5050346101de57816003193601126101de5761030760ff82602094338152601386522054166117ce565b60ff6006541690519015158152f35b8382863461050a578060031936011261050a5733815260206013815261034160ff85842054166117ce565b6011549267ffffffffffffffff84116104f75750835190610367818560051b0183611755565b8382526011835280820193837f31ecc21a745e3968a04e9570e4425bc18fa8019c68028196b546d1669c200c68865b8383106104d25750505050845194818601928287525180935280860190808460051b8801019594975b8489106103cc5787870388f35b9091929394958480600192603f198b820301875289519061049b61048761047761046461045161043e61041b61040b8951610180808b528a01906116e2565b8a8a01518982038c8b01526116e2565b8d8c8060a01b03818b015116908901526060808a015190898303908a01526116e2565b60808089015190888303908901526116e2565b60a08088015190878303908801526116e2565b60c08087015190868303908701526116e2565b888501518482038a8601526116e2565b6101008085015190848303908501526116e2565b91610120808201511515908301526101408082015115159083015261016080910151910152980194019801979190949392946103bf565b600b856001926104e5859a98999a611954565b81520192019201919095949395610396565b634e487b7160e01b835260419052602482fd5b80fd5b849184346107895761012091826003193601126107855767ffffffffffffffff938582358681116101de576105459036908501611777565b946024358781116102d95761055d9036908601611777565b926044359760018060a01b0391828a16809a03610785576064358281116107815761058b9036908901611777565b60843583811161077d576105a29036908a01611777565b60a435848111610779576105b99036908b01611777565b9060c435858111610775576105d19036908c01611777565b9260e435868111610771576105e99036908d01611777565b9561010435908111610771576106058c61061a92369101611777565b97808b54163314908115610763575b50611916565b61062860ff60035416611a23565b8b51996106348b611722565b8d8b5260208b01528d8c8b015260608a0152608089015260a088015260c08701528501526101008401528201528561014082015260646101608201526011546801000000000000000081101561075057600181018060115581101561073d57906106ca81600b6106da9460118b52027f31ecc21a745e3968a04e9570e4425bc18fa8019c68028196b546d1669c200c6801611b07565b8587526012602052838720611b07565b600f54906064820180921161072a5750600f555160208082527f3f59d974cb323c784e37c2bf72b6b6f11983b4d23545adf73f81b553873a539c92829161072491908301906116e2565b0390a280f35b634e487b7160e01b865260119052602485fd5b634e487b7160e01b875260328352602487fd5b634e487b7160e01b875260418352602487fd5b905060015416331438610614565b8980fd5b8880fd5b8780fd5b8680fd5b8580fd5b8480fd5b8380fd5b843461050a57602036600319011261050a576107a76116c7565b8154906001600160a01b0390338284161480156107ef575b6107c890611916565b6107d660ff60035416611a23565b16906bffffffffffffffffffffffff60a01b1617815580f35b50600154821633146107bf565b505050346101de5760203660031901126101de5760ff8160209361081e6116c7565b338252601386526108338484842054166117ce565b6001600160a01b031681526013855220549151911615158152f35b505050346101de57816003193601126101de573382526020906013825261087a60ff82852054166117ce565b805183819490600a5461088c81611836565b9182855260019187838216918260001461092c5750506001146108d0575b5050506108cc92916108bd910385611755565b519282849384528301906116e2565b0390f35b9190869350600a83527fc65a7bb8d6351c1cf70c95a316cc6a92839c986682d98bc35f958f4883f9d2a85b82841061091457505050820101816108bd6108cc6108aa565b8054848a0186015288955087949093019281016108fb565b60ff19168782015293151560051b860190930193508492506108bd91506108cc90506108aa565b848285346102d95760203660031901126102d957600a906109726116c7565b338552601360205261098960ff83872054166117ce565b6001600160a01b031684526012602052832060098101805460ff8116156109d357505001805460001992918382019182116102b45755600f549182019182116102a15750600f5580f35b60ff191660011790558480610278565b505050346101de57816003193601126101de5733825260209060138252610a0f60ff82852054166117ce565b805183819490600d54610a2181611836565b9182855260019187838216918260001461092c575050600114610a51575050506108cc92916108bd910385611755565b9190869350600d83527fd7b6990105719101dabeb77144f2a3385c8033acd3af97e9423a695e81ad1eb55b828410610a9557505050820101816108bd6108cc6108aa565b8054848a018601528895508794909301928101610a7c565b505050346101de57816003193601126101de5733825260209060138252610ad960ff82852054166117ce565b805183819490600854610aeb81611836565b9182855260019187838216918260001461092c575050600114610b1b575050506108cc92916108bd910385611755565b9190869350600883527ff3f7a9fe364faab93b216da50a3214154f22a0a2b415b23a84c8169e8b636ee35b828410610b5f57505050820101816108bd6108cc6108aa565b8054848a018601528895508794909301928101610b46565b505050346101de5760203660031901126101de5760209181610bc981610b9b6116c7565b9333815260138752610bb260ff83832054166117ce565b6001600160a01b0394851681526012875220611954565b0151169051908152f35b505050346101de57816003193601126101de5760209133815260138352610bff60ff83832054166117ce565b5490516001600160a01b039091168152f35b505050346101de5760203660031901126101de57610140610c37826020946101aa6116c7565b015115159051908152f35b505050346101de57816003193601126101de5733825260209060138252610c6e60ff82852054166117ce565b805183819490600754610c8081611836565b9182855260019187838216918260001461092c575050600114610cb0575050506108cc92916108bd910385611755565b9190869350600783527fa66cc928b5edb82af9bd49922954155ab7b0942694bea4ce44661d9a8736c6885b828410610cf457505050820101816108bd6108cc6108aa565b8054848a018601528895508794909301928101610cdb565b505050346101de57816003193601126101de57610d3760ff82602094338152601386522054166117ce565b6010549051908152f35b505050346101de5760203660031901126101de576001600160a01b03610d656116c7565b16825260136020528120805460ff1916905580f35b83853461050a576020908160031936011261050a5781610dcb846108cc93610da06116c7565b33825260138552610db660ff84842054166117ce565b6001600160a01b031681526012845220611954565b015192519282849384528301906116e2565b505050346101de5760203660031901126101de57610e2e816108cc93610e016116c7565b3382526013602052610e1860ff84842054166117ce565b6001600160a01b03168152601260205220611954565b5190519182916020835260208301906116e2565b505050346101de57816003193601126101de5733825260209060138252610e6e60ff82852054166117ce565b805183819490600c54610e8081611836565b9182855260019187838216918260001461092c575050600114610eb0575050506108cc92916108bd910385611755565b9190869350600c83527fdf6966c971051c3d54ec59162606531493a51404a002842f56009d7e5cf4a8c75b828410610ef457505050820101816108bd6108cc6108aa565b8054848a018601528895508794909301928101610edb565b505050346101de57816003193601126101de5760207fbf40ed975ac04192dc3c221b21155d52ba4322b78f63a7bd22c828bf2d3f6c8c9160018060a01b03610f5981600154163314611916565b610f6c610f67600254611836565b611a5f565b60186b139bdd0815995c9a599a595960a21b016002556003805460ff191690558454915191168152a180f35b505050346101de57816003193601126101de57610fc360ff82602094338152601386522054166117ce565b600f549051908152f35b505050346101de57816003193601126101de5760207f6a6455914f452787eb3985452aceedc1000fb545e394eb3b370e3d08958e0a5b9160018060a01b0361101a81600154163314611916565b611028610f67600254611836565b60106715995c9a599a595960c21b016002556003805460ff191660011790558454915191168152a180f35b505050346101de57816003193601126101de573382526020906013825261107f60ff82852054166117ce565b80518381949060025461109181611836565b9182855260019187838216918260001461092c5750506001146110c1575050506108cc92916108bd910385611755565b9190869350600283527f405787fa12a823e0f2b7631cc41b3ba8828b3321ca811111fa75cd3aa3bb5ace5b82841061110557505050820101816108bd6108cc6108aa565b8054848a0186015288955087949093019281016110ec565b505050346101de5760203660031901126101de57610120610c37826020946101aa6116c7565b83853461050a578060031936011261050a5760019161116c60018060a01b038454163314611916565b8051918093600e549161117e83611836565b8086529282811690811561121657506001146111b9575b5050506111a7826108cc940383611755565b519182916020835260208301906116e2565b9450600e85527fbb7b4a454dc3493923482f07822329ed19e8244eff582cc204f8554c3620c3fd5b8286106111fe575050506111a78260206108cc9582010194611195565b805460208787018101919091529095019481016111e1565b6108cc9750869350602092506111a794915060ff191682840152151560051b82010194611195565b505050346101de57816003193601126101de573382526020906013825261126a60ff82852054166117ce565b80518381949060095461127c81611836565b9182855260019187838216918260001461092c5750506001146112ac575050506108cc92916108bd910385611755565b9190869350600983527f6e1540171b6c0c960b71a7020d9f60077f6af931a8bbf590da0223dacf75c7af5b8284106112f057505050820101816108bd6108cc6108aa565b8054848a0186015288955087949093019281016112d7565b505050346101de57816003193601126101de573382526020906013825261133460ff82852054166117ce565b80518381949060055461134681611836565b9182855260019187838216918260001461092c575050600114611376575050506108cc92916108bd910385611755565b9190869350600583527f036b6384b5eca791c62761152d0c79bb0604c104a5fb6f4eb0703f3154bb3db05b8284106113ba57505050820101816108bd6108cc6108aa565b8054848a0186015288955087949093019281016113a1565b505050346101de57816003193601126101de57338252602090601382526113fe60ff82852054166117ce565b805183819490600b5461141081611836565b9182855260019187838216918260001461092c575050600114611440575050506108cc92916108bd910385611755565b9190869350600b83527f0175b7a638427703f0dbe7bb9bbf987a2551717b34e79f33b5b1008d1fa01db95b82841061148457505050820101816108bd6108cc6108aa565b8054848a01860152889550879490930192810161146b565b848285346102d957826003193601126102d957338352602091601383526114c860ff83862054166117ce565b8151938491818154906114da82611836565b9283865260019288848216918260001461156557505060011461150a575b85886108cc896108bd848a0385611755565b815286935091907f8a35acfbc15ff81a39ae7d344fd709f28e8600b4aa8c65c6b64bfe7fe36bd19b5b82841061154d57505050820101816108bd6108cc886114f8565b8054848a018601528895508794909301928101611533565b60ff19168882015294151560051b870190940194508593506108bd92506108cc91508990506114f8565b82858792346107895760209485600319360112610785576115ae6116c7565b60a0908184019367ffffffffffffffff94818110868211176116b457865288885b8481106116a657505050338752601388526115ef60ff86892054166117ce565b6001600160a01b031686526012875283862061160a90611954565b9284519582870191878310908311176116935750906101009392918552608083015186528201518786015260c082015184860152810151606085015201516080830152519183830184845260c084019291945b6005861061166b5784840385f35b9091928180611686600193601f1989820301875287516116e2565b950193019501949061165d565b634e487b7160e01b885260419052602487fd5b6060818401520189906115cf565b634e487b7160e01b895260418852602489fd5b600435906001600160a01b03821682036116dd57565b600080fd5b919082519283825260005b84811061170e575050826000602080949584010152601f8019910116010190565b6020818301810151848301820152016116ed565b610180810190811067ffffffffffffffff82111761173f57604052565b634e487b7160e01b600052604160045260246000fd5b90601f8019910116810190811067ffffffffffffffff82111761173f57604052565b81601f820112156116dd5780359067ffffffffffffffff821161173f57604051926117ac601f8401601f191660200185611755565b828452602083830101116116dd57816000926020809301838601378301015290565b156117d557565b60405162461bcd60e51b815260206004820152603360248201527f596f7520617265206e6f7420617574686f72697a656420746f20706572666f7260448201527236903a3434b9903a3930b739b0b1ba34b7b71760691b6064820152608490fd5b90600182811c92168015611866575b602083101461185057565b634e487b7160e01b600052602260045260246000fd5b91607f1691611845565b906040519182600082549261188484611836565b9081845260019485811690816000146118f357506001146118b0575b50506118ae92500383611755565b565b9093915060005260209081600020936000915b8183106118db5750506118ae935082010138806118a0565b855488840185015294850194879450918301916118c3565b9150506118ae94506020925060ff191682840152151560051b82010138806118a0565b1561191d57565b60405162461bcd60e51b815260206004820152600f60248201526e2737ba1020baba3437b934bd32b21760891b6044820152606490fd5b9060405161196181611722565b610160600a829461197181611870565b845261197f60018201611870565b602085015260028101546001600160a01b031660408501526119a360038201611870565b60608501526119b460048201611870565b60808501526119c560058201611870565b60a08501526119d660068201611870565b60c08501526119e760078201611870565b60e08501526119f860088201611870565b61010085015260ff6009820154818116151561012087015260081c1615156101408501520154910152565b15611a2a57565b60405162461bcd60e51b815260206004820152600d60248201526c2737ba103b32b934b334b2b21760991b6044820152606490fd5b601f8111611a6a5750565b600060028152601f7f405787fa12a823e0f2b7631cc41b3ba8828b3321ca811111fa75cd3aa3bb5ace920160051c8201915b828110611aa857505050565b818155600101611a9c565b90601f8111611ac157505050565b600091825260208220906020601f850160051c83019410611afd575b601f0160051c01915b828110611af257505050565b818155600101611ae6565b9092508290611add565b908051805167ffffffffffffffff9081811161173f57611b3181611b2b8754611836565b87611ab3565b806020601f9485831160011461211c57600092612111575b50508160011b916000199060031b1c19161784555b6001808501602085015180519084821161173f578190611b8882611b828654611836565b86611ab3565b6020908783116001146120ae576000926120a3575b5050600019600383901b1c191690831b1790555b6002850160018060a01b036040860151166bffffffffffffffffffffffff60a01b825416179055600390818601606086015180519085821161173f578190611bfd82611b828654611836565b60209088831160011461204157600092612036575b505060001982861b1c191690831b1790555b6004938487016080870151805190868211611eda578190611c4982611b828654611836565b602090858311600114611fd457600092611fc9575b505060001982871b1c191690841b1790555b6005870160a0870151805190868211611eda578190611c9382611b828654611836565b602090858311600114611f6757600092611f5c575b505060001982871b1c191690841b1790555b6006870160c0870151805190868211611eda578190611cdd82611b828654611836565b602090858311600114611efa57600092611eef575b505060001982871b1c191690841b1790555b6007870160e0870151805190868211611eda578190611d2782611b828654611836565b602090858311600114611e7857600092611e6d575b505060001982871b1c191690841b1790555b6008870194610100870151908151958611611e585750611d7885611d728854611836565b88611ab3565b6020918511600114611de75792848093600a9896936101609896600095611ddc575b50501b92600019911b1c19161790555b600984016101208201511515815460ff61ff00610140860151151560081b1692169061ffff1916171790550151910155565b015193503880611d9a565b91939290601f1984169286600052816000209360005b818110611e425750918593916101609896600a9a98969410611e28575b50505050811b019055611daa565b01519060f884600019921b161c1916905538808080611e1a565b8284015186559487019460209384019301611dfd565b604190634e487b7160e01b6000525260246000fd5b015190503880611d3c565b90869350601f1983169185600052816000209260005b818110611ec257508411611eaa575b505050811b019055611d4e565b015160001983891b60f8161c19169055388080611e9d565b82840151855589969094019360209384019301611e8e565b604188634e487b7160e01b6000525260246000fd5b015190503880611cf2565b90869350601f1983169185600052816000209260005b818110611f4457508411611f2c575b505050811b019055611d04565b015160001983891b60f8161c19169055388080611f1f565b82840151855589969094019360209384019301611f10565b015190503880611ca8565b90869350601f1983169185600052816000209260005b818110611fb157508411611f99575b505050811b019055611cba565b015160001983891b60f8161c19169055388080611f8c565b82840151855589969094019360209384019301611f7d565b015190503880611c5e565b90869350601f1983169185600052816000209260005b81811061201e57508411612006575b505050811b019055611c70565b015160001983891b60f8161c19169055388080611ff9565b82840151855589969094019360209384019301611fea565b015190503880611c12565b90859350601f1983169185600052816000209260005b81811061208b57508411612073575b505050811b019055611c24565b015160001983881b60f8161c19169055388080612066565b82840151855588969094019360209384019301612057565b015190503880611b9d565b90859350601f1983169185600052816000209260005b8181106120f9575084116120e0575b505050811b019055611bb1565b015160001960f88460031b161c191690553880806120d3565b828401518555889690940193602093840193016120c4565b015190503880611b49565b60008881528281209350601f198516905b8181106121695750908460019594939210612150575b505050811b018455611b5e565b015160001960f88460031b161c19169055388080612143565b9293602060018192878601518155019501930161212d56fea2646970667358221220844fd0cd6579375a97ea276099ba4210954bf56d3014d90377de7d41e3e4e9fe64736f6c63430008130033bb7b4a454dc3493923482f07822329ed19e8244eff582cc204f8554c3620c3fdc65a7bb8d6351c1cf70c95a316cc6a92839c986682d98bc35f958f4883f9d2a8d7b6990105719101dabeb77144f2a3385c8033acd3af97e9423a695e81ad1eb5a66cc928b5edb82af9bd49922954155ab7b0942694bea4ce44661d9a8736c688f3f7a9fe364faab93b216da50a3214154f22a0a2b415b23a84c8169e8b636ee36e1540171b6c0c960b71a7020d9f60077f6af931a8bbf590da0223dacf75c7af",
  "linkReferences": {},
  "deployedLinkReferences": {}
}