{
  "_format": "hh-sol-artifact-1",
  "contractName": "Profile",
  "sourceName": "contracts/Profile.sol",
  "abi": [
    {
      "inputs": [
        {
          "internalType": "string",
          "name": "_name",
          "type": "string"
        },
        {
          "internalType": "string",
          "name": "_description",
          "type": "string"
        },
        {
          "internalType": "bool",
          "name": "_dev",
          "type": "bool"
        },
        {
          "internalType": "string",
          "name": "_email",
          "type": "string"
        },
        {
          "internalType": "string",
          "name": "_age",
          "type": "string"
        },
        {
          "internalType": "string",
          "name": "phone",
          "type": "string"
        },
        {
          "internalType": "string",
          "name": "_country",
          "type": "string"
        },
        {
          "internalType": "string",
          "name": "_state",
          "type": "string"
        },
        {
          "internalType": "string",
          "name": "_address",
          "type": "string"
        },
        {
          "internalType": "string",
          "name": "url",
          "type": "string"
        },
        {
          "internalType": "address",
          "name": "_owner",
          "type": "address"
        }
      ],
      "stateMutability": "nonpayable",
      "type": "constructor"
    },
    {
      "anonymous": false,
      "inputs": [
        {
          "indexed": true,
          "internalType": "address",
          "name": "ca",
          "type": "address"
        },
        {
          "indexed": false,
          "internalType": "string",
          "name": "name",
          "type": "string"
        }
      ],
      "name": "AddProject",
      "type": "event"
    },
    {
      "inputs": [
        {
          "internalType": "address",
          "name": "account",
          "type": "address"
        }
      ],
      "name": "addAccountToAccessList",
      "outputs": [],
      "stateMutability": "nonpayable",
      "type": "function"
    },
    {
      "inputs": [
        {
          "internalType": "string",
          "name": "_name",
          "type": "string"
        },
        {
          "internalType": "string",
          "name": "_description",
          "type": "string"
        },
        {
          "internalType": "address",
          "name": "_contract_address",
          "type": "address"
        },
        {
          "internalType": "string",
          "name": "_website_link",
          "type": "string"
        },
        {
          "internalType": "string",
          "name": "_telegram_link",
          "type": "string"
        },
        {
          "internalType": "string",
          "name": "_twitter_link",
          "type": "string"
        },
        {
          "internalType": "string",
          "name": "_discord_link",
          "type": "string"
        },
        {
          "internalType": "string",
          "name": "_linktree",
          "type": "string"
        }
      ],
      "name": "addProject",
      "outputs": [],
      "stateMutability": "nonpayable",
      "type": "function"
    },
    {
      "inputs": [],
      "name": "addVerification",
      "outputs": [],
      "stateMutability": "nonpayable",
      "type": "function"
    },
    {
      "inputs": [
        {
          "internalType": "address",
          "name": "_owner",
          "type": "address"
        }
      ],
      "name": "changeOwner",
      "outputs": [],
      "stateMutability": "nonpayable",
      "type": "function"
    },
    {
      "inputs": [
        {
          "internalType": "address",
          "name": "ca",
          "type": "address"
        }
      ],
      "name": "checkIfProjectIsHoneyPot",
      "outputs": [
        {
          "internalType": "bool",
          "name": "",
          "type": "bool"
        }
      ],
      "stateMutability": "view",
      "type": "function"
    },
    {
      "inputs": [
        {
          "internalType": "address",
          "name": "ca",
          "type": "address"
        }
      ],
      "name": "checkIfProjectIsRugged",
      "outputs": [
        {
          "internalType": "bool",
          "name": "",
          "type": "bool"
        }
      ],
      "stateMutability": "view",
      "type": "function"
    },
    {
      "inputs": [],
      "name": "getAccessList",
      "outputs": [
        {
          "internalType": "address[]",
          "name": "",
          "type": "address[]"
        }
      ],
      "stateMutability": "view",
      "type": "function"
    },
    {
      "inputs": [
        {
          "internalType": "address",
          "name": "account",
          "type": "address"
        }
      ],
      "name": "getAccountAccess",
      "outputs": [
        {
          "internalType": "bool",
          "name": "",
          "type": "bool"
        }
      ],
      "stateMutability": "view",
      "type": "function"
    },
    {
      "inputs": [],
      "name": "getAge",
      "outputs": [
        {
          "internalType": "string",
          "name": "",
          "type": "string"
        }
      ],
      "stateMutability": "view",
      "type": "function"
    },
    {
      "inputs": [],
      "name": "getCountry",
      "outputs": [
        {
          "internalType": "string",
          "name": "",
          "type": "string"
        }
      ],
      "stateMutability": "view",
      "type": "function"
    },
    {
      "inputs": [],
      "name": "getDescription",
      "outputs": [
        {
          "internalType": "string",
          "name": "",
          "type": "string"
        }
      ],
      "stateMutability": "view",
      "type": "function"
    },
    {
      "inputs": [],
      "name": "getEmail",
      "outputs": [
        {
          "internalType": "string",
          "name": "",
          "type": "string"
        }
      ],
      "stateMutability": "view",
      "type": "function"
    },
    {
      "inputs": [],
      "name": "getName",
      "outputs": [
        {
          "internalType": "string",
          "name": "",
          "type": "string"
        }
      ],
      "stateMutability": "view",
      "type": "function"
    },
    {
      "inputs": [],
      "name": "getOwner",
      "outputs": [
        {
          "internalType": "address",
          "name": "",
          "type": "address"
        }
      ],
      "stateMutability": "view",
      "type": "function"
    },
    {
      "inputs": [],
      "name": "getPhoneNumber",
      "outputs": [
        {
          "internalType": "string",
          "name": "",
          "type": "string"
        }
      ],
      "stateMutability": "view",
      "type": "function"
    },
    {
      "inputs": [],
      "name": "getProfilePicUrl",
      "outputs": [
        {
          "internalType": "string",
          "name": "",
          "type": "string"
        }
      ],
      "stateMutability": "view",
      "type": "function"
    },
    {
      "inputs": [
        {
          "internalType": "address",
          "name": "ca",
          "type": "address"
        }
      ],
      "name": "getProjectContractAddress",
      "outputs": [
        {
          "internalType": "address",
          "name": "",
          "type": "address"
        }
      ],
      "stateMutability": "view",
      "type": "function"
    },
    {
      "inputs": [
        {
          "internalType": "address",
          "name": "ca",
          "type": "address"
        }
      ],
      "name": "getProjectDescription",
      "outputs": [
        {
          "internalType": "string",
          "name": "",
          "type": "string"
        }
      ],
      "stateMutability": "view",
      "type": "function"
    },
    {
      "inputs": [
        {
          "internalType": "address",
          "name": "ca",
          "type": "address"
        }
      ],
      "name": "getProjectLinks",
      "outputs": [
        {
          "internalType": "string[5]",
          "name": "",
          "type": "string[5]"
        }
      ],
      "stateMutability": "view",
      "type": "function"
    },
    {
      "inputs": [
        {
          "internalType": "address",
          "name": "ca",
          "type": "address"
        }
      ],
      "name": "getProjectName",
      "outputs": [
        {
          "internalType": "string",
          "name": "",
          "type": "string"
        }
      ],
      "stateMutability": "view",
      "type": "function"
    },
    {
      "inputs": [
        {
          "internalType": "address",
          "name": "ca",
          "type": "address"
        }
      ],
      "name": "getProjectReputationScore",
      "outputs": [
        {
          "internalType": "uint256",
          "name": "",
          "type": "uint256"
        }
      ],
      "stateMutability": "view",
      "type": "function"
    },
    {
      "inputs": [],
      "name": "getProjects",
      "outputs": [
        {
          "components": [
            {
              "internalType": "string",
              "name": "name",
              "type": "string"
            },
            {
              "internalType": "string",
              "name": "description",
              "type": "string"
            },
            {
              "internalType": "address",
              "name": "contract_address",
              "type": "address"
            },
            {
              "internalType": "string",
              "name": "website_link",
              "type": "string"
            },
            {
              "internalType": "string",
              "name": "telegram_link",
              "type": "string"
            },
            {
              "internalType": "string",
              "name": "twitter_link",
              "type": "string"
            },
            {
              "internalType": "string",
              "name": "discord_link",
              "type": "string"
            },
            {
              "internalType": "string",
              "name": "linktree",
              "type": "string"
            },
            {
              "internalType": "bool",
              "name": "isHoneyPot",
              "type": "bool"
            },
            {
              "internalType": "bool",
              "name": "isRugged",
              "type": "bool"
            },
            {
              "internalType": "uint256",
              "name": "reputation_score",
              "type": "uint256"
            }
          ],
          "internalType": "struct Profile.Project[]",
          "name": "",
          "type": "tuple[]"
        }
      ],
      "stateMutability": "view",
      "type": "function"
    },
    {
      "inputs": [],
      "name": "getReputationScore",
      "outputs": [
        {
          "internalType": "uint256",
          "name": "",
          "type": "uint256"
        }
      ],
      "stateMutability": "view",
      "type": "function"
    },
    {
      "inputs": [],
      "name": "getResidentialAddress",
      "outputs": [
        {
          "internalType": "string",
          "name": "",
          "type": "string"
        }
      ],
      "stateMutability": "view",
      "type": "function"
    },
    {
      "inputs": [],
      "name": "getState",
      "outputs": [
        {
          "internalType": "string",
          "name": "",
          "type": "string"
        }
      ],
      "stateMutability": "view",
      "type": "function"
    },
    {
      "inputs": [],
      "name": "isDev",
      "outputs": [
        {
          "internalType": "bool",
          "name": "",
          "type": "bool"
        }
      ],
      "stateMutability": "view",
      "type": "function"
    },
    {
      "inputs": [
        {
          "internalType": "address",
          "name": "account",
          "type": "address"
        }
      ],
      "name": "removeAccountFromAccessList",
      "outputs": [],
      "stateMutability": "nonpayable",
      "type": "function"
    },
    {
      "inputs": [],
      "name": "removeVerification",
      "outputs": [],
      "stateMutability": "nonpayable",
      "type": "function"
    },
    {
      "inputs": [
        {
          "internalType": "address",
          "name": "ca",
          "type": "address"
        }
      ],
      "name": "reportProjectIsHoneyPot",
      "outputs": [],
      "stateMutability": "nonpayable",
      "type": "function"
    },
    {
      "inputs": [
        {
          "internalType": "address",
          "name": "ca",
          "type": "address"
        }
      ],
      "name": "reportProjectIsRugged",
      "outputs": [],
      "stateMutability": "nonpayable",
      "type": "function"
    }
  ],
  "bytecode": "0x60806040523480156200001157600080fd5b50604051620040bf380380620040bf83398101604081905262000034916200027c565b6002620000428c82620004f0565b506003620000518b82620004f0565b506004805460ff19168a151517905560056200006e8982620004f0565b5060066200007d8882620004f0565b5060076200008c8782620004f0565b5060086200009b8682620004f0565b506009620000aa8582620004f0565b50600a620000b98482620004f0565b50600b620000c88382620004f0565b506000600c81905580546001600160a01b039283166001600160a01b03199182168117835560018054831633178155600f805480830182557f8d1108e10bcb7c27dddfc02ed9d693a074039d026cf4ea4240b40f7d581ac8029081018054861690941790935581548154808401909255920180549093169185169190911790915581548316825260106020526040808320805460ff19908116841790915582549094168352909120805490921617905550620005bc98505050505050505050565b634e487b7160e01b600052604160045260246000fd5b600082601f830112620001b157600080fd5b81516001600160401b0380821115620001ce57620001ce62000189565b604051601f8301601f19908116603f01168101908282118183101715620001f957620001f962000189565b816040528381526020925086838588010111156200021657600080fd5b600091505b838210156200023a57858201830151818301840152908201906200021b565b600093810190920192909252949350505050565b805180151581146200025f57600080fd5b919050565b80516001600160a01b03811681146200025f57600080fd5b60008060008060008060008060008060006101608c8e0312156200029f57600080fd5b8b516001600160401b03811115620002b657600080fd5b620002c48e828f016200019f565b60208e0151909c5090506001600160401b03811115620002e357600080fd5b620002f18e828f016200019f565b9a50506200030260408d016200024e565b60608d01519099506001600160401b038111156200031f57600080fd5b6200032d8e828f016200019f565b60808e015190995090506001600160401b038111156200034c57600080fd5b6200035a8e828f016200019f565b60a08e015190985090506001600160401b038111156200037957600080fd5b620003878e828f016200019f565b60c08e015190975090506001600160401b03811115620003a657600080fd5b620003b48e828f016200019f565b60e08e015190965090506001600160401b03811115620003d357600080fd5b620003e18e828f016200019f565b6101008e015190955090506001600160401b038111156200040157600080fd5b6200040f8e828f016200019f565b6101208e015190945090506001600160401b038111156200042f57600080fd5b6200043d8e828f016200019f565b9250506200044f6101408d0162000264565b90509295989b509295989b9093969950565b600181811c908216806200047657607f821691505b6020821081036200049757634e487b7160e01b600052602260045260246000fd5b50919050565b601f821115620004eb57600081815260208120601f850160051c81016020861015620004c65750805b601f850160051c820191505b81811015620004e757828155600101620004d2565b5050505b505050565b81516001600160401b038111156200050c576200050c62000189565b62000524816200051d845462000461565b846200049d565b602080601f8311600181146200055c5760008415620005435750858301515b600019600386901b1c1916600185901b178555620004e7565b600085815260208120601f198616915b828110156200058d578886015182559484019460019091019084016200056c565b5085821015620005ac5787850151600019600388901b60f8161c191681555b5050505050600190811b01905550565b613af380620005cc6000396000f3fe608060405234801561001057600080fd5b50600436106101da5760003560e01c8063872a720a116101045780639e0c3ead116100a2578063f079914f11610071578063f079914f1461039d578063f38f23ca146103a5578063f61e4fa6146103b8578063f6f6ff12146103cb57600080fd5b80639e0c3ead1461035a578063a254fcbc14610362578063a6f9dae114610375578063dcc601281461038857600080fd5b80638d5ddbb3116100de5780638d5ddbb314610322578063967e6e651461033757806396c3d10b1461033f57806397c99e921461034757600080fd5b8063872a720a146102dc578063893d20e8146102ef57806389a864871461030f57600080fd5b8063423646ac1161017c5780636af1ef441161014b5780636af1ef441461029b5780636bd4ffd3146102ae5780637e79e8ba146102c157806382d73134146102c957600080fd5b8063423646ac14610262578063469266c814610278578063472b3275146102805780636a4d87911461028857600080fd5b80631a092541116101b85780631a0925411461022557806324db757f1461022d5780632b8cd7e114610235578063370bc5be1461025857600080fd5b80631109fe1a146101df57806317d7de7c146102085780631865c57d1461021d575b600080fd5b6101f26101ed36600461347c565b6103de565b6040516101ff91906134e4565b60405180910390f35b6102106108cd565b6040516101ff9190613531565b61021061098f565b6102106109ce565b610210610a0d565b61024861024336600461347c565b610a4c565b60405190151581526020016101ff565b610260610ee6565b005b61026a610f25565b6040519081526020016101ff565b610260610f5b565b610210610f94565b61021061029636600461347c565b610fd3565b6102106102a936600461347c565b61146e565b6102606102bc36600461347c565b61190e565b610210611959565b6102486102d736600461347c565b611998565b6102606102ea3660046135e7565b611e34565b6102f76121b5565b6040516001600160a01b0390911681526020016101ff565b6102f761031d36600461347c565b6121f4565b61032a612691565b6040516101ff9190613713565b610210612722565b610210612761565b61026061035536600461347c565b6127a0565b610210612843565b61024861037036600461347c565b612882565b61026061038336600461347c565b6128d0565b61039061297a565b6040516101ff9190613760565b610248612e4e565b6102606103b336600461347c565b612e87565b6102606103c636600461347c565b612f0c565b61026a6103d936600461347c565b612f9d565b6103e6613439565b3360009081526010602052604090205460ff1661041e5760405162461bcd60e51b8152600401610415906138b6565b60405180910390fd5b6001600160a01b0382166000908152600e60205260408082208151610160810190925280548290829061045090613909565b80601f016020809104026020016040519081016040528092919081815260200182805461047c90613909565b80156104c95780601f1061049e576101008083540402835291602001916104c9565b820191906000526020600020905b8154815290600101906020018083116104ac57829003601f168201915b505050505081526020016001820180546104e290613909565b80601f016020809104026020016040519081016040528092919081815260200182805461050e90613909565b801561055b5780601f106105305761010080835404028352916020019161055b565b820191906000526020600020905b81548152906001019060200180831161053e57829003601f168201915b505050918352505060028201546001600160a01b0316602082015260038201805460409092019161058b90613909565b80601f01602080910402602001604051908101604052809291908181526020018280546105b790613909565b80156106045780601f106105d957610100808354040283529160200191610604565b820191906000526020600020905b8154815290600101906020018083116105e757829003601f168201915b5050505050815260200160048201805461061d90613909565b80601f016020809104026020016040519081016040528092919081815260200182805461064990613909565b80156106965780601f1061066b57610100808354040283529160200191610696565b820191906000526020600020905b81548152906001019060200180831161067957829003601f168201915b505050505081526020016005820180546106af90613909565b80601f01602080910402602001604051908101604052809291908181526020018280546106db90613909565b80156107285780601f106106fd57610100808354040283529160200191610728565b820191906000526020600020905b81548152906001019060200180831161070b57829003601f168201915b5050505050815260200160068201805461074190613909565b80601f016020809104026020016040519081016040528092919081815260200182805461076d90613909565b80156107ba5780601f1061078f576101008083540402835291602001916107ba565b820191906000526020600020905b81548152906001019060200180831161079d57829003601f168201915b505050505081526020016007820180546107d390613909565b80601f01602080910402602001604051908101604052809291908181526020018280546107ff90613909565b801561084c5780601f106108215761010080835404028352916020019161084c565b820191906000526020600020905b81548152906001019060200180831161082f57829003601f168201915b5050509183525050600882015460ff8082161515602080850191909152610100909204161515604080840191909152600990930154606092830152825160a08082018552858401518252608080870151938301939093528501519381019390935260c08401519183019190915260e090920151918101919091529392505050565b3360009081526010602052604090205460609060ff166108ff5760405162461bcd60e51b8152600401610415906138b6565b6002805461090c90613909565b80601f016020809104026020016040519081016040528092919081815260200182805461093890613909565b80156109855780601f1061095a57610100808354040283529160200191610985565b820191906000526020600020905b81548152906001019060200180831161096857829003601f168201915b5050505050905090565b3360009081526010602052604090205460609060ff166109c15760405162461bcd60e51b8152600401610415906138b6565b6009805461090c90613909565b3360009081526010602052604090205460609060ff16610a005760405162461bcd60e51b8152600401610415906138b6565b6003805461090c90613909565b3360009081526010602052604090205460609060ff16610a3f5760405162461bcd60e51b8152600401610415906138b6565b6007805461090c90613909565b3360009081526010602052604081205460ff16610a7b5760405162461bcd60e51b8152600401610415906138b6565b6001600160a01b0382166000908152600e602052604080822081516101608101909252805482908290610aad90613909565b80601f0160208091040260200160405190810160405280929190818152602001828054610ad990613909565b8015610b265780601f10610afb57610100808354040283529160200191610b26565b820191906000526020600020905b815481529060010190602001808311610b0957829003601f168201915b50505050508152602001600182018054610b3f90613909565b80601f0160208091040260200160405190810160405280929190818152602001828054610b6b90613909565b8015610bb85780601f10610b8d57610100808354040283529160200191610bb8565b820191906000526020600020905b815481529060010190602001808311610b9b57829003601f168201915b505050918352505060028201546001600160a01b03166020820152600382018054604090920191610be890613909565b80601f0160208091040260200160405190810160405280929190818152602001828054610c1490613909565b8015610c615780601f10610c3657610100808354040283529160200191610c61565b820191906000526020600020905b815481529060010190602001808311610c4457829003601f168201915b50505050508152602001600482018054610c7a90613909565b80601f0160208091040260200160405190810160405280929190818152602001828054610ca690613909565b8015610cf35780601f10610cc857610100808354040283529160200191610cf3565b820191906000526020600020905b815481529060010190602001808311610cd657829003601f168201915b50505050508152602001600582018054610d0c90613909565b80601f0160208091040260200160405190810160405280929190818152602001828054610d3890613909565b8015610d855780601f10610d5a57610100808354040283529160200191610d85565b820191906000526020600020905b815481529060010190602001808311610d6857829003601f168201915b50505050508152602001600682018054610d9e90613909565b80601f0160208091040260200160405190810160405280929190818152602001828054610dca90613909565b8015610e175780601f10610dec57610100808354040283529160200191610e17565b820191906000526020600020905b815481529060010190602001808311610dfa57829003601f168201915b50505050508152602001600782018054610e3090613909565b80601f0160208091040260200160405190810160405280929190818152602001828054610e5c90613909565b8015610ea95780601f10610e7e57610100808354040283529160200191610ea9565b820191906000526020600020905b815481529060010190602001808311610e8c57829003601f168201915b5050509183525050600882015460ff8082161515602084015261010091829004161515604083015260099092015460609091015201519392505050565b6001546001600160a01b03163314610f105760405162461bcd60e51b815260040161041590613943565b6001805460ff60a01b1916600160a01b179055565b3360009081526010602052604081205460ff16610f545760405162461bcd60e51b8152600401610415906138b6565b50600c5490565b6001546001600160a01b03163314610f855760405162461bcd60e51b815260040161041590613943565b6001805460ff60a01b19169055565b3360009081526010602052604090205460609060ff16610fc65760405162461bcd60e51b8152600401610415906138b6565b600a805461090c90613909565b3360009081526010602052604090205460609060ff166110055760405162461bcd60e51b8152600401610415906138b6565b6001600160a01b0382166000908152600e60205260408082208151610160810190925280548290829061103790613909565b80601f016020809104026020016040519081016040528092919081815260200182805461106390613909565b80156110b05780601f10611085576101008083540402835291602001916110b0565b820191906000526020600020905b81548152906001019060200180831161109357829003601f168201915b505050505081526020016001820180546110c990613909565b80601f01602080910402602001604051908101604052809291908181526020018280546110f590613909565b80156111425780601f1061111757610100808354040283529160200191611142565b820191906000526020600020905b81548152906001019060200180831161112557829003601f168201915b505050918352505060028201546001600160a01b0316602082015260038201805460409092019161117290613909565b80601f016020809104026020016040519081016040528092919081815260200182805461119e90613909565b80156111eb5780601f106111c0576101008083540402835291602001916111eb565b820191906000526020600020905b8154815290600101906020018083116111ce57829003601f168201915b5050505050815260200160048201805461120490613909565b80601f016020809104026020016040519081016040528092919081815260200182805461123090613909565b801561127d5780601f106112525761010080835404028352916020019161127d565b820191906000526020600020905b81548152906001019060200180831161126057829003601f168201915b5050505050815260200160058201805461129690613909565b80601f01602080910402602001604051908101604052809291908181526020018280546112c290613909565b801561130f5780601f106112e45761010080835404028352916020019161130f565b820191906000526020600020905b8154815290600101906020018083116112f257829003601f168201915b5050505050815260200160068201805461132890613909565b80601f016020809104026020016040519081016040528092919081815260200182805461135490613909565b80156113a15780601f10611376576101008083540402835291602001916113a1565b820191906000526020600020905b81548152906001019060200180831161138457829003601f168201915b505050505081526020016007820180546113ba90613909565b80601f01602080910402602001604051908101604052809291908181526020018280546113e690613909565b80156114335780601f1061140857610100808354040283529160200191611433565b820191906000526020600020905b81548152906001019060200180831161141657829003601f168201915b5050509183525050600882015460ff808216151560208401526101009091041615156040820152600990910154606090910152519392505050565b3360009081526010602052604090205460609060ff166114a05760405162461bcd60e51b8152600401610415906138b6565b6001600160a01b0382166000908152600e6020526040808220815161016081019092528054829082906114d290613909565b80601f01602080910402602001604051908101604052809291908181526020018280546114fe90613909565b801561154b5780601f106115205761010080835404028352916020019161154b565b820191906000526020600020905b81548152906001019060200180831161152e57829003601f168201915b5050505050815260200160018201805461156490613909565b80601f016020809104026020016040519081016040528092919081815260200182805461159090613909565b80156115dd5780601f106115b2576101008083540402835291602001916115dd565b820191906000526020600020905b8154815290600101906020018083116115c057829003601f168201915b505050918352505060028201546001600160a01b0316602082015260038201805460409092019161160d90613909565b80601f016020809104026020016040519081016040528092919081815260200182805461163990613909565b80156116865780601f1061165b57610100808354040283529160200191611686565b820191906000526020600020905b81548152906001019060200180831161166957829003601f168201915b5050505050815260200160048201805461169f90613909565b80601f01602080910402602001604051908101604052809291908181526020018280546116cb90613909565b80156117185780601f106116ed57610100808354040283529160200191611718565b820191906000526020600020905b8154815290600101906020018083116116fb57829003601f168201915b5050505050815260200160058201805461173190613909565b80601f016020809104026020016040519081016040528092919081815260200182805461175d90613909565b80156117aa5780601f1061177f576101008083540402835291602001916117aa565b820191906000526020600020905b81548152906001019060200180831161178d57829003601f168201915b505050505081526020016006820180546117c390613909565b80601f01602080910402602001604051908101604052809291908181526020018280546117ef90613909565b801561183c5780601f106118115761010080835404028352916020019161183c565b820191906000526020600020905b81548152906001019060200180831161181f57829003601f168201915b5050505050815260200160078201805461185590613909565b80601f016020809104026020016040519081016040528092919081815260200182805461188190613909565b80156118ce5780601f106118a3576101008083540402835291602001916118ce565b820191906000526020600020905b8154815290600101906020018083116118b157829003601f168201915b5050509183525050600882015460ff8082161515602080850191909152610100909204161515604083015260099092015460609091015201519392505050565b6001546001600160a01b031633146119385760405162461bcd60e51b815260040161041590613943565b6001600160a01b03166000908152601060205260409020805460ff19169055565b3360009081526010602052604090205460609060ff1661198b5760405162461bcd60e51b8152600401610415906138b6565b6005805461090c90613909565b3360009081526010602052604081205460ff166119c75760405162461bcd60e51b8152600401610415906138b6565b6001600160a01b0382166000908152600e6020526040808220815161016081019092528054829082906119f990613909565b80601f0160208091040260200160405190810160405280929190818152602001828054611a2590613909565b8015611a725780601f10611a4757610100808354040283529160200191611a72565b820191906000526020600020905b815481529060010190602001808311611a5557829003601f168201915b50505050508152602001600182018054611a8b90613909565b80601f0160208091040260200160405190810160405280929190818152602001828054611ab790613909565b8015611b045780601f10611ad957610100808354040283529160200191611b04565b820191906000526020600020905b815481529060010190602001808311611ae757829003601f168201915b505050918352505060028201546001600160a01b03166020820152600382018054604090920191611b3490613909565b80601f0160208091040260200160405190810160405280929190818152602001828054611b6090613909565b8015611bad5780601f10611b8257610100808354040283529160200191611bad565b820191906000526020600020905b815481529060010190602001808311611b9057829003601f168201915b50505050508152602001600482018054611bc690613909565b80601f0160208091040260200160405190810160405280929190818152602001828054611bf290613909565b8015611c3f5780601f10611c1457610100808354040283529160200191611c3f565b820191906000526020600020905b815481529060010190602001808311611c2257829003601f168201915b50505050508152602001600582018054611c5890613909565b80601f0160208091040260200160405190810160405280929190818152602001828054611c8490613909565b8015611cd15780601f10611ca657610100808354040283529160200191611cd1565b820191906000526020600020905b815481529060010190602001808311611cb457829003601f168201915b50505050508152602001600682018054611cea90613909565b80601f0160208091040260200160405190810160405280929190818152602001828054611d1690613909565b8015611d635780601f10611d3857610100808354040283529160200191611d63565b820191906000526020600020905b815481529060010190602001808311611d4657829003601f168201915b50505050508152602001600782018054611d7c90613909565b80601f0160208091040260200160405190810160405280929190818152602001828054611da890613909565b8015611df55780601f10611dca57610100808354040283529160200191611df5565b820191906000526020600020905b815481529060010190602001808311611dd857829003601f168201915b5050509183525050600882015460ff80821615156020840152610100909104161515604082015260099091015460609091015261012001519392505050565b6000546001600160a01b0316331480611e5757506001546001600160a01b031633145b611e735760405162461bcd60e51b815260040161041590613943565b600154600160a01b900460ff16611ebc5760405162461bcd60e51b815260206004820152600d60248201526c2737ba103b32b934b334b2b21760991b6044820152606401610415565b6040805161016081018252898152602081018990526001600160a01b03881691810191909152606081018690526080810185905260a0810184905260c0810183905260e081018290526000610100820181905261012082018190526064610140830152600d8054600181018255915281518291600a027fd7b6990105719101dabeb77144f2a3385c8033acd3af97e9423a695e81ad1eb501908190611f6190826139bb565b5060208201516001820190611f7690826139bb565b5060408201516002820180546001600160a01b0319166001600160a01b0390921691909117905560608201516003820190611fb190826139bb565b5060808201516004820190611fc690826139bb565b5060a08201516005820190611fdb90826139bb565b5060c08201516006820190611ff090826139bb565b5060e0820151600782019061200590826139bb565b506101008281015160088301805461012086015161ffff1990911692151561ff00191692909217911515909202179055610140909101516009909101556001600160a01b0387166000908152600e602052604090208151829190819061206b90826139bb565b506020820151600182019061208090826139bb565b5060408201516002820180546001600160a01b0319166001600160a01b03909216919091179055606082015160038201906120bb90826139bb565b50608082015160048201906120d090826139bb565b5060a082015160058201906120e590826139bb565b5060c082015160068201906120fa90826139bb565b5060e0820151600782019061210f90826139bb565b506101008281015160088301805461012086015161ffff1990911692151561ff0019169290921791151590920217905561014090910151600990910155600c805460649190600090612162908490613a91565b92505081905550866001600160a01b03167f3f59d974cb323c784e37c2bf72b6b6f11983b4d23545adf73f81b553873a539c8a6040516121a29190613531565b60405180910390a2505050505050505050565b3360009081526010602052604081205460ff166121e45760405162461bcd60e51b8152600401610415906138b6565b506000546001600160a01b031690565b3360009081526010602052604081205460ff166122235760405162461bcd60e51b8152600401610415906138b6565b6001600160a01b0382166000908152600e60205260408082208151610160810190925280548290829061225590613909565b80601f016020809104026020016040519081016040528092919081815260200182805461228190613909565b80156122ce5780601f106122a3576101008083540402835291602001916122ce565b820191906000526020600020905b8154815290600101906020018083116122b157829003601f168201915b505050505081526020016001820180546122e790613909565b80601f016020809104026020016040519081016040528092919081815260200182805461231390613909565b80156123605780601f1061233557610100808354040283529160200191612360565b820191906000526020600020905b81548152906001019060200180831161234357829003601f168201915b505050918352505060028201546001600160a01b0316602082015260038201805460409092019161239090613909565b80601f01602080910402602001604051908101604052809291908181526020018280546123bc90613909565b80156124095780601f106123de57610100808354040283529160200191612409565b820191906000526020600020905b8154815290600101906020018083116123ec57829003601f168201915b5050505050815260200160048201805461242290613909565b80601f016020809104026020016040519081016040528092919081815260200182805461244e90613909565b801561249b5780601f106124705761010080835404028352916020019161249b565b820191906000526020600020905b81548152906001019060200180831161247e57829003601f168201915b505050505081526020016005820180546124b490613909565b80601f01602080910402602001604051908101604052809291908181526020018280546124e090613909565b801561252d5780601f106125025761010080835404028352916020019161252d565b820191906000526020600020905b81548152906001019060200180831161251057829003601f168201915b5050505050815260200160068201805461254690613909565b80601f016020809104026020016040519081016040528092919081815260200182805461257290613909565b80156125bf5780601f10612594576101008083540402835291602001916125bf565b820191906000526020600020905b8154815290600101906020018083116125a257829003601f168201915b505050505081526020016007820180546125d890613909565b80601f016020809104026020016040519081016040528092919081815260200182805461260490613909565b80156126515780601f1061262657610100808354040283529160200191612651565b820191906000526020600020905b81548152906001019060200180831161263457829003601f168201915b5050509183525050600882015460ff8082161515602084015261010090910416151560408083019190915260099092015460609091015201519392505050565b3360009081526010602052604090205460609060ff166126c35760405162461bcd60e51b8152600401610415906138b6565b600f80548060200260200160405190810160405280929190818152602001828054801561098557602002820191906000526020600020905b81546001600160a01b031681526001909101906020018083116126fb575050505050905090565b3360009081526010602052604090205460609060ff166127545760405162461bcd60e51b8152600401610415906138b6565b6006805461090c90613909565b3360009081526010602052604090205460609060ff166127935760405162461bcd60e51b8152600401610415906138b6565b600b805461090c90613909565b3360009081526010602052604090205460ff166127cf5760405162461bcd60e51b8152600401610415906138b6565b6001600160a01b0381166000908152600e602052604081206008810154909160ff9091161515900361280b5760088101805460ff191660011790555b60018160090160008282546128209190613aaa565b925050819055506001600c600082825461283a9190613aaa565b90915550505050565b3360009081526010602052604090205460609060ff166128755760405162461bcd60e51b8152600401610415906138b6565b6008805461090c90613909565b3360009081526010602052604081205460ff166128b15760405162461bcd60e51b8152600401610415906138b6565b506001600160a01b031660009081526010602052604090205460ff1690565b6000546001600160a01b03163314806128f357506001546001600160a01b031633145b61290f5760405162461bcd60e51b815260040161041590613943565b600154600160a01b900460ff166129585760405162461bcd60e51b815260206004820152600d60248201526c2737ba103b32b934b334b2b21760991b6044820152606401610415565b600080546001600160a01b0319166001600160a01b0392909216919091179055565b3360009081526010602052604090205460609060ff166129ac5760405162461bcd60e51b8152600401610415906138b6565b600d805480602002602001604051908101604052809291908181526020016000905b82821015612e4557838290600052602060002090600a020160405180610160016040529081600082018054612a0290613909565b80601f0160208091040260200160405190810160405280929190818152602001828054612a2e90613909565b8015612a7b5780601f10612a5057610100808354040283529160200191612a7b565b820191906000526020600020905b815481529060010190602001808311612a5e57829003601f168201915b50505050508152602001600182018054612a9490613909565b80601f0160208091040260200160405190810160405280929190818152602001828054612ac090613909565b8015612b0d5780601f10612ae257610100808354040283529160200191612b0d565b820191906000526020600020905b815481529060010190602001808311612af057829003601f168201915b505050918352505060028201546001600160a01b03166020820152600382018054604090920191612b3d90613909565b80601f0160208091040260200160405190810160405280929190818152602001828054612b6990613909565b8015612bb65780601f10612b8b57610100808354040283529160200191612bb6565b820191906000526020600020905b815481529060010190602001808311612b9957829003601f168201915b50505050508152602001600482018054612bcf90613909565b80601f0160208091040260200160405190810160405280929190818152602001828054612bfb90613909565b8015612c485780601f10612c1d57610100808354040283529160200191612c48565b820191906000526020600020905b815481529060010190602001808311612c2b57829003601f168201915b50505050508152602001600582018054612c6190613909565b80601f0160208091040260200160405190810160405280929190818152602001828054612c8d90613909565b8015612cda5780601f10612caf57610100808354040283529160200191612cda565b820191906000526020600020905b815481529060010190602001808311612cbd57829003601f168201915b50505050508152602001600682018054612cf390613909565b80601f0160208091040260200160405190810160405280929190818152602001828054612d1f90613909565b8015612d6c5780601f10612d4157610100808354040283529160200191612d6c565b820191906000526020600020905b815481529060010190602001808311612d4f57829003601f168201915b50505050508152602001600782018054612d8590613909565b80601f0160208091040260200160405190810160405280929190818152602001828054612db190613909565b8015612dfe5780601f10612dd357610100808354040283529160200191612dfe565b820191906000526020600020905b815481529060010190602001808311612de157829003601f168201915b5050509183525050600882015460ff8082161515602080850191909152610100909204161515604083015260099092015460609091015290825260019290920191016129ce565b50505050905090565b3360009081526010602052604081205460ff16612e7d5760405162461bcd60e51b8152600401610415906138b6565b5060045460ff1690565b3360009081526010602052604090205460ff16612eb65760405162461bcd60e51b8152600401610415906138b6565b6001600160a01b0381166000908152600e602052604081206008810154909161010090910460ff161515900361280b5760088101805461ff00191661010017905560018160090160008282546128209190613aaa565b6001546001600160a01b03163314612f365760405162461bcd60e51b815260040161041590613943565b600f805460018181019092557f8d1108e10bcb7c27dddfc02ed9d693a074039d026cf4ea4240b40f7d581ac8020180546001600160a01b039093166001600160a01b031990931683179055600091825260106020526040909120805460ff19169091179055565b3360009081526010602052604081205460ff16612fcc5760405162461bcd60e51b8152600401610415906138b6565b6001600160a01b0382166000908152600e602052604080822081516101608101909252805482908290612ffe90613909565b80601f016020809104026020016040519081016040528092919081815260200182805461302a90613909565b80156130775780601f1061304c57610100808354040283529160200191613077565b820191906000526020600020905b81548152906001019060200180831161305a57829003601f168201915b5050505050815260200160018201805461309090613909565b80601f01602080910402602001604051908101604052809291908181526020018280546130bc90613909565b80156131095780601f106130de57610100808354040283529160200191613109565b820191906000526020600020905b8154815290600101906020018083116130ec57829003601f168201915b505050918352505060028201546001600160a01b0316602082015260038201805460409092019161313990613909565b80601f016020809104026020016040519081016040528092919081815260200182805461316590613909565b80156131b25780601f10613187576101008083540402835291602001916131b2565b820191906000526020600020905b81548152906001019060200180831161319557829003601f168201915b505050505081526020016004820180546131cb90613909565b80601f01602080910402602001604051908101604052809291908181526020018280546131f790613909565b80156132445780601f1061321957610100808354040283529160200191613244565b820191906000526020600020905b81548152906001019060200180831161322757829003601f168201915b5050505050815260200160058201805461325d90613909565b80601f016020809104026020016040519081016040528092919081815260200182805461328990613909565b80156132d65780601f106132ab576101008083540402835291602001916132d6565b820191906000526020600020905b8154815290600101906020018083116132b957829003601f168201915b505050505081526020016006820180546132ef90613909565b80601f016020809104026020016040519081016040528092919081815260200182805461331b90613909565b80156133685780601f1061333d57610100808354040283529160200191613368565b820191906000526020600020905b81548152906001019060200180831161334b57829003601f168201915b5050505050815260200160078201805461338190613909565b80601f01602080910402602001604051908101604052809291908181526020018280546133ad90613909565b80156133fa5780601f106133cf576101008083540402835291602001916133fa565b820191906000526020600020905b8154815290600101906020018083116133dd57829003601f168201915b5050509183525050600882015460ff80821615156020840152610100909104161515604082015260099091015460609091015261014001519392505050565b6040518060a001604052806005905b60608152602001906001900390816134485790505090565b80356001600160a01b038116811461347757600080fd5b919050565b60006020828403121561348e57600080fd5b61349782613460565b9392505050565b6000815180845260005b818110156134c4576020818501810151868301820152016134a8565b506000602082860101526020601f19601f83011685010191505092915050565b602080825260009060c0830183820185845b600581101561352557601f1987850301835261351384835161349e565b935091840191908401906001016134f6565b50919695505050505050565b602081526000613497602083018461349e565b634e487b7160e01b600052604160045260246000fd5b600082601f83011261356b57600080fd5b813567ffffffffffffffff8082111561358657613586613544565b604051601f8301601f19908116603f011681019082821181831017156135ae576135ae613544565b816040528381528660208588010111156135c757600080fd5b836020870160208301376000602085830101528094505050505092915050565b600080600080600080600080610100898b03121561360457600080fd5b883567ffffffffffffffff8082111561361c57600080fd5b6136288c838d0161355a565b995060208b013591508082111561363e57600080fd5b61364a8c838d0161355a565b985061365860408c01613460565b975060608b013591508082111561366e57600080fd5b61367a8c838d0161355a565b965060808b013591508082111561369057600080fd5b61369c8c838d0161355a565b955060a08b01359150808211156136b257600080fd5b6136be8c838d0161355a565b945060c08b01359150808211156136d457600080fd5b6136e08c838d0161355a565b935060e08b01359150808211156136f657600080fd5b506137038b828c0161355a565b9150509295985092959890939650565b6020808252825182820181905260009190848201906040850190845b818110156137545783516001600160a01b03168352928401929184019160010161372f565b50909695505050505050565b60006020808301818452808551808352604092508286019150828160051b87010184880160005b838110156138a857603f19898403018552815161016081518186526137ae8287018261349e565b915050888201518582038a8701526137c6828261349e565b915050878201516137e1898701826001600160a01b03169052565b50606080830151868303828801526137f9838261349e565b9250505060808083015186830382880152613814838261349e565b9250505060a0808301518683038288015261382f838261349e565b9250505060c0808301518683038288015261384a838261349e565b9250505060e08083015186830382880152613865838261349e565b925050506101008083015161387d8288018215159052565b5050610120828101511515908601526101409182015191909401529386019390860190600101613787565b509098975050505050505050565b60208082526033908201527f596f7520617265206e6f7420617574686f72697a656420746f20706572666f7260408201527236903a3434b9903a3930b739b0b1ba34b7b71760691b606082015260800190565b600181811c9082168061391d57607f821691505b60208210810361393d57634e487b7160e01b600052602260045260246000fd5b50919050565b6020808252600f908201526e2737ba1020baba3437b934bd32b21760891b604082015260600190565b601f8211156139b657600081815260208120601f850160051c810160208610156139935750805b601f850160051c820191505b818110156139b25782815560010161399f565b5050505b505050565b815167ffffffffffffffff8111156139d5576139d5613544565b6139e9816139e38454613909565b8461396c565b602080601f831160018114613a1e5760008415613a065750858301515b600019600386901b1c1916600185901b1785556139b2565b600085815260208120601f198616915b82811015613a4d57888601518255948401946001909101908401613a2e565b5085821015613a6b5787850151600019600388901b60f8161c191681555b5050505050600190811b01905550565b634e487b7160e01b600052601160045260246000fd5b80820180821115613aa457613aa4613a7b565b92915050565b81810381811115613aa457613aa4613a7b56fea2646970667358221220201a87ebe3852d6ea8c440a8b4db9b47ad97a63996a39b57a7c5d6fb82d57be964736f6c63430008130033",
  "linkReferences": {},
  "deployedLinkReferences": {}
}