{
  "_format": "hh-sol-artifact-1",
  "contractName": "Profile",
  "sourceName": "contracts/Profile.sol",
  "abi": [
    {
      "inputs": [
        {
          "internalType": "string",
          "name": "_name",
          "type": "string"
        },
        {
          "internalType": "string",
          "name": "_description",
          "type": "string"
        },
        {
          "internalType": "bool",
          "name": "_dev",
          "type": "bool"
        },
        {
          "internalType": "string",
          "name": "_email",
          "type": "string"
        },
        {
          "internalType": "string",
          "name": "_age",
          "type": "string"
        },
        {
          "internalType": "string",
          "name": "phone",
          "type": "string"
        },
        {
          "internalType": "string",
          "name": "_country",
          "type": "string"
        },
        {
          "internalType": "string",
          "name": "_state",
          "type": "string"
        },
        {
          "internalType": "string",
          "name": "_address",
          "type": "string"
        },
        {
          "internalType": "string[]",
          "name": "urls",
          "type": "string[]"
        },
        {
          "internalType": "address",
          "name": "_owner",
          "type": "address"
        },
        {
          "internalType": "uint256",
          "name": "number",
          "type": "uint256"
        }
      ],
      "stateMutability": "nonpayable",
      "type": "constructor"
    },
    {
      "anonymous": false,
      "inputs": [
        {
          "indexed": true,
          "internalType": "address",
          "name": "ca",
          "type": "address"
        },
        {
          "indexed": false,
          "internalType": "string",
          "name": "name",
          "type": "string"
        }
      ],
      "name": "AddProject",
      "type": "event"
    },
    {
      "inputs": [
        {
          "internalType": "address",
          "name": "account",
          "type": "address"
        }
      ],
      "name": "addAccountToAccessList",
      "outputs": [],
      "stateMutability": "nonpayable",
      "type": "function"
    },
    {
      "inputs": [
        {
          "internalType": "string",
          "name": "_name",
          "type": "string"
        },
        {
          "internalType": "string",
          "name": "_description",
          "type": "string"
        },
        {
          "internalType": "address",
          "name": "_contract_address",
          "type": "address"
        },
        {
          "internalType": "string",
          "name": "_website_link",
          "type": "string"
        },
        {
          "internalType": "string",
          "name": "_telegram_link",
          "type": "string"
        },
        {
          "internalType": "string",
          "name": "_twitter_link",
          "type": "string"
        },
        {
          "internalType": "string",
          "name": "_discord_link",
          "type": "string"
        },
        {
          "internalType": "string",
          "name": "_linktree",
          "type": "string"
        }
      ],
      "name": "addProject",
      "outputs": [],
      "stateMutability": "nonpayable",
      "type": "function"
    },
    {
      "inputs": [],
      "name": "addVerification",
      "outputs": [],
      "stateMutability": "nonpayable",
      "type": "function"
    },
    {
      "inputs": [
        {
          "internalType": "address",
          "name": "_owner",
          "type": "address"
        }
      ],
      "name": "changeOwner",
      "outputs": [],
      "stateMutability": "nonpayable",
      "type": "function"
    },
    {
      "inputs": [
        {
          "internalType": "address",
          "name": "ca",
          "type": "address"
        }
      ],
      "name": "checkIfProjectIsHoneyPot",
      "outputs": [
        {
          "internalType": "bool",
          "name": "",
          "type": "bool"
        }
      ],
      "stateMutability": "view",
      "type": "function"
    },
    {
      "inputs": [
        {
          "internalType": "address",
          "name": "ca",
          "type": "address"
        }
      ],
      "name": "checkIfProjectIsRugged",
      "outputs": [
        {
          "internalType": "bool",
          "name": "",
          "type": "bool"
        }
      ],
      "stateMutability": "view",
      "type": "function"
    },
    {
      "inputs": [
        {
          "internalType": "address",
          "name": "account",
          "type": "address"
        }
      ],
      "name": "getAccountAccess",
      "outputs": [
        {
          "internalType": "bool",
          "name": "",
          "type": "bool"
        }
      ],
      "stateMutability": "view",
      "type": "function"
    },
    {
      "inputs": [],
      "name": "getAge",
      "outputs": [
        {
          "internalType": "string",
          "name": "",
          "type": "string"
        }
      ],
      "stateMutability": "view",
      "type": "function"
    },
    {
      "inputs": [],
      "name": "getCountry",
      "outputs": [
        {
          "internalType": "string",
          "name": "",
          "type": "string"
        }
      ],
      "stateMutability": "view",
      "type": "function"
    },
    {
      "inputs": [],
      "name": "getDescription",
      "outputs": [
        {
          "internalType": "string",
          "name": "",
          "type": "string"
        }
      ],
      "stateMutability": "view",
      "type": "function"
    },
    {
      "inputs": [],
      "name": "getEmail",
      "outputs": [
        {
          "internalType": "string",
          "name": "",
          "type": "string"
        }
      ],
      "stateMutability": "view",
      "type": "function"
    },
    {
      "inputs": [],
      "name": "getIDBotNumber",
      "outputs": [
        {
          "internalType": "uint256",
          "name": "",
          "type": "uint256"
        }
      ],
      "stateMutability": "view",
      "type": "function"
    },
    {
      "inputs": [],
      "name": "getIdentityUrl",
      "outputs": [
        {
          "internalType": "string",
          "name": "",
          "type": "string"
        }
      ],
      "stateMutability": "view",
      "type": "function"
    },
    {
      "inputs": [],
      "name": "getName",
      "outputs": [
        {
          "internalType": "string",
          "name": "",
          "type": "string"
        }
      ],
      "stateMutability": "view",
      "type": "function"
    },
    {
      "inputs": [],
      "name": "getOwner",
      "outputs": [
        {
          "internalType": "address",
          "name": "",
          "type": "address"
        }
      ],
      "stateMutability": "view",
      "type": "function"
    },
    {
      "inputs": [],
      "name": "getPhoneNumber",
      "outputs": [
        {
          "internalType": "string",
          "name": "",
          "type": "string"
        }
      ],
      "stateMutability": "view",
      "type": "function"
    },
    {
      "inputs": [],
      "name": "getProfilePicUrl",
      "outputs": [
        {
          "internalType": "string",
          "name": "",
          "type": "string"
        }
      ],
      "stateMutability": "view",
      "type": "function"
    },
    {
      "inputs": [
        {
          "internalType": "address",
          "name": "ca",
          "type": "address"
        }
      ],
      "name": "getProjectContractAddress",
      "outputs": [
        {
          "internalType": "address",
          "name": "",
          "type": "address"
        }
      ],
      "stateMutability": "view",
      "type": "function"
    },
    {
      "inputs": [
        {
          "internalType": "address",
          "name": "ca",
          "type": "address"
        }
      ],
      "name": "getProjectDescription",
      "outputs": [
        {
          "internalType": "string",
          "name": "",
          "type": "string"
        }
      ],
      "stateMutability": "view",
      "type": "function"
    },
    {
      "inputs": [
        {
          "internalType": "address",
          "name": "ca",
          "type": "address"
        }
      ],
      "name": "getProjectLinks",
      "outputs": [
        {
          "internalType": "string[5]",
          "name": "",
          "type": "string[5]"
        }
      ],
      "stateMutability": "view",
      "type": "function"
    },
    {
      "inputs": [
        {
          "internalType": "address",
          "name": "ca",
          "type": "address"
        }
      ],
      "name": "getProjectName",
      "outputs": [
        {
          "internalType": "string",
          "name": "",
          "type": "string"
        }
      ],
      "stateMutability": "view",
      "type": "function"
    },
    {
      "inputs": [
        {
          "internalType": "address",
          "name": "ca",
          "type": "address"
        }
      ],
      "name": "getProjectReputationScore",
      "outputs": [
        {
          "internalType": "uint256",
          "name": "",
          "type": "uint256"
        }
      ],
      "stateMutability": "view",
      "type": "function"
    },
    {
      "inputs": [],
      "name": "getProjects",
      "outputs": [
        {
          "components": [
            {
              "internalType": "string",
              "name": "name",
              "type": "string"
            },
            {
              "internalType": "string",
              "name": "description",
              "type": "string"
            },
            {
              "internalType": "address",
              "name": "contract_address",
              "type": "address"
            },
            {
              "internalType": "string",
              "name": "website_link",
              "type": "string"
            },
            {
              "internalType": "string",
              "name": "telegram_link",
              "type": "string"
            },
            {
              "internalType": "string",
              "name": "twitter_link",
              "type": "string"
            },
            {
              "internalType": "string",
              "name": "discord_link",
              "type": "string"
            },
            {
              "internalType": "string",
              "name": "linktree",
              "type": "string"
            },
            {
              "internalType": "bool",
              "name": "isHoneyPot",
              "type": "bool"
            },
            {
              "internalType": "bool",
              "name": "isRugged",
              "type": "bool"
            },
            {
              "internalType": "uint256",
              "name": "reputation_score",
              "type": "uint256"
            }
          ],
          "internalType": "struct Profile.Project[]",
          "name": "",
          "type": "tuple[]"
        }
      ],
      "stateMutability": "view",
      "type": "function"
    },
    {
      "inputs": [],
      "name": "getReputationScore",
      "outputs": [
        {
          "internalType": "uint256",
          "name": "",
          "type": "uint256"
        }
      ],
      "stateMutability": "view",
      "type": "function"
    },
    {
      "inputs": [],
      "name": "getResidentialAddress",
      "outputs": [
        {
          "internalType": "string",
          "name": "",
          "type": "string"
        }
      ],
      "stateMutability": "view",
      "type": "function"
    },
    {
      "inputs": [],
      "name": "getState",
      "outputs": [
        {
          "internalType": "string",
          "name": "",
          "type": "string"
        }
      ],
      "stateMutability": "view",
      "type": "function"
    },
    {
      "inputs": [],
      "name": "getVerificationStatus",
      "outputs": [
        {
          "internalType": "bool",
          "name": "",
          "type": "bool"
        }
      ],
      "stateMutability": "view",
      "type": "function"
    },
    {
      "inputs": [],
      "name": "isDev",
      "outputs": [
        {
          "internalType": "bool",
          "name": "",
          "type": "bool"
        }
      ],
      "stateMutability": "view",
      "type": "function"
    },
    {
      "inputs": [
        {
          "internalType": "address",
          "name": "account",
          "type": "address"
        }
      ],
      "name": "removeAccountFromAccessList",
      "outputs": [],
      "stateMutability": "nonpayable",
      "type": "function"
    },
    {
      "inputs": [],
      "name": "removeVerification",
      "outputs": [],
      "stateMutability": "nonpayable",
      "type": "function"
    },
    {
      "inputs": [
        {
          "internalType": "address",
          "name": "ca",
          "type": "address"
        }
      ],
      "name": "reportProjectIsHoneyPot",
      "outputs": [],
      "stateMutability": "nonpayable",
      "type": "function"
    },
    {
      "inputs": [
        {
          "internalType": "address",
          "name": "ca",
          "type": "address"
        }
      ],
      "name": "reportProjectIsRugged",
      "outputs": [],
      "stateMutability": "nonpayable",
      "type": "function"
    }
  ],
  "bytecode": "0x61016060405234620002c157620033f060c0526200002160c0513803620011c5565b8060805260c05138039060c051903960805160c0513803810161018082820312620002c15781516001600160401b038111620002c157620000639201620011eb565b6080516020810151906001600160401b038211620002c1576200008f9160c051380382019101620011eb565b608051916040830151928315158403620002c1576060810151906001600160401b038211620002c157620000cc9160c051380382019101620011eb565b6080805190810151919391906001600160401b038211620002c157620000fb9160c051380382019101620011eb565b60805160a0810151919391906001600160401b038211620002c1576200012a9160c051380382019101620011eb565b60805160c0810151919491906001600160401b038211620002c157620001599160c051380382019101620011eb565b60805160e0810151906001600160401b038211620002c157620001859160c051380382019101620011eb565b608051610100810151919291906001600160401b038211620002c157620001b59160c051380382019101620011eb565b60805161012081015160a08190529197916001600160401b0310620002c15760a05181019060c051380301601f82011215620002c157516101408190526001600160401b0310620008d6576200021460206101405160051b01620011c5565b60e05260e051610100526101405160e05152602060e0510160e05260e0519360805160c0513803810160206101405160051b60a0518401010111620002c15760a051016020015b6080519060206101405160051b60a05184010101811015620002c65780516101208190526001600160401b0310620002c157620002ae6020928360c0513803820191610120519060a051010101620011eb565b60e051528160e0510160e052016200025b565b600080fd5b5050608051610140810151978a918c91906001600160a01b038b168b03620002c1576101600151895190996001600160401b038211620008d65760025490600182811c92168015620011ba575b6020831014620008b55781601f84931162001159575b50602090601f8311600114620010db57600092620010cf575b50508160011b916000199060031b1c1916176002555b8051906001600160401b038211620008d65760035490600182811c92168015620010c4575b6020831014620008b55781601f84931162001052575b50602090601f831160011462000fc35760009262000fb7575b50508160011b916000199060031b1c1916176003555b60ff801960045416911515161760045580519060018060401b038211620008d65760055490600182811c9216801562000fac575b6020831014620008b55781601f84931162000f56575b50602090601f831160011462000ec75760009262000ebb575b50508160011b916000199060031b1c1916176005555b8051906001600160401b038211620008d65760065490600182811c9216801562000eb0575b6020831014620008b55781601f84931162000e4f575b50602090601f831160011462000dd15760009262000dc5575b50508160011b916000199060031b1c1916176006555b8051906001600160401b038211620008d65760075490600182811c9216801562000dba575b6020831014620008b55781601f84931162000d59575b50602090601f831160011462000cdb5760009262000ccf575b50508160011b916000199060031b1c1916176007555b8051906001600160401b038211620008d65760085490600182811c9216801562000cc4575b6020831014620008b55781601f84931162000c63575b50602090601f831160011462000be55760009262000bd9575b50508160011b916000199060031b1c1916176008555b8051906001600160401b038211620008d65760095490600182811c9216801562000bce575b6020831014620008b55781601f84931162000b6d575b50602090601f831160011462000aef5760009262000ae3575b50508160011b916000199060031b1c1916176009555b83516001600160401b038111620008d657600a54600181811c9116801562000ad8575b6020821014620008b557601f811162000a6e575b506020601f8211600114620009fe578192939495600092620009f2575b50508160011b916000199060031b1c191617600a555b610100515115620008ec575180519092906001600160401b038111620008d657600b54600181811c91168015620009e7575b6020821014620008b557601f81116200097d575b506020601f82116001146200090e578192939460009262000902575b50508160011b916000199060031b1c191617600b555b610100515160011015620008ec57610100516040015180519092906001600160401b038111620008d657600c54600181811c91168015620008cb575b6020821014620008b557601f81116200084b575b506020601f8211600114620007c15781929394600092620007b5575b50508160011b916000199060031b1c191617600c555b600e556000600d81905580546001600160a01b03199081166001600160a01b0393841690811783556001805490921633178255825260116020526040808320805460ff1990811684179091558254909416835291829020805490931617909155516120f290816200125e8239f35b01519050848062000731565b600c60009081527fdf6966c971051c3d54ec59162606531493a51404a002842f56009d7e5cf4a8c79190601f198416905b818110620008325750958360019596971062000818575b505050811b01600c5562000747565b015160001960f88460031b161c1916905584808062000809565b9192602060018192868b015181550194019201620007f2565b600c6000527fdf6966c971051c3d54ec59162606531493a51404a002842f56009d7e5cf4a8c7601f830160051c81019160208410620008aa575b601f0160051c01905b8181106200089d575062000715565b600081556001016200088e565b909150819062000885565b634e487b7160e01b600052602260045260246000fd5b90607f169062000701565b634e487b7160e01b600052604160045260246000fd5b634e487b7160e01b600052603260045260246000fd5b015190508480620006af565b600b60005260206000209060005b601f1984168110620009645750600193949583601f198116106200094a575b505050811b01600b55620006c5565b015160001960f88460031b161c191690558480806200093b565b9091602060018192858a0151815501930191016200091c565b600b6000527f0175b7a638427703f0dbe7bb9bbf987a2551717b34e79f33b5b1008d1fa01db9601f830160051c81019160208410620009dc575b601f0160051c01905b818110620009cf575062000693565b60008155600101620009c0565b9091508190620009b7565b90607f16906200067f565b01519050858062000637565b600a60005260206000209060005b601f198416811062000a55575060019394959683601f1981161062000a3b575b505050811b01600a556200064d565b015160001960f88460031b161c1916905585808062000a2c565b9091602060018192858b01518155019301910162000a0c565b600a6000527fc65a7bb8d6351c1cf70c95a316cc6a92839c986682d98bc35f958f4883f9d2a8601f830160051c8101916020841062000acd575b601f0160051c01905b81811062000ac057506200061a565b6000815560010162000ab1565b909150819062000aa8565b90607f169062000606565b015190508680620005cd565b600960009081529350600080516020620033b083398151915291905b601f198416851062000b51576001945083601f1981161062000b37575b505050811b01600955620005e3565b015160001960f88460031b161c1916905586808062000b28565b8181015183556020948501946001909301929091019062000b0b565b6009600052909150600080516020620033b0833981519152601f840160051c81016020851062000bc6575b90849392915b601f830160051c8201811062000bb6575050620005b4565b6000815585945060010162000b9e565b508062000b98565b91607f16916200059e565b01519050878062000563565b6008600090815293506000805160206200339083398151915291905b601f198416851062000c47576001945083601f1981161062000c2d575b505050811b0160085562000579565b015160001960f88460031b161c1916905587808062000c1e565b8181015183556020948501946001909301929091019062000c01565b600860005290915060008051602062003390833981519152601f840160051c81016020851062000cbc575b90849392915b601f830160051c8201811062000cac5750506200054a565b6000815585945060010162000c94565b508062000c8e565b91607f169162000534565b015190508880620004f9565b6007600090815293506000805160206200337083398151915291905b601f198416851062000d3d576001945083601f1981161062000d23575b505050811b016007556200050f565b015160001960f88460031b161c1916905588808062000d14565b8181015183556020948501946001909301929091019062000cf7565b600760005290915060008051602062003370833981519152601f840160051c81016020851062000db2575b90849392915b601f830160051c8201811062000da2575050620004e0565b6000815585945060010162000d8a565b508062000d84565b91607f1691620004ca565b0151905089806200048f565b600660009081529350600080516020620033d083398151915291905b601f198416851062000e33576001945083601f1981161062000e19575b505050811b01600655620004a5565b015160001960f88460031b161c1916905589808062000e0a565b8181015183556020948501946001909301929091019062000ded565b6006600052909150600080516020620033d0833981519152601f840160051c81016020851062000ea8575b90849392915b601f830160051c8201811062000e9857505062000476565b6000815585945060010162000e80565b508062000e7a565b91607f169162000460565b015190508a8062000425565b6005600090815293507f036b6384b5eca791c62761152d0c79bb0604c104a5fb6f4eb0703f3154bb3db091905b601f198416851062000f3a576001945083601f1981161062000f20575b505050811b016005556200043b565b015160001960f88460031b161c191690558a808062000f11565b8181015183556020948501946001909301929091019062000ef4565b90915060056000526020600020601f840160051c81016020851062000fa4575b90849392915b601f830160051c8201811062000f945750506200040c565b6000815585945060010162000f7c565b508062000f76565b91607f1691620003f6565b015190508c80620003ac565b6003600090815293507fc2575a0e9e593c00f959f8c92f12db2869c3395a3b0502d05e2516446f71f85b91905b601f198416851062001036576001945083601f198116106200101c575b505050811b01600355620003c2565b015160001960f88460031b161c191690558c80806200100d565b8181015183556020948501946001909301929091019062000ff0565b60036000529091507fc2575a0e9e593c00f959f8c92f12db2869c3395a3b0502d05e2516446f71f85b601f840160051c810160208510620010bc575b90849392915b601f830160051c82018110620010ac57505062000393565b6000815585945060010162001094565b50806200108e565b91607f16916200037d565b015190508d8062000342565b6002600090815293506000805160206200335083398151915291905b601f19841685106200113d576001945083601f1981161062001123575b505050811b0160025562000358565b015160001960f88460031b161c191690558d808062001114565b81810151835560209485019460019093019290910190620010f7565b600260005290915060008051602062003350833981519152601f840160051c810160208510620011b2575b90849392915b601f830160051c82018110620011a257505062000329565b600081558594506001016200118a565b508062001184565b91607f169162000313565b6040519190601f01601f191682016001600160401b03811183821017620008d657604052565b919080601f84011215620002c15782516001600160401b038111620008d65760209062001221601f8201601f19168301620011c5565b92818452828287010111620002c15760005b8181106200124957508260009394955001015290565b85810183015184820184015282016200123356fe608060408181526004918236101561001657600080fd5b60009260e08435811c9283631109fe1a146114245750826317d7de7c1461135a5782631865c57d146112905782631a092541146111c657826324db757f146110fc57826328ec3777146110015782632b8cd7e114610fdb5782633200e26d14610f9e578263370bc5be14610f63578263423646ac14610f2e578263469266c814610ef9578263472b327514610e2f5782636a4d879114610dca5782636af1ef4414610d675782636bd4ffd314610d1c5782637cabb9d814610ce75782637e79e8ba14610c1d57826382d7313414610bec578263872a720a1461098d578263893d20e81461094f57826389a86487146108f3578263967e6e651461082957826396c3d10b1461075f57826397c99e92146106cf5782639e0c3ead146105ca578263a254fcbc14610578578263a6f9dae114610506578263dcc601281461032757508163f079914f146102f0578163f38f23ca1461022e57508063f61e4fa6146101e25763f6f6ff121461018757600080fd5b346101de5760203660031901126101de576101406101d5826020946101aa611557565b338252601187526101c060ff848420541661165e565b6001600160a01b0316815260108652206117e4565b01519051908152f35b5080fd5b50346101de5760203660031901126101de576101fc611557565b6001546001600160a01b03919061021690831633146117a6565b16825260116020528120805460ff1916600117905580f35b919050346102ec5760203660031901126102ec5760099061024d611557565b338552601160205261026460ff838720541661165e565b6001600160a01b031684526010602052832060088082018054909181901c60ff16156102da575b505001805460001992918382019182116102c75755600d549182019182116102b45750600d5580f35b634e487b7160e01b835260119052602482fd5b634e487b7160e01b855260118352602485fd5b61ff001916610100179055388061028b565b8280fd5b9050346102ec57826003193601126102ec5760ff9061031c82846020963381526011885220541661165e565b541690519015158152f35b8382863461050357806003193601126105035733815260206011815261035260ff858420541661165e565b600f549267ffffffffffffffff84116104f05750835190610378818560051b01836115e5565b838252600f835280820193837f8d1108e10bcb7c27dddfc02ed9d693a074039d026cf4ea4240b40f7d581ac802865b8383106104cb5750505050845194818601928287525180935280860190808460051b8801019594975b8489106103dd5787870388f35b9091929394958480600192603f198b820301875289519061049461048461047161045e61044b6104296104198851610160808a52890190611572565b898901518882038b8a0152611572565b8a8060a01b038d890151168d8801526060808901519088830390890152611572565b6080808801519087830390880152611572565b60a0808701519086830390870152611572565b60c0808601519085830390860152611572565b8784015183820389850152611572565b91610100808201511515908301526101208082015115159083015261014080910151910152980194019801979190949392946103d0565b600a856001926104de859a98999a6117e4565b815201920192019190959493956103a7565b634e487b7160e01b835260419052602482fd5b80fd5b843461050357602036600319011261050357610520611557565b8154906001600160a01b03903382841614801561056b575b610541906117a6565b61055260ff60015460a01c166118a1565b16906bffffffffffffffffffffffff60a01b1617815580f35b5060015482163314610538565b505050346101de5760203660031901126101de5760ff8160209361059a611557565b338252601186526105af84848420541661165e565b6001600160a01b031681526011855220549151911615158152f35b505050346101de57816003193601126101de57338252602090601182526105f660ff828520541661165e565b805183819490600854610608816116c6565b918285526001918783821691826000146106a857505060011461064c575b50505061064892916106399103856115e5565b51928284938452830190611572565b0390f35b9190869350600883527ff3f7a9fe364faab93b216da50a3214154f22a0a2b415b23a84c8169e8b636ee35b8284106106905750505082010181610639610648610626565b8054848a018601528895508794909301928101610677565b60ff19168782015293151560051b8601909301935084925061063991506106489050610626565b848285346102ec5760203660031901126102ec576009906106ee611557565b338552601160205261070560ff838720541661165e565b6001600160a01b031684526010602052832060088101805460ff81161561074f57505001805460001992918382019182116102c75755600d549182019182116102b45750600d5580f35b60ff19166001179055848061028b565b505050346101de57816003193601126101de573382526020906011825261078b60ff828520541661165e565b805183819490600b5461079d816116c6565b918285526001918783821691826000146106a85750506001146107cd5750505061064892916106399103856115e5565b9190869350600b83527f0175b7a638427703f0dbe7bb9bbf987a2551717b34e79f33b5b1008d1fa01db95b8284106108115750505082010181610639610648610626565b8054848a0186015288955087949093019281016107f8565b505050346101de57816003193601126101de573382526020906011825261085560ff828520541661165e565b805183819490600654610867816116c6565b918285526001918783821691826000146106a85750506001146108975750505061064892916106399103856115e5565b9190869350600683527ff652222313e28459528d920b65115c16c04f3efc82aaedc97be59f3f377c0d3f5b8284106108db5750505082010181610639610648610626565b8054848a0186015288955087949093019281016108c2565b505050346101de5760203660031901126101de576020918161094581610917611557565b933381526011875261092e60ff838320541661165e565b6001600160a01b03948516815260108752206117e4565b0151169051908152f35b505050346101de57816003193601126101de576020913381526011835261097b60ff838320541661165e565b5490516001600160a01b039091168152f35b84918434610be8576101009182600319360112610be45767ffffffffffffffff8582358281116101de576109c49036908501611607565b946024358381116102ec576109dc9036908601611607565b926044359760018060a01b0391828a16809a03610be457606435818111610be057610a0a9036908901611607565b608435828111610bdc57610a219036908a01611607565b60a435838111610bd857610a389036908b01611607565b9160c435848111610bd457610a509036908c01611607565b9360e435908111610bd457610a6b610a809136908d01611607565b96808a54163314908115610bc6575b506117a6565b610a9160ff60015460a01c166118a1565b8a5198610a9d8a6115b2565b8c8a5260208a01528c8b8a01526060890152608088015260a087015260c0860152840152820152856101208201526064610140820152600f5468010000000000000000811015610bb3576001810180600f55811015610ba05790610b2d81600a610b3d94600f8b52027f8d1108e10bcb7c27dddfc02ed9d693a074039d026cf4ea4240b40f7d581ac802016118dd565b85875260106020528387206118dd565b600d549060648201809211610b8d5750600d555160208082527f3f59d974cb323c784e37c2bf72b6b6f11983b4d23545adf73f81b553873a539c928291610b879190830190611572565b0390a280f35b634e487b7160e01b865260119052602485fd5b634e487b7160e01b875260328352602487fd5b634e487b7160e01b875260418352602487fd5b905060015416331438610a7a565b8880fd5b8780fd5b8680fd5b8580fd5b8480fd5b8380fd5b505050346101de5760203660031901126101de57610120610c12826020946101aa611557565b015115159051908152f35b505050346101de57816003193601126101de5733825260209060118252610c4960ff828520541661165e565b805183819490600554610c5b816116c6565b918285526001918783821691826000146106a8575050600114610c8b5750505061064892916106399103856115e5565b9190869350600583527f036b6384b5eca791c62761152d0c79bb0604c104a5fb6f4eb0703f3154bb3db05b828410610ccf5750505082010181610639610648610626565b8054848a018601528895508794909301928101610cb6565b505050346101de57816003193601126101de57610d1260ff826020943381526011865220541661165e565b600e549051908152f35b505050346101de5760203660031901126101de57610d38611557565b6001546001600160a01b039190610d5290831633146117a6565b16825260116020528120805460ff1916905580f35b83853461050357602090816003193601126105035781610db88461064893610d8d611557565b33825260118552610da360ff848420541661165e565b6001600160a01b0316815260108452206117e4565b01519251928284938452830190611572565b505050346101de5760203660031901126101de57610e1b8161064893610dee611557565b3382526011602052610e0560ff848420541661165e565b6001600160a01b031681526010602052206117e4565b519051918291602083526020830190611572565b505050346101de57816003193601126101de5733825260209060118252610e5b60ff828520541661165e565b805183819490600a54610e6d816116c6565b918285526001918783821691826000146106a8575050600114610e9d5750505061064892916106399103856115e5565b9190869350600a83527fc65a7bb8d6351c1cf70c95a316cc6a92839c986682d98bc35f958f4883f9d2a85b828410610ee15750505082010181610639610648610626565b8054848a018601528895508794909301928101610ec8565b8434610503578060031936011261050357600154610f21336001600160a01b038316146117a6565b60ff60a01b191660015580f35b505050346101de57816003193601126101de57610f5960ff826020943381526011865220541661165e565b600d549051908152f35b8434610503578060031936011261050357600154610f8b336001600160a01b038316146117a6565b60ff60a01b1916600160a01b1760015580f35b505050346101de57816003193601126101de57610fc960ff826020943381526011865220541661165e565b60ff60015460a01c1690519015158152f35b505050346101de5760203660031901126101de57610100610c12826020946101aa611557565b83853461050357806003193601126105035760019161102a60018060a01b0384541633146117a6565b8051918093600c549161103c836116c6565b808652928281169081156110d45750600114611077575b505050611065826106489403836115e5565b51918291602083526020830190611572565b9450600c85527fdf6966c971051c3d54ec59162606531493a51404a002842f56009d7e5cf4a8c75b8286106110bc575050506110658260206106489582010194611053565b8054602087870181019190915290950194810161109f565b61064897508693506020925061106594915060ff191682840152151560051b82010194611053565b505050346101de57816003193601126101de573382526020906011825261112860ff828520541661165e565b80518381949060075461113a816116c6565b918285526001918783821691826000146106a857505060011461116a5750505061064892916106399103856115e5565b9190869350600783527fa66cc928b5edb82af9bd49922954155ab7b0942694bea4ce44661d9a8736c6885b8284106111ae5750505082010181610639610648610626565b8054848a018601528895508794909301928101611195565b505050346101de57816003193601126101de57338252602090601182526111f260ff828520541661165e565b805183819490600354611204816116c6565b918285526001918783821691826000146106a85750506001146112345750505061064892916106399103856115e5565b9190869350600383527fc2575a0e9e593c00f959f8c92f12db2869c3395a3b0502d05e2516446f71f85b5b8284106112785750505082010181610639610648610626565b8054848a01860152889550879490930192810161125f565b505050346101de57816003193601126101de57338252602090601182526112bc60ff828520541661165e565b8051838194906009546112ce816116c6565b918285526001918783821691826000146106a85750506001146112fe5750505061064892916106399103856115e5565b9190869350600983527f6e1540171b6c0c960b71a7020d9f60077f6af931a8bbf590da0223dacf75c7af5b8284106113425750505082010181610639610648610626565b8054848a018601528895508794909301928101611329565b505050346101de57816003193601126101de573382526020906011825261138660ff828520541661165e565b805183819490600254611398816116c6565b918285526001918783821691826000146106a85750506001146113c85750505061064892916106399103856115e5565b9190869350600283527f405787fa12a823e0f2b7631cc41b3ba8828b3321ca811111fa75cd3aa3bb5ace5b82841061140c5750505082010181610639610648610626565b8054848a0186015288955087949093019281016113f3565b9184869234610be85760209485600319360112610be457611443611557565b60a0908183019267ffffffffffffffff938181108582111761154457865288885b848110611536575050503387526011885261148460ff868920541661165e565b6001600160a01b031686526010875283862061149f906117e4565b91845195828701918783109083111761152357508452606082015185526080820151878601528101518385015260c0810151606085015201516080830152519183830184845260c084019291945b600586106114fb5784840385f35b9091928180611516600193601f198982030187528751611572565b95019301950194906114ed565b634e487b7160e01b885260419052602487fd5b606081840152018990611464565b634e487b7160e01b895260418852602489fd5b600435906001600160a01b038216820361156d57565b600080fd5b919082519283825260005b84811061159e575050826000602080949584010152601f8019910116010190565b60208183018101518483018201520161157d565b610160810190811067ffffffffffffffff8211176115cf57604052565b634e487b7160e01b600052604160045260246000fd5b90601f8019910116810190811067ffffffffffffffff8211176115cf57604052565b81601f8201121561156d5780359067ffffffffffffffff82116115cf576040519261163c601f8401601f1916602001856115e5565b8284526020838301011161156d57816000926020809301838601378301015290565b1561166557565b60405162461bcd60e51b815260206004820152603360248201527f596f7520617265206e6f7420617574686f72697a656420746f20706572666f7260448201527236903a3434b9903a3930b739b0b1ba34b7b71760691b6064820152608490fd5b90600182811c921680156116f6575b60208310146116e057565b634e487b7160e01b600052602260045260246000fd5b91607f16916116d5565b9060405191826000825492611714846116c6565b9081845260019485811690816000146117835750600114611740575b505061173e925003836115e5565b565b9093915060005260209081600020936000915b81831061176b57505061173e93508201013880611730565b85548884018501529485019487945091830191611753565b91505061173e94506020925060ff191682840152151560051b8201013880611730565b156117ad57565b60405162461bcd60e51b815260206004820152600f60248201526e2737ba1020baba3437b934bd32b21760891b6044820152606490fd5b906040516117f1816115b2565b6101406009829461180181611700565b845261180f60018201611700565b602085015260028101546001600160a01b0316604085015261183360038201611700565b606085015261184460048201611700565b608085015261185560058201611700565b60a085015261186660068201611700565b60c085015261187760078201611700565b60e085015260ff6008820154818116151561010087015260081c1615156101208501520154910152565b156118a857565b60405162461bcd60e51b815260206004820152600d60248201526c2737ba103b32b934b334b2b21760991b6044820152606490fd5b908051805167ffffffffffffffff908181116115cf57806118fe86546116c6565b93601f9485811161206a575b5060209085831160011461200557600092611ffa575b50508160011b916000199060031b1c19161784555b600180850160208501518051908482116115cf57819061195584546116c6565b878111611fa7575b50602090878311600114611f4457600092611f39575b5050600019600383901b1c191690831b1790555b6002850160018060a01b036040860151166bffffffffffffffffffffffff60a01b82541617905560039081860160608601518051908582116115cf5781906119cf84546116c6565b888111611ee6575b50602090888311600114611e8457600092611e79575b505060001982861b1c191690831b1790555b6004860160808601518051908582116115cf578190611a1e84546116c6565b888111611e26575b50602090888311600114611dc457600092611db9575b505060001982861b1c191690831b1790555b60059384870160a08701518051908682116115cf578190611a6f84546116c6565b858111611d68575b50602090858311600114611d0657600092611cfb575b505060001982871b1c191690841b1790555b6006870160c08701518051908682116115cf578190611abe84546116c6565b858111611caa575b50602090858311600114611c4857600092611c3d575b505060001982871b1c191690841b1790555b600787019460e08701519081519586116115cf57611b0c87546116c6565b90838211611bf7575b50506020918511600114611b86579284809360099896936101409896600095611b7b575b50501b92600019911b1c19161790555b600884016101008201511515815460ff61ff00610120860151151560081b1692169061ffff1916171790550151910155565b015193503880611b39565b91939290601f1984169286600052816000209360005b818110611be1575091859391610140989660099a98969410611bc7575b50505050811b019055611b49565b01519060f884600019921b161c1916905538808080611bb9565b8284015186559487019460209384019301611b9c565b8760005260206000209084808901821c83019360208a10611c34575b01901c019084905b828110611c285750611b15565b60008155018490611c1b565b93508293611c13565b015190503880611adc565b90869350601f1983169185600052816000209260005b818110611c9257508411611c7a575b505050811b019055611aee565b015160001983891b60f8161c19169055388080611c6d565b82840151855589969094019360209384019301611c5e565b909150836000526020600020858085018b1c82019260208610611cf2575b91889186959493018c1c01915b828110611ce3575050611ac6565b60008155859450889101611cd5565b92508192611cc8565b015190503880611a8d565b90869350601f1983169185600052816000209260005b818110611d5057508411611d38575b505050811b019055611a9f565b015160001983891b60f8161c19169055388080611d2b565b82840151855589969094019360209384019301611d1c565b909150836000526020600020858085018b1c82019260208610611db0575b91889186959493018c1c01915b828110611da1575050611a77565b60008155859450889101611d93565b92508192611d86565b015190503880611a3c565b90859350601f1983169185600052816000209260005b818110611e0e57508411611df6575b505050811b019055611a4e565b015160001983881b60f8161c19169055388080611de9565b82840151855588969094019360209384019301611dda565b9091508360005260206000208880850160051c82019260208610611e70575b918791869594930160051c01915b828110611e61575050611a26565b60008155859450879101611e53565b92508192611e45565b0151905038806119ed565b90859350601f1983169185600052816000209260005b818110611ece57508411611eb6575b505050811b0190556119ff565b015160001983881b60f8161c19169055388080611ea9565b82840151855588969094019360209384019301611e9a565b9091508360005260206000208880850160051c82019260208610611f30575b918791869594930160051c01915b828110611f215750506119d7565b60008155859450879101611f13565b92508192611f05565b015190503880611973565b90859350601f1983169185600052816000209260005b818110611f8f57508411611f76575b505050811b019055611987565b015160001960f88460031b161c19169055388080611f69565b82840151855588969094019360209384019301611f5a565b9091508360005260206000208780850160051c82019260208610611ff1575b918791869594930160051c01915b828110611fe257505061195d565b60008155859450879101611fd4565b92508192611fc6565b015190503880611920565b60008881528281209350601f198516905b8181106120525750908460019594939210612039575b505050811b018455611935565b015160001960f88460031b161c1916905538808061202c565b92936020600181928786015181550195019301612016565b9091506000878152602081208680860160051c820193602087106120b3575b908695949392910160051c01915b8281106120a557505061190a565b818155859450600101612097565b9350819361208956fea2646970667358221220acf499fc74c22c70b5d06c5ac44a75985385ff9ed2bd127a7ef1239e8186510064736f6c63430008130033405787fa12a823e0f2b7631cc41b3ba8828b3321ca811111fa75cd3aa3bb5acea66cc928b5edb82af9bd49922954155ab7b0942694bea4ce44661d9a8736c688f3f7a9fe364faab93b216da50a3214154f22a0a2b415b23a84c8169e8b636ee36e1540171b6c0c960b71a7020d9f60077f6af931a8bbf590da0223dacf75c7aff652222313e28459528d920b65115c16c04f3efc82aaedc97be59f3f377c0d3f",
  "linkReferences": {},
  "deployedLinkReferences": {}
}